{"contracts/WavyStudy.sol":{"WavyStudy":{"abi":[{"inputs":[{"internalType":"string","name":"email","type":"string"}],"name":"CheckEmail","outputs":[{"internalType":"string","name":"","type":"string"}],"stateMutability":"view","type":"function"},{"inputs":[{"internalType":"string","name":"full_name","type":"string"},{"internalType":"string","name":"email","type":"string"},{"internalType":"string","name":"password","type":"string"},{"internalType":"string","name":"accesstoken","type":"string"},{"internalType":"string","name":"walletaddress","type":"string"},{"internalType":"string","name":"birth_date","type":"string"}],"name":"CreateAccount","outputs":[],"stateMutability":"nonpayable","type":"function"},{"inputs":[{"internalType":"uint256","name":"user_id","type":"uint256"},{"internalType":"string","name":"date","type":"string"},{"internalType":"uint256","name":"study_id","type":"uint256"}],"name":"CreateCompletedInformedConsent","outputs":[],"stateMutability":"nonpayable","type":"function"},{"inputs":[{"internalType":"uint256","name":"survey_id","type":"uint256"},{"internalType":"uint256","name":"user_id","type":"uint256"},{"internalType":"string","name":"date","type":"string"},{"internalType":"uint256","name":"study_id","type":"uint256"}],"name":"CreateCompletedSurveys","outputs":[],"stateMutability":"nonpayable","type":"function"},{"inputs":[{"internalType":"uint256","name":"study_id","type":"uint256"},{"internalType":"uint256","name":"user_id","type":"uint256"},{"internalType":"string","name":"date","type":"string"},{"internalType":"string","name":"given_permission","type":"string"}],"name":"CreateOngoingStudy","outputs":[],"stateMutability":"nonpayable","type":"function"},{"inputs":[{"internalType":"uint256","name":"survey_id","type":"uint256"},{"internalType":"string","name":"metadata","type":"string"}],"name":"CreateOrSaveSections","outputs":[],"stateMutability":"nonpayable","type":"function"},{"inputs":[{"internalType":"uint256","name":"study_id","type":"uint256"},{"internalType":"string","name":"metadata","type":"string"}],"name":"CreateOrSaveStudyTitle","outputs":[],"stateMutability":"nonpayable","type":"function"},{"inputs":[{"internalType":"uint256","name":"study_id","type":"uint256"},{"internalType":"uint256","name":"user_id","type":"uint256"},{"internalType":"uint256","name":"survey_id","type":"uint256"},{"internalType":"string","name":"section_id","type":"string"},{"internalType":"string","name":"question_id","type":"string"},{"internalType":"string","name":"answer","type":"string"}],"name":"CreateQuestionAnswer","outputs":[],"stateMutability":"nonpayable","type":"function"},{"inputs":[{"internalType":"uint256","name":"user_id","type":"uint256"},{"internalType":"string","name":"image","type":"string"},{"internalType":"string","name":"title","type":"string"},{"internalType":"string","name":"description","type":"string"},{"internalType":"string","name":"permission","type":"string"},{"internalType":"uint256","name":"contributors","type":"uint256"},{"internalType":"uint256","name":"audience","type":"uint256"},{"internalType":"uint256","name":"budget","type":"uint256"}],"name":"CreateStudy","outputs":[],"stateMutability":"nonpayable","type":"function"},{"inputs":[{"internalType":"uint256","name":"study_id","type":"uint256"},{"internalType":"uint256","name":"user_id","type":"uint256"},{"internalType":"string","name":"name","type":"string"},{"internalType":"string","name":"description","type":"string"},{"internalType":"string","name":"date","type":"string"},{"internalType":"string","name":"image","type":"string"},{"internalType":"uint256","name":"reward","type":"uint256"}],"name":"CreateSurvey","outputs":[],"stateMutability":"payable","type":"function"},{"inputs":[{"internalType":"string","name":"name","type":"string"},{"internalType":"string","name":"image","type":"string"}],"name":"CreateSurveyCategory","outputs":[],"stateMutability":"nonpayable","type":"function"},{"inputs":[{"internalType":"uint256","name":"user_id","type":"uint256"}],"name":"GetOngoingStudy","outputs":[{"internalType":"string","name":"","type":"string"}],"stateMutability":"view","type":"function"},{"inputs":[{"internalType":"string","name":"email","type":"string"},{"internalType":"string","name":"password","type":"string"}],"name":"Login","outputs":[{"internalType":"string","name":"","type":"string"}],"stateMutability":"view","type":"function"},{"inputs":[{"internalType":"uint256","name":"userid","type":"uint256"},{"internalType":"string","name":"accesstoken","type":"string"}],"name":"UpdateAccessToken","outputs":[],"stateMutability":"nonpayable","type":"function"},{"inputs":[{"internalType":"uint256","name":"study_id","type":"uint256"},{"internalType":"string","name":"audience_info","type":"string"}],"name":"UpdateAudience","outputs":[],"stateMutability":"nonpayable","type":"function"},{"inputs":[{"internalType":"uint256","name":"user_id","type":"uint256"},{"internalType":"string","name":"walletaddress","type":"string"},{"internalType":"string","name":"family_name","type":"string"},{"internalType":"string","name":"given_name","type":"string"},{"internalType":"string","name":"identifier","type":"string"},{"internalType":"string","name":"phone","type":"string"},{"internalType":"string","name":"gender","type":"string"},{"internalType":"string","name":"birth_date","type":"string"},{"internalType":"string","name":"about","type":"string"},{"internalType":"string","name":"patient_id","type":"string"}],"name":"UpdateFhir","outputs":[],"stateMutability":"nonpayable","type":"function"},{"inputs":[{"internalType":"uint256","name":"study_id","type":"uint256"},{"internalType":"string","name":"reward_type","type":"string"},{"internalType":"uint256","name":"reward_price","type":"uint256"},{"internalType":"uint256","name":"total_spending_limit","type":"uint256"}],"name":"UpdateReward","outputs":[],"stateMutability":"nonpayable","type":"function"},{"inputs":[{"internalType":"uint256","name":"study_id","type":"uint256"},{"internalType":"string","name":"image","type":"string"},{"internalType":"string","name":"title","type":"string"},{"internalType":"string","name":"description","type":"string"},{"internalType":"uint256","name":"budget","type":"uint256"}],"name":"UpdateStudy","outputs":[],"stateMutability":"nonpayable","type":"function"},{"inputs":[{"internalType":"uint256","name":"study_id","type":"uint256"},{"internalType":"string","name":"metadata","type":"string"}],"name":"UpdateStudyAges","outputs":[],"stateMutability":"nonpayable","type":"function"},{"inputs":[{"internalType":"uint256","name":"survey_id","type":"uint256"},{"internalType":"string","name":"name","type":"string"},{"internalType":"string","name":"description","type":"string"},{"internalType":"string","name":"image","type":"string"},{"internalType":"uint256","name":"reward","type":"uint256"}],"name":"UpdateSurvey","outputs":[],"stateMutability":"nonpayable","type":"function"},{"inputs":[{"internalType":"uint256","name":"user_id","type":"uint256"},{"internalType":"string","name":"image","type":"string"},{"internalType":"uint256","name":"credits","type":"uint256"}],"name":"UpdateUser","outputs":[],"stateMutability":"nonpayable","type":"function"},{"inputs":[{"internalType":"uint256","name":"userid","type":"uint256"},{"internalType":"uint256","name":"amount","type":"uint256"},{"internalType":"address","name":"person","type":"address"}],"name":"WithDrawAmount","outputs":[],"stateMutability":"nonpayable","type":"function"},{"inputs":[],"name":"_AnsweredIds","outputs":[{"internalType":"uint256","name":"","type":"uint256"}],"stateMutability":"view","type":"function"},{"inputs":[],"name":"_CompletedInformedConsentIds","outputs":[{"internalType":"uint256","name":"","type":"uint256"}],"stateMutability":"view","type":"function"},{"inputs":[],"name":"_CompletedSurveyIds","outputs":[{"internalType":"uint256","name":"","type":"uint256"}],"stateMutability":"view","type":"function"},{"inputs":[],"name":"_FhirIds","outputs":[{"internalType":"uint256","name":"","type":"uint256"}],"stateMutability":"view","type":"function"},{"inputs":[],"name":"_OngoingIds","outputs":[{"internalType":"uint256","name":"","type":"uint256"}],"stateMutability":"view","type":"function"},{"inputs":[],"name":"_StudyIds","outputs":[{"internalType":"uint256","name":"","type":"uint256"}],"stateMutability":"view","type":"function"},{"inputs":[],"name":"_SubjectIds","outputs":[{"internalType":"uint256","name":"","type":"uint256"}],"stateMutability":"view","type":"function"},{"inputs":[],"name":"_SurveyCategoryIds","outputs":[{"internalType":"uint256","name":"","type":"uint256"}],"stateMutability":"view","type":"function"},{"inputs":[],"name":"_SurveyIds","outputs":[{"internalType":"uint256","name":"","type":"uint256"}],"stateMutability":"view","type":"function"},{"inputs":[],"name":"_UserIds","outputs":[{"internalType":"uint256","name":"","type":"uint256"}],"stateMutability":"view","type":"function"},{"inputs":[{"internalType":"uint256","name":"","type":"uint256"}],"name":"_categoryMap","outputs":[{"internalType":"string","name":"name","type":"string"},{"internalType":"string","name":"image","type":"string"}],"stateMutability":"view","type":"function"},{"inputs":[{"internalType":"uint256","name":"","type":"uint256"}],"name":"_completedinformedMap","outputs":[{"internalType":"uint256","name":"completed_informed_consent_id","type":"uint256"},{"internalType":"uint256","name":"study_id","type":"uint256"},{"internalType":"uint256","name":"user_id","type":"uint256"},{"internalType":"string","name":"date","type":"string"}],"stateMutability":"view","type":"function"},{"inputs":[{"internalType":"uint256","name":"","type":"uint256"}],"name":"_completedsurveyMap","outputs":[{"internalType":"uint256","name":"completed_survey_id","type":"uint256"},{"internalType":"uint256","name":"study_id","type":"uint256"},{"internalType":"uint256","name":"user_id","type":"uint256"},{"internalType":"uint256","name":"survey_id","type":"uint256"},{"internalType":"string","name":"date","type":"string"}],"stateMutability":"view","type":"function"},{"inputs":[{"internalType":"uint256","name":"","type":"uint256"}],"name":"_fhirMap","outputs":[{"internalType":"uint256","name":"user_id","type":"uint256"},{"internalType":"string","name":"family_name","type":"string"},{"internalType":"string","name":"given_name","type":"string"},{"internalType":"string","name":"identifier","type":"string"},{"internalType":"string","name":"phone","type":"string"},{"internalType":"string","name":"gender","type":"string"},{"internalType":"string","name":"birth_date","type":"string"},{"internalType":"string","name":"about","type":"string"},{"internalType":"string","name":"patient_id","type":"string"}],"stateMutability":"view","type":"function"},{"inputs":[{"internalType":"uint256","name":"","type":"uint256"}],"name":"_ongoingMap","outputs":[{"internalType":"uint256","name":"ongoing_id","type":"uint256"},{"internalType":"uint256","name":"study_id","type":"uint256"},{"internalType":"uint256","name":"user_id","type":"uint256"},{"internalType":"string","name":"date","type":"string"},{"internalType":"string","name":"given_permission","type":"string"}],"stateMutability":"view","type":"function"},{"inputs":[{"internalType":"uint256","name":"","type":"uint256"}],"name":"_questionanswerdMap","outputs":[{"internalType":"uint256","name":"answer_id","type":"uint256"},{"internalType":"uint256","name":"study_id","type":"uint256"},{"internalType":"uint256","name":"user_id","type":"uint256"},{"internalType":"uint256","name":"survey_id","type":"uint256"},{"internalType":"string","name":"section_id","type":"string"},{"internalType":"string","name":"question_id","type":"string"},{"internalType":"string","name":"answer","type":"string"}],"stateMutability":"view","type":"function"},{"inputs":[{"internalType":"uint256","name":"","type":"uint256"}],"name":"_sectionsMap","outputs":[{"internalType":"string","name":"","type":"string"}],"stateMutability":"view","type":"function"},{"inputs":[{"internalType":"uint256","name":"","type":"uint256"}],"name":"_studyAges","outputs":[{"internalType":"string","name":"","type":"string"}],"stateMutability":"view","type":"function"},{"inputs":[{"internalType":"uint256","name":"","type":"uint256"}],"name":"_studyAudienceMap","outputs":[{"internalType":"string","name":"","type":"string"}],"stateMutability":"view","type":"function"},{"inputs":[{"internalType":"uint256","name":"","type":"uint256"}],"name":"_studyMap","outputs":[{"internalType":"uint256","name":"study_id","type":"uint256"},{"internalType":"uint256","name":"user_id","type":"uint256"},{"internalType":"string","name":"image","type":"string"},{"internalType":"string","name":"title","type":"string"},{"internalType":"string","name":"description","type":"string"},{"internalType":"string","name":"permission","type":"string"},{"internalType":"uint256","name":"contributors","type":"uint256"},{"internalType":"uint256","name":"audience","type":"uint256"},{"internalType":"uint256","name":"budget","type":"uint256"},{"internalType":"string","name":"reward_type","type":"string"},{"internalType":"uint256","name":"reward_price","type":"uint256"},{"internalType":"uint256","name":"total_spending_limit","type":"uint256"}],"stateMutability":"view","type":"function"},{"inputs":[{"internalType":"uint256","name":"","type":"uint256"}],"name":"_studyTitles","outputs":[{"internalType":"string","name":"","type":"string"}],"stateMutability":"view","type":"function"},{"inputs":[{"internalType":"uint256","name":"","type":"uint256"}],"name":"_surveyMap","outputs":[{"internalType":"uint256","name":"survey_id","type":"uint256"},{"internalType":"uint256","name":"study_id","type":"uint256"},{"internalType":"uint256","name":"user_id","type":"uint256"},{"internalType":"string","name":"name","type":"string"},{"internalType":"string","name":"description","type":"string"},{"internalType":"string","name":"date","type":"string"},{"internalType":"string","name":"image","type":"string"},{"internalType":"uint256","name":"reward","type":"uint256"},{"internalType":"uint256","name":"submission","type":"uint256"}],"stateMutability":"view","type":"function"},{"inputs":[{"internalType":"uint256","name":"user_id","type":"uint256"}],"name":"getAllCompletedSurveysIDByUser","outputs":[{"internalType":"uint256[]","name":"","type":"uint256[]"}],"stateMutability":"view","type":"function"},{"inputs":[{"internalType":"uint256","name":"study_id","type":"uint256"}],"name":"getAllSurveysIDByStudy","outputs":[{"internalType":"uint256[]","name":"","type":"uint256[]"}],"stateMutability":"view","type":"function"},{"inputs":[{"internalType":"uint256","name":"user_id","type":"uint256"},{"internalType":"uint256","name":"study_id","type":"uint256"}],"name":"getCompletedInformedConsentId","outputs":[{"internalType":"string","name":"","type":"string"}],"stateMutability":"view","type":"function"},{"inputs":[{"internalType":"uint256","name":"user_id","type":"uint256"}],"name":"getUserDetails","outputs":[{"internalType":"string","name":"","type":"string"},{"internalType":"uint256","name":"","type":"uint256"},{"internalType":"string","name":"","type":"string"},{"internalType":"string","name":"","type":"string"},{"internalType":"string","name":"","type":"string"},{"internalType":"string","name":"","type":"string"},{"internalType":"uint256","name":"","type":"uint256"}],"stateMutability":"view","type":"function"}],"devdoc":{"kind":"dev","methods":{},"version":1},"evm":{"bytecode":{"linkReferences":{},"object":"608060405234801561001057600080fd5b50614ddc806100206000396000f3fe6080604052600436106102935760003560e01c80639e20c6271161015a578063ce08988c116100c1578063ebe197ca1161007a578063ebe197ca14610a97578063ed65759414610adc578063f0d8e87314610b05578063f6aaa80414610b43578063f8b7800f14610b84578063fc20a88614610bc157610293565b8063ce08988c14610959578063de7acfd714610984578063e57f973f146109c9578063e6576b03146109f2578063ea7efaa614610a2f578063eb6b287014610a6c57610293565b8063b356e1b311610113578063b356e1b314610831578063b6e604bd1461085a578063c13b283614610885578063c482e92e146108c8578063ccef4218146108f3578063cda495c61461093057610293565b80639e20c6271461071c578063a899ef4214610745578063ad23f8f91461076e578063ae7de73f14610797578063aece8c39146107c0578063b105aa431461080857610293565b80634f699a13116101fe57806378119530116101b757806378119530146105e45780637c15641a146106215780637d423e101461064c5780638b23607c1461067557806390b18a78146106b257806390d6cf05146106db57610293565b80634f699a13146104ea5780634f8b36eb146105155780635f27aea11461053e578063633bc2e11461056757806366cad734146105925780636c067b48146105bb57610293565b806329b364231161025057806329b36423146103d75780632e98d8e5146104025780633896f1301461042b5780633b3aecfa146104475780633eebd0d01461048457806349b9b07b146104ad57610293565b806301c661091461029857806307c70d9a146102c35780631429f775146103005780631873de771461032b578063190f20df1461036b5780631c1a9f7b14610394575b600080fd5b3480156102a457600080fd5b506102ad610bfe565b6040516102ba91906136ed565b60405180910390f35b3480156102cf57600080fd5b506102ea60048036038101906102e59190613748565b610c04565b6040516102f7919061380e565b60405180910390f35b34801561030c57600080fd5b50610315610caa565b60405161032291906136ed565b60405180910390f35b34801561033757600080fd5b50610352600480360381019061034d9190613748565b610cb0565b6040516103629493929190613830565b60405180910390f35b34801561037757600080fd5b50610392600480360381019061038d91906139b1565b610d68565b005b3480156103a057600080fd5b506103bb60048036038101906103b69190613748565b610dfb565b6040516103ce9796959493929190613a20565b60405180910390f35b3480156103e357600080fd5b506103ec611178565b6040516103f991906136ed565b60405180910390f35b34801561040e57600080fd5b5061042960048036038101906104249190613ab2565b61117e565b005b61044560048036038101906104409190613b81565b611221565b005b34801561045357600080fd5b5061046e60048036038101906104699190613c93565b611344565b60405161047b919061380e565b60405180910390f35b34801561049057600080fd5b506104ab60048036038101906104a69190613cd3565b6113f6565b005b3480156104b957600080fd5b506104d460048036038101906104cf9190613748565b61145d565b6040516104e19190613e14565b60405180910390f35b3480156104f657600080fd5b506104ff611575565b60405161050c91906136ed565b60405180910390f35b34801561052157600080fd5b5061053c60048036038101906105379190613e36565b61157b565b005b34801561054a57600080fd5b5061056560048036038101906105609190613ab2565b6115fe565b005b34801561057357600080fd5b5061057c6116a1565b60405161058991906136ed565b60405180910390f35b34801561059e57600080fd5b506105b960048036038101906105b49190613eae565b6116a7565b005b3480156105c757600080fd5b506105e260048036038101906105dd9190613f0a565b6116d3565b005b3480156105f057600080fd5b5061060b60048036038101906106069190613748565b6117bf565b604051610618919061380e565b60405180910390f35b34801561062d57600080fd5b5061063661185f565b60405161064391906136ed565b60405180910390f35b34801561065857600080fd5b50610673600480360381019061066e9190613feb565b611865565b005b34801561068157600080fd5b5061069c60048036038101906106979190613748565b611962565b6040516106a99190613e14565b60405180910390f35b3480156106be57600080fd5b506106d960048036038101906106d49190613eae565b611a7a565b005b3480156106e757600080fd5b5061070260048036038101906106fd9190613748565b611aa9565b60405161071395949392919061406e565b60405180910390f35b34801561072857600080fd5b50610743600480360381019061073e91906140c8565b611b67565b005b34801561075157600080fd5b5061076c60048036038101906107679190614167565b611c4c565b005b34801561077a57600080fd5b5061079560048036038101906107909190613eae565b611deb565b005b3480156107a357600080fd5b506107be60048036038101906107b9919061428d565b611e17565b005b3480156107cc57600080fd5b506107e760048036038101906107e29190613748565b611fc1565b6040516107ff9c9b9a99989796959493929190614468565b60405180910390f35b34801561081457600080fd5b5061082f600480360381019061082a9190613eae565b6122c9565b005b34801561083d57600080fd5b50610858600480360381019061085391906145a3565b6122f5565b005b34801561086657600080fd5b5061086f6123d4565b60405161087c91906136ed565b60405180910390f35b34801561089157600080fd5b506108ac60048036038101906108a79190613748565b6123da565b6040516108bf97969594939291906145f6565b60405180910390f35b3480156108d457600080fd5b506108dd6125b4565b6040516108ea91906136ed565b60405180910390f35b3480156108ff57600080fd5b5061091a60048036038101906109159190613e36565b6125ba565b604051610927919061380e565b60405180910390f35b34801561093c57600080fd5b506109576004803603810190610952919061467a565b6126a2565b005b34801561096557600080fd5b5061096e61284c565b60405161097b91906136ed565b60405180910390f35b34801561099057600080fd5b506109ab60048036038101906109a69190613748565b612852565b6040516109c0999897969594939291906147af565b60405180910390f35b3480156109d557600080fd5b506109f060048036038101906109eb91906139b1565b612ac0565b005b3480156109fe57600080fd5b50610a196004803603810190610a149190613748565b612b0b565b604051610a26919061380e565b60405180910390f35b348015610a3b57600080fd5b50610a566004803603810190610a519190613748565b612bab565b604051610a63919061380e565b60405180910390f35b348015610a7857600080fd5b50610a81612c4b565b604051610a8e91906136ed565b60405180910390f35b348015610aa357600080fd5b50610abe6004803603810190610ab99190613748565b612c51565b604051610ad399989796959493929190614858565b60405180910390f35b348015610ae857600080fd5b50610b036004803603810190610afe9190613eae565b6130df565b005b348015610b1157600080fd5b50610b2c6004803603810190610b279190613748565b61310b565b604051610b3a92919061491d565b60405180910390f35b348015610b4f57600080fd5b50610b6a6004803603810190610b659190613748565b61323f565b604051610b7b959493929190614954565b60405180910390f35b348015610b9057600080fd5b50610bab6004803603810190610ba691906149b5565b613385565b604051610bb8919061380e565b60405180910390f35b348015610bcd57600080fd5b50610be86004803603810190610be39190613748565b613430565b604051610bf5919061380e565b60405180910390f35b60075481565b606060005b600654811015610c6b578260136000838152602001908152602001600020600201541415610c5857610c5060136000838152602001908152602001600020600101546134d0565b915050610ca5565b8080610c6390614a2d565b915050610c09565b506040518060400160405280600581526020017f46616c736500000000000000000000000000000000000000000000000000000081525090505b919050565b60045481565b6016602052806000526040600020600091509050806000015490806001015490806002015490806003018054610ce590614aa5565b80601f0160208091040260200160405190810160405280929190818152602001828054610d1190614aa5565b8015610d5e5780601f10610d3357610100808354040283529160200191610d5e565b820191906000526020600020905b815481529060010190602001808311610d4157829003601f168201915b5050505050905084565b60405180608001604052806009548152602001828152602001848152602001838152506016600060095481526020019081526020016000206000820151816000015560208201518160010155604082015181600201556060820151816003019080519060200190610dda929190613631565b5090505060096000815480929190610df190614a2d565b9190505550505050565b606060006060806060806000600a6000898152602001908152602001600020600501600a60008a815260200190815260200160002060060154600a60008b8152602001908152602001600020600101600a60008c8152602001908152602001600020600201600a60008d8152602001908152602001600020600401600a60008e8152602001908152602001600020600701600a60008f815260200190815260200160002060080154868054610eaf90614aa5565b80601f0160208091040260200160405190810160405280929190818152602001828054610edb90614aa5565b8015610f285780601f10610efd57610100808354040283529160200191610f28565b820191906000526020600020905b815481529060010190602001808311610f0b57829003601f168201915b50505050509650848054610f3b90614aa5565b80601f0160208091040260200160405190810160405280929190818152602001828054610f6790614aa5565b8015610fb45780601f10610f8957610100808354040283529160200191610fb4565b820191906000526020600020905b815481529060010190602001808311610f9757829003601f168201915b50505050509450838054610fc790614aa5565b80601f0160208091040260200160405190810160405280929190818152602001828054610ff390614aa5565b80156110405780601f1061101557610100808354040283529160200191611040565b820191906000526020600020905b81548152906001019060200180831161102357829003601f168201915b5050505050935082805461105390614aa5565b80601f016020809104026020016040519081016040528092919081815260200182805461107f90614aa5565b80156110cc5780601f106110a1576101008083540402835291602001916110cc565b820191906000526020600020905b8154815290600101906020018083116110af57829003601f168201915b505050505092508180546110df90614aa5565b80601f016020809104026020016040519081016040528092919081815260200182805461110b90614aa5565b80156111585780601f1061112d57610100808354040283529160200191611158565b820191906000526020600020905b81548152906001019060200180831161113b57829003601f168201915b505050505091509650965096509650965096509650919395979092949650565b60055481565b83600b600087815260200190815260200160002060020190805190602001906111a8929190613631565b5082600b600087815260200190815260200160002060030190805190602001906111d3929190613631565b5081600b600087815260200190815260200160002060040190805190602001906111fe929190613631565b5080600b6000878152602001908152602001600020600801819055505050505050565b60405180610120016040528060045481526020018881526020018781526020018681526020018581526020018481526020018381526020018281526020016000815250600f6000600454815260200190815260200160002060008201518160000155602082015181600101556040820151816002015560608201518160030190805190602001906112b3929190613631565b5060808201518160040190805190602001906112d0929190613631565b5060a08201518160050190805190602001906112ed929190613631565b5060c082015181600601908051906020019061130a929190613631565b5060e0820151816007015561010082015181600801559050506004600081548092919061133690614a2d565b919050555050505050505050565b606060005b6009548110156113b65783601660008381526020019081526020016000206002015414801561138d5750826016600083815260200190815260200160002060010154145b156113a35761139b816134d0565b9150506113f0565b80806113ae90614a2d565b915050611349565b506040518060400160405280600581526020017f46616c736500000000000000000000000000000000000000000000000000000081525090505b92915050565b82600b60008681526020019081526020016000206009019080519060200190611420929190613631565b5081600b6000868152602001908152602001600020600a018190555080600b6000868152602001908152602001600020600b018190555050505050565b60606000805b6008548110156114ad57836015600083815260200190815260200160002060020154141561149a57818061149690614a2d565b9250505b80806114a590614a2d565b915050611463565b5060008167ffffffffffffffff8111156114ca576114c9613886565b5b6040519080825280602002602001820160405280156114f85781602001602082028036833780820191505090505b5090506000805b600854811015611569578560156000838152602001908152602001600020600201541415611556578083838151811061153b5761153a614ad7565b5b602002602001018181525050818061155290614a2d565b9250505b808061156190614a2d565b9150506114ff565b50819350505050919050565b60095481565b60405180604001604052808381526020018281525060106000600554815260200190815260200160002060008201518160000190805190602001906115c1929190613631565b5060208201518160010190805190602001906115de929190613631565b50905050600560008154809291906115f590614a2d565b91905055505050565b83600f60008781526020019081526020016000206003019080519060200190611628929190613631565b5082600f60008781526020019081526020016000206004019080519060200190611653929190613631565b5081600f6000878152602001908152602001600020600601908051906020019061167e929190613631565b5080600f6000878152602001908152602001600020600701819055505050505050565b60035481565b806011600084815260200190815260200160002090805190602001906116ce929190613631565b505050565b6040518060e00160405280600754815260200187815260200186815260200185815260200184815260200183815260200182815250601460006007548152602001908152602001600020600082015181600001556020820151816001015560408201518160020155606082015181600301556080820151816004019080519060200190611761929190613631565b5060a082015181600501908051906020019061177e929190613631565b5060c082015181600601908051906020019061179b929190613631565b50905050600760008154809291906117b290614a2d565b9190505550505050505050565b600d60205280600052604060002060009150905080546117de90614aa5565b80601f016020809104026020016040519081016040528092919081815260200182805461180a90614aa5565b80156118575780601f1061182c57610100808354040283529160200191611857565b820191906000526020600020905b81548152906001019060200180831161183a57829003601f168201915b505050505081565b60015481565b6040518060a001604052806008548152602001828152602001848152602001858152602001838152506015600060085481526020019081526020016000206000820151816000015560208201518160010155604082015181600201556060820151816003015560808201518160040190805190602001906118e7929190613631565b509050506001600f600086815260200190815260200160002060080160008282546119129190614b06565b9250508190555081600f60008681526020019081526020016000206005019080519060200190611943929190613631565b506008600081548092919061195790614a2d565b919050555050505050565b60606000805b6004548110156119b25783600f600083815260200190815260200160002060010154141561199f57818061199b90614a2d565b9250505b80806119aa90614a2d565b915050611968565b5060008167ffffffffffffffff8111156119cf576119ce613886565b5b6040519080825280602002602001820160405280156119fd5781602001602082028036833780820191505090505b5090506000805b600454811015611a6e5785600f6000838152602001908152602001600020600101541415611a5b5780838381518110611a4057611a3f614ad7565b5b6020026020010181815250508180611a5790614a2d565b9250505b8080611a6690614a2d565b915050611a04565b50819350505050919050565b80600a60008481526020019081526020016000206007019080519060200190611aa4929190613631565b505050565b6015602052806000526040600020600091509050806000015490806001015490806002015490806003015490806004018054611ae490614aa5565b80601f0160208091040260200160405190810160405280929190818152602001828054611b1090614aa5565b8015611b5d5780601f10611b3257610100808354040283529160200191611b5d565b820191906000526020600020905b815481529060010190602001808311611b4057829003601f168201915b5050505050905085565b6040518060a001604052806006548152602001858152602001848152602001838152602001828152506013600060065481526020019081526020016000206000820151816000015560208201518160010155604082015181600201556060820151816003019080519060200190611bdf929190613631565b506080820151816004019080519060200190611bfc929190613631565b509050506001600b60008681526020019081526020016000206006016000828254611c279190614b06565b9250508190555060066000815480929190611c4190614a2d565b919050555050505050565b60405180610180016040528060025481526020018981526020018881526020018781526020018681526020018581526020018481526020018381526020018281526020016040518060400160405280600481526020017f484241520000000000000000000000000000000000000000000000000000000081525081526020016000815260200182815250600b6000600254815260200190815260200160002060008201518160000155602082015181600101556040820151816002019080519060200190611d1b929190613631565b506060820151816003019080519060200190611d38929190613631565b506080820151816004019080519060200190611d55929190613631565b5060a0820151816005019080519060200190611d72929190613631565b5060c0820151816006015560e082015181600701556101008201518160080155610120820151816009019080519060200190611daf929190613631565b5061014082015181600a015561016082015181600b015590505060026000815480929190611ddc90614a2d565b91905055505050505050505050565b80600e60008481526020019081526020016000209080519060200190611e12929190613631565b505050565b89601260008c81526020019081526020016000206000018190555087601260008c81526020019081526020016000206001019080519060200190611e5c929190613631565b5086601260008c81526020019081526020016000206002019080519060200190611e87929190613631565b5085601260008c81526020019081526020016000206003019080519060200190611eb2929190613631565b5084601260008c81526020019081526020016000206004019080519060200190611edd929190613631565b5083601260008c81526020019081526020016000206005019080519060200190611f08929190613631565b5082601260008c81526020019081526020016000206006019080519060200190611f33929190613631565b5081601260008c81526020019081526020016000206007019080519060200190611f5e929190613631565b5080601260008c81526020019081526020016000206008019080519060200190611f89929190613631565b5088600a60008c81526020019081526020016000206004019080519060200190611fb4929190613631565b5050505050505050505050565b600b602052806000526040600020600091509050806000015490806001015490806002018054611ff090614aa5565b80601f016020809104026020016040519081016040528092919081815260200182805461201c90614aa5565b80156120695780601f1061203e57610100808354040283529160200191612069565b820191906000526020600020905b81548152906001019060200180831161204c57829003601f168201915b50505050509080600301805461207e90614aa5565b80601f01602080910402602001604051908101604052809291908181526020018280546120aa90614aa5565b80156120f75780601f106120cc576101008083540402835291602001916120f7565b820191906000526020600020905b8154815290600101906020018083116120da57829003601f168201915b50505050509080600401805461210c90614aa5565b80601f016020809104026020016040519081016040528092919081815260200182805461213890614aa5565b80156121855780601f1061215a57610100808354040283529160200191612185565b820191906000526020600020905b81548152906001019060200180831161216857829003601f168201915b50505050509080600501805461219a90614aa5565b80601f01602080910402602001604051908101604052809291908181526020018280546121c690614aa5565b80156122135780601f106121e857610100808354040283529160200191612213565b820191906000526020600020905b8154815290600101906020018083116121f657829003601f168201915b50505050509080600601549080600701549080600801549080600901805461223a90614aa5565b80601f016020809104026020016040519081016040528092919081815260200182805461226690614aa5565b80156122b35780601f10612288576101008083540402835291602001916122b3565b820191906000526020600020905b81548152906001019060200180831161229657829003601f168201915b50505050509080600a01549080600b015490508c565b80600c600084815260200190815260200160002090805190602001906122f0929190613631565b505050565b60008173ffffffffffffffffffffffffffffffffffffffff168360405161231b90614b8d565b60006040518083038185875af1925050503d8060008114612358576040519150601f19603f3d011682016040523d82523d6000602084013e61235d565b606091505b50509050806123a1576040517f08c379a000000000000000000000000000000000000000000000000000000000815260040161239890614bee565b60405180910390fd5b82600a600086815260200190815260200160002060060160008282546123c79190614c0e565b9250508190555050505050565b60085481565b601460205280600052604060002060009150905080600001549080600101549080600201549080600301549080600401805461241590614aa5565b80601f016020809104026020016040519081016040528092919081815260200182805461244190614aa5565b801561248e5780601f106124635761010080835404028352916020019161248e565b820191906000526020600020905b81548152906001019060200180831161247157829003601f168201915b5050505050908060050180546124a390614aa5565b80601f01602080910402602001604051908101604052809291908181526020018280546124cf90614aa5565b801561251c5780601f106124f15761010080835404028352916020019161251c565b820191906000526020600020905b8154815290600101906020018083116124ff57829003601f168201915b50505050509080600601805461253190614aa5565b80601f016020809104026020016040519081016040528092919081815260200182805461255d90614aa5565b80156125aa5780601f1061257f576101008083540402835291602001916125aa565b820191906000526020600020905b81548152906001019060200180831161258d57829003601f168201915b5050505050905087565b60025481565b606060005b600054811015612662578380519060200120600a60008381526020019081526020016000206002016040516125f49190614cd6565b604051809103902014801561263957508280519060200120600a600083815260200190815260200160002060030160405161262f9190614cd6565b6040518091039020145b1561264f57612647816134d0565b91505061269c565b808061265a90614a2d565b9150506125bf565b506040518060400160405280600581526020017f46616c736500000000000000000000000000000000000000000000000000000081525090505b92915050565b6040518061012001604052806000548152602001878152602001868152602001858152602001838152602001604051806060016040528060288152602001614d7f60289139815260200160008152602001848152602001600054815250600a600080548152602001908152602001600020600082015181600001556020820151816001019080519060200190612739929190613631565b506040820151816002019080519060200190612756929190613631565b506060820151816003019080519060200190612773929190613631565b506080820151816004019080519060200190612790929190613631565b5060a08201518160050190805190602001906127ad929190613631565b5060c0820151816006015560e08201518160070190805190602001906127d4929190613631565b506101008201518160080155905050806012600080548152602001908152602001600020600601908051906020019061280e929190613631565b5060005460126000805481526020019081526020016000206000018190555060008081548092919061283f90614a2d565b9190505550505050505050565b60005481565b600f60205280600052604060002060009150905080600001549080600101549080600201549080600301805461288790614aa5565b80601f01602080910402602001604051908101604052809291908181526020018280546128b390614aa5565b80156129005780601f106128d557610100808354040283529160200191612900565b820191906000526020600020905b8154815290600101906020018083116128e357829003601f168201915b50505050509080600401805461291590614aa5565b80601f016020809104026020016040519081016040528092919081815260200182805461294190614aa5565b801561298e5780601f106129635761010080835404028352916020019161298e565b820191906000526020600020905b81548152906001019060200180831161297157829003601f168201915b5050505050908060050180546129a390614aa5565b80601f01602080910402602001604051908101604052809291908181526020018280546129cf90614aa5565b8015612a1c5780601f106129f157610100808354040283529160200191612a1c565b820191906000526020600020905b8154815290600101906020018083116129ff57829003601f168201915b505050505090806006018054612a3190614aa5565b80601f0160208091040260200160405190810160405280929190818152602001828054612a5d90614aa5565b8015612aaa5780601f10612a7f57610100808354040283529160200191612aaa565b820191906000526020600020905b815481529060010190602001808311612a8d57829003601f168201915b5050505050908060070154908060080154905089565b81600a60008581526020019081526020016000206005019080519060200190612aea929190613631565b5080600a600085815260200190815260200160002060060181905550505050565b600c6020528060005260406000206000915090508054612b2a90614aa5565b80601f0160208091040260200160405190810160405280929190818152602001828054612b5690614aa5565b8015612ba35780601f10612b7857610100808354040283529160200191612ba3565b820191906000526020600020905b815481529060010190602001808311612b8657829003601f168201915b505050505081565b60116020528060005260406000206000915090508054612bca90614aa5565b80601f0160208091040260200160405190810160405280929190818152602001828054612bf690614aa5565b8015612c435780601f10612c1857610100808354040283529160200191612c43565b820191906000526020600020905b815481529060010190602001808311612c2657829003601f168201915b505050505081565b60065481565b6012602052806000526040600020600091509050806000015490806001018054612c7a90614aa5565b80601f0160208091040260200160405190810160405280929190818152602001828054612ca690614aa5565b8015612cf35780601f10612cc857610100808354040283529160200191612cf3565b820191906000526020600020905b815481529060010190602001808311612cd657829003601f168201915b505050505090806002018054612d0890614aa5565b80601f0160208091040260200160405190810160405280929190818152602001828054612d3490614aa5565b8015612d815780601f10612d5657610100808354040283529160200191612d81565b820191906000526020600020905b815481529060010190602001808311612d6457829003601f168201915b505050505090806003018054612d9690614aa5565b80601f0160208091040260200160405190810160405280929190818152602001828054612dc290614aa5565b8015612e0f5780601f10612de457610100808354040283529160200191612e0f565b820191906000526020600020905b815481529060010190602001808311612df257829003601f168201915b505050505090806004018054612e2490614aa5565b80601f0160208091040260200160405190810160405280929190818152602001828054612e5090614aa5565b8015612e9d5780601f10612e7257610100808354040283529160200191612e9d565b820191906000526020600020905b815481529060010190602001808311612e8057829003601f168201915b505050505090806005018054612eb290614aa5565b80601f0160208091040260200160405190810160405280929190818152602001828054612ede90614aa5565b8015612f2b5780601f10612f0057610100808354040283529160200191612f2b565b820191906000526020600020905b815481529060010190602001808311612f0e57829003601f168201915b505050505090806006018054612f4090614aa5565b80601f0160208091040260200160405190810160405280929190818152602001828054612f6c90614aa5565b8015612fb95780601f10612f8e57610100808354040283529160200191612fb9565b820191906000526020600020905b815481529060010190602001808311612f9c57829003601f168201915b505050505090806007018054612fce90614aa5565b80601f0160208091040260200160405190810160405280929190818152602001828054612ffa90614aa5565b80156130475780601f1061301c57610100808354040283529160200191613047565b820191906000526020600020905b81548152906001019060200180831161302a57829003601f168201915b50505050509080600801805461305c90614aa5565b80601f016020809104026020016040519081016040528092919081815260200182805461308890614aa5565b80156130d55780601f106130aa576101008083540402835291602001916130d5565b820191906000526020600020905b8154815290600101906020018083116130b857829003601f168201915b5050505050905089565b80600d60008481526020019081526020016000209080519060200190613106929190613631565b505050565b601060205280600052604060002060009150905080600001805461312e90614aa5565b80601f016020809104026020016040519081016040528092919081815260200182805461315a90614aa5565b80156131a75780601f1061317c576101008083540402835291602001916131a7565b820191906000526020600020905b81548152906001019060200180831161318a57829003601f168201915b5050505050908060010180546131bc90614aa5565b80601f01602080910402602001604051908101604052809291908181526020018280546131e890614aa5565b80156132355780601f1061320a57610100808354040283529160200191613235565b820191906000526020600020905b81548152906001019060200180831161321857829003601f168201915b5050505050905082565b601360205280600052604060002060009150905080600001549080600101549080600201549080600301805461327490614aa5565b80601f01602080910402602001604051908101604052809291908181526020018280546132a090614aa5565b80156132ed5780601f106132c2576101008083540402835291602001916132ed565b820191906000526020600020905b8154815290600101906020018083116132d057829003601f168201915b50505050509080600401805461330290614aa5565b80601f016020809104026020016040519081016040528092919081815260200182805461332e90614aa5565b801561337b5780601f106133505761010080835404028352916020019161337b565b820191906000526020600020905b81548152906001019060200180831161335e57829003601f168201915b5050505050905085565b606060005b6000548110156133f1578280519060200120600a60008381526020019081526020016000206002016040516133bf9190614cd6565b604051809103902014156133de576133d6816134d0565b91505061342b565b80806133e990614a2d565b91505061338a565b506040518060400160405280600581526020017f46616c736500000000000000000000000000000000000000000000000000000081525090505b919050565b600e602052806000526040600020600091509050805461344f90614aa5565b80601f016020809104026020016040519081016040528092919081815260200182805461347b90614aa5565b80156134c85780601f1061349d576101008083540402835291602001916134c8565b820191906000526020600020905b8154815290600101906020018083116134ab57829003601f168201915b505050505081565b60606000821415613518576040518060400160405280600181526020017f3000000000000000000000000000000000000000000000000000000000000000815250905061362c565b600082905060005b6000821461354a57808061353390614a2d565b915050600a826135439190614d1c565b9150613520565b60008167ffffffffffffffff81111561356657613565613886565b5b6040519080825280601f01601f1916602001820160405280156135985781602001600182028036833780820191505090505b5090505b60008514613625576001826135b19190614c0e565b9150600a856135c09190614d4d565b60306135cc9190614b06565b60f81b8183815181106135e2576135e1614ad7565b5b60200101907effffffffffffffffffffffffffffffffffffffffffffffffffffffffffffff1916908160001a905350600a8561361e9190614d1c565b945061359c565b8093505050505b919050565b82805461363d90614aa5565b90600052602060002090601f01602090048101928261365f57600085556136a6565b82601f1061367857805160ff19168380011785556136a6565b828001600101855582156136a6579182015b828111156136a557825182559160200191906001019061368a565b5b5090506136b391906136b7565b5090565b5b808211156136d05760008160009055506001016136b8565b5090565b6000819050919050565b6136e7816136d4565b82525050565b600060208201905061370260008301846136de565b92915050565b6000604051905090565b600080fd5b600080fd5b613725816136d4565b811461373057600080fd5b50565b6000813590506137428161371c565b92915050565b60006020828403121561375e5761375d613712565b5b600061376c84828501613733565b91505092915050565b600081519050919050565b600082825260208201905092915050565b60005b838110156137af578082015181840152602081019050613794565b838111156137be576000848401525b50505050565b6000601f19601f8301169050919050565b60006137e082613775565b6137ea8185613780565b93506137fa818560208601613791565b613803816137c4565b840191505092915050565b6000602082019050818103600083015261382881846137d5565b905092915050565b600060808201905061384560008301876136de565b61385260208301866136de565b61385f60408301856136de565b818103606083015261387181846137d5565b905095945050505050565b600080fd5b600080fd5b7f4e487b7100000000000000000000000000000000000000000000000000000000600052604160045260246000fd5b6138be826137c4565b810181811067ffffffffffffffff821117156138dd576138dc613886565b5b80604052505050565b60006138f0613708565b90506138fc82826138b5565b919050565b600067ffffffffffffffff82111561391c5761391b613886565b5b613925826137c4565b9050602081019050919050565b82818337600083830152505050565b600061395461394f84613901565b6138e6565b9050828152602081018484840111156139705761396f613881565b5b61397b848285613932565b509392505050565b600082601f8301126139985761399761387c565b5b81356139a8848260208601613941565b91505092915050565b6000806000606084860312156139ca576139c9613712565b5b60006139d886828701613733565b935050602084013567ffffffffffffffff8111156139f9576139f8613717565b5b613a0586828701613983565b9250506040613a1686828701613733565b9150509250925092565b600060e0820190508181036000830152613a3a818a6137d5565b9050613a4960208301896136de565b8181036040830152613a5b81886137d5565b90508181036060830152613a6f81876137d5565b90508181036080830152613a8381866137d5565b905081810360a0830152613a9781856137d5565b9050613aa660c08301846136de565b98975050505050505050565b600080600080600060a08688031215613ace57613acd613712565b5b6000613adc88828901613733565b955050602086013567ffffffffffffffff811115613afd57613afc613717565b5b613b0988828901613983565b945050604086013567ffffffffffffffff811115613b2a57613b29613717565b5b613b3688828901613983565b935050606086013567ffffffffffffffff811115613b5757613b56613717565b5b613b6388828901613983565b9250506080613b7488828901613733565b9150509295509295909350565b600080600080600080600060e0888a031215613ba057613b9f613712565b5b6000613bae8a828b01613733565b9750506020613bbf8a828b01613733565b965050604088013567ffffffffffffffff811115613be057613bdf613717565b5b613bec8a828b01613983565b955050606088013567ffffffffffffffff811115613c0d57613c0c613717565b5b613c198a828b01613983565b945050608088013567ffffffffffffffff811115613c3a57613c39613717565b5b613c468a828b01613983565b93505060a088013567ffffffffffffffff811115613c6757613c66613717565b5b613c738a828b01613983565b92505060c0613c848a828b01613733565b91505092959891949750929550565b60008060408385031215613caa57613ca9613712565b5b6000613cb885828601613733565b9250506020613cc985828601613733565b9150509250929050565b60008060008060808587031215613ced57613cec613712565b5b6000613cfb87828801613733565b945050602085013567ffffffffffffffff811115613d1c57613d1b613717565b5b613d2887828801613983565b9350506040613d3987828801613733565b9250506060613d4a87828801613733565b91505092959194509250565b600081519050919050565b600082825260208201905092915050565b6000819050602082019050919050565b613d8b816136d4565b82525050565b6000613d9d8383613d82565b60208301905092915050565b6000602082019050919050565b6000613dc182613d56565b613dcb8185613d61565b9350613dd683613d72565b8060005b83811015613e07578151613dee8882613d91565b9750613df983613da9565b925050600181019050613dda565b5085935050505092915050565b60006020820190508181036000830152613e2e8184613db6565b905092915050565b60008060408385031215613e4d57613e4c613712565b5b600083013567ffffffffffffffff811115613e6b57613e6a613717565b5b613e7785828601613983565b925050602083013567ffffffffffffffff811115613e9857613e97613717565b5b613ea485828601613983565b9150509250929050565b60008060408385031215613ec557613ec4613712565b5b6000613ed385828601613733565b925050602083013567ffffffffffffffff811115613ef457613ef3613717565b5b613f0085828601613983565b9150509250929050565b60008060008060008060c08789031215613f2757613f26613712565b5b6000613f3589828a01613733565b9650506020613f4689828a01613733565b9550506040613f5789828a01613733565b945050606087013567ffffffffffffffff811115613f7857613f77613717565b5b613f8489828a01613983565b935050608087013567ffffffffffffffff811115613fa557613fa4613717565b5b613fb189828a01613983565b92505060a087013567ffffffffffffffff811115613fd257613fd1613717565b5b613fde89828a01613983565b9150509295509295509295565b6000806000806080858703121561400557614004613712565b5b600061401387828801613733565b945050602061402487828801613733565b935050604085013567ffffffffffffffff81111561404557614044613717565b5b61405187828801613983565b925050606061406287828801613733565b91505092959194509250565b600060a08201905061408360008301886136de565b61409060208301876136de565b61409d60408301866136de565b6140aa60608301856136de565b81810360808301526140bc81846137d5565b90509695505050505050565b600080600080608085870312156140e2576140e1613712565b5b60006140f087828801613733565b945050602061410187828801613733565b935050604085013567ffffffffffffffff81111561412257614121613717565b5b61412e87828801613983565b925050606085013567ffffffffffffffff81111561414f5761414e613717565b5b61415b87828801613983565b91505092959194509250565b600080600080600080600080610100898b03121561418857614187613712565b5b60006141968b828c01613733565b985050602089013567ffffffffffffffff8111156141b7576141b6613717565b5b6141c38b828c01613983565b975050604089013567ffffffffffffffff8111156141e4576141e3613717565b5b6141f08b828c01613983565b965050606089013567ffffffffffffffff81111561421157614210613717565b5b61421d8b828c01613983565b955050608089013567ffffffffffffffff81111561423e5761423d613717565b5b61424a8b828c01613983565b94505060a061425b8b828c01613733565b93505060c061426c8b828c01613733565b92505060e061427d8b828c01613733565b9150509295985092959890939650565b6000806000806000806000806000806101408b8d0312156142b1576142b0613712565b5b60006142bf8d828e01613733565b9a505060208b013567ffffffffffffffff8111156142e0576142df613717565b5b6142ec8d828e01613983565b99505060408b013567ffffffffffffffff81111561430d5761430c613717565b5b6143198d828e01613983565b98505060608b013567ffffffffffffffff81111561433a57614339613717565b5b6143468d828e01613983565b97505060808b013567ffffffffffffffff81111561436757614366613717565b5b6143738d828e01613983565b96505060a08b013567ffffffffffffffff81111561439457614393613717565b5b6143a08d828e01613983565b95505060c08b013567ffffffffffffffff8111156143c1576143c0613717565b5b6143cd8d828e01613983565b94505060e08b013567ffffffffffffffff8111156143ee576143ed613717565b5b6143fa8d828e01613983565b9350506101008b013567ffffffffffffffff81111561441c5761441b613717565b5b6144288d828e01613983565b9250506101208b013567ffffffffffffffff81111561444a57614449613717565b5b6144568d828e01613983565b9150509295989b9194979a5092959850565b60006101808201905061447e600083018f6136de565b61448b602083018e6136de565b818103604083015261449d818d6137d5565b905081810360608301526144b1818c6137d5565b905081810360808301526144c5818b6137d5565b905081810360a08301526144d9818a6137d5565b90506144e860c08301896136de565b6144f560e08301886136de565b6145036101008301876136de565b81810361012083015261451681866137d5565b90506145266101408301856136de565b6145346101608301846136de565b9d9c50505050505050505050505050565b600073ffffffffffffffffffffffffffffffffffffffff82169050919050565b600061457082614545565b9050919050565b61458081614565565b811461458b57600080fd5b50565b60008135905061459d81614577565b92915050565b6000806000606084860312156145bc576145bb613712565b5b60006145ca86828701613733565b93505060206145db86828701613733565b92505060406145ec8682870161458e565b9150509250925092565b600060e08201905061460b600083018a6136de565b61461860208301896136de565b61462560408301886136de565b61463260608301876136de565b818103608083015261464481866137d5565b905081810360a083015261465881856137d5565b905081810360c083015261466c81846137d5565b905098975050505050505050565b60008060008060008060c0878903121561469757614696613712565b5b600087013567ffffffffffffffff8111156146b5576146b4613717565b5b6146c189828a01613983565b965050602087013567ffffffffffffffff8111156146e2576146e1613717565b5b6146ee89828a01613983565b955050604087013567ffffffffffffffff81111561470f5761470e613717565b5b61471b89828a01613983565b945050606087013567ffffffffffffffff81111561473c5761473b613717565b5b61474889828a01613983565b935050608087013567ffffffffffffffff81111561476957614768613717565b5b61477589828a01613983565b92505060a087013567ffffffffffffffff81111561479657614795613717565b5b6147a289828a01613983565b9150509295509295509295565b6000610120820190506147c5600083018c6136de565b6147d2602083018b6136de565b6147df604083018a6136de565b81810360608301526147f181896137d5565b9050818103608083015261480581886137d5565b905081810360a083015261481981876137d5565b905081810360c083015261482d81866137d5565b905061483c60e08301856136de565b61484a6101008301846136de565b9a9950505050505050505050565b60006101208201905061486e600083018c6136de565b8181036020830152614880818b6137d5565b90508181036040830152614894818a6137d5565b905081810360608301526148a881896137d5565b905081810360808301526148bc81886137d5565b905081810360a08301526148d081876137d5565b905081810360c08301526148e481866137d5565b905081810360e08301526148f881856137d5565b905081810361010083015261490d81846137d5565b90509a9950505050505050505050565b6000604082019050818103600083015261493781856137d5565b9050818103602083015261494b81846137d5565b90509392505050565b600060a08201905061496960008301886136de565b61497660208301876136de565b61498360408301866136de565b818103606083015261499581856137d5565b905081810360808301526149a981846137d5565b90509695505050505050565b6000602082840312156149cb576149ca613712565b5b600082013567ffffffffffffffff8111156149e9576149e8613717565b5b6149f584828501613983565b91505092915050565b7f4e487b7100000000000000000000000000000000000000000000000000000000600052601160045260246000fd5b6000614a38826136d4565b91507fffffffffffffffffffffffffffffffffffffffffffffffffffffffffffffffff821415614a6b57614a6a6149fe565b5b600182019050919050565b7f4e487b7100000000000000000000000000000000000000000000000000000000600052602260045260246000fd5b60006002820490506001821680614abd57607f821691505b60208210811415614ad157614ad0614a76565b5b50919050565b7f4e487b7100000000000000000000000000000000000000000000000000000000600052603260045260246000fd5b6000614b11826136d4565b9150614b1c836136d4565b9250827fffffffffffffffffffffffffffffffffffffffffffffffffffffffffffffffff03821115614b5157614b506149fe565b5b828201905092915050565b600081905092915050565b50565b6000614b77600083614b5c565b9150614b8282614b67565b600082019050919050565b6000614b9882614b6a565b9150819050919050565b7f53656e64206661696c6564000000000000000000000000000000000000000000600082015250565b6000614bd8600b83613780565b9150614be382614ba2565b602082019050919050565b60006020820190508181036000830152614c0781614bcb565b9050919050565b6000614c19826136d4565b9150614c24836136d4565b925082821015614c3757614c366149fe565b5b828203905092915050565b60008190508160005260206000209050919050565b60008154614c6481614aa5565b614c6e8186614b5c565b94506001821660008114614c895760018114614c9a57614ccd565b60ff19831686528186019350614ccd565b614ca385614c42565b60005b83811015614cc557815481890152600182019150602081019050614ca6565b838801955050505b50505092915050565b6000614ce28284614c57565b915081905092915050565b7f4e487b7100000000000000000000000000000000000000000000000000000000600052601260045260246000fd5b6000614d27826136d4565b9150614d32836136d4565b925082614d4257614d41614ced565b5b828204905092915050565b6000614d58826136d4565b9150614d63836136d4565b925082614d7357614d72614ced565b5b82820690509291505056fe68747470733a2f2f692e706f7374696d672e63632f537378477735635a2f706572736f6e2e6a7067a26469706673582212205e28bd4ff711ea652e284c72485eb3464cbafc672dff4b2c9663997747597dd564736f6c63430008090033","opcodes":"PUSH1 0x80 PUSH1 0x40 MSTORE CALLVALUE DUP1 ISZERO PUSH2 0x10 JUMPI PUSH1 0x0 DUP1 REVERT JUMPDEST POP PUSH2 0x4DDC DUP1 PUSH2 0x20 PUSH1 0x0 CODECOPY PUSH1 0x0 RETURN INVALID PUSH1 0x80 PUSH1 0x40 MSTORE PUSH1 0x4 CALLDATASIZE LT PUSH2 0x293 JUMPI PUSH1 0x0 CALLDATALOAD PUSH1 0xE0 SHR DUP1 PUSH4 0x9E20C627 GT PUSH2 0x15A JUMPI DUP1 PUSH4 0xCE08988C GT PUSH2 0xC1 JUMPI DUP1 PUSH4 0xEBE197CA GT PUSH2 0x7A JUMPI DUP1 PUSH4 0xEBE197CA EQ PUSH2 0xA97 JUMPI DUP1 PUSH4 0xED657594 EQ PUSH2 0xADC JUMPI DUP1 PUSH4 0xF0D8E873 EQ PUSH2 0xB05 JUMPI DUP1 PUSH4 0xF6AAA804 EQ PUSH2 0xB43 JUMPI DUP1 PUSH4 0xF8B7800F EQ PUSH2 0xB84 JUMPI DUP1 PUSH4 0xFC20A886 EQ PUSH2 0xBC1 JUMPI PUSH2 0x293 JUMP JUMPDEST DUP1 PUSH4 0xCE08988C EQ PUSH2 0x959 JUMPI DUP1 PUSH4 0xDE7ACFD7 EQ PUSH2 0x984 JUMPI DUP1 PUSH4 0xE57F973F EQ PUSH2 0x9C9 JUMPI DUP1 PUSH4 0xE6576B03 EQ PUSH2 0x9F2 JUMPI DUP1 PUSH4 0xEA7EFAA6 EQ PUSH2 0xA2F JUMPI DUP1 PUSH4 0xEB6B2870 EQ PUSH2 0xA6C JUMPI PUSH2 0x293 JUMP JUMPDEST DUP1 PUSH4 0xB356E1B3 GT PUSH2 0x113 JUMPI DUP1 PUSH4 0xB356E1B3 EQ PUSH2 0x831 JUMPI DUP1 PUSH4 0xB6E604BD EQ PUSH2 0x85A JUMPI DUP1 PUSH4 0xC13B2836 EQ PUSH2 0x885 JUMPI DUP1 PUSH4 0xC482E92E EQ PUSH2 0x8C8 JUMPI DUP1 PUSH4 0xCCEF4218 EQ PUSH2 0x8F3 JUMPI DUP1 PUSH4 0xCDA495C6 EQ PUSH2 0x930 JUMPI PUSH2 0x293 JUMP JUMPDEST DUP1 PUSH4 0x9E20C627 EQ PUSH2 0x71C JUMPI DUP1 PUSH4 0xA899EF42 EQ PUSH2 0x745 JUMPI DUP1 PUSH4 0xAD23F8F9 EQ PUSH2 0x76E JUMPI DUP1 PUSH4 0xAE7DE73F EQ PUSH2 0x797 JUMPI DUP1 PUSH4 0xAECE8C39 EQ PUSH2 0x7C0 JUMPI DUP1 PUSH4 0xB105AA43 EQ PUSH2 0x808 JUMPI PUSH2 0x293 JUMP JUMPDEST DUP1 PUSH4 0x4F699A13 GT PUSH2 0x1FE JUMPI DUP1 PUSH4 0x78119530 GT PUSH2 0x1B7 JUMPI DUP1 PUSH4 0x78119530 EQ PUSH2 0x5E4 JUMPI DUP1 PUSH4 0x7C15641A EQ PUSH2 0x621 JUMPI DUP1 PUSH4 0x7D423E10 EQ PUSH2 0x64C JUMPI DUP1 PUSH4 0x8B23607C EQ PUSH2 0x675 JUMPI DUP1 PUSH4 0x90B18A78 EQ PUSH2 0x6B2 JUMPI DUP1 PUSH4 0x90D6CF05 EQ PUSH2 0x6DB JUMPI PUSH2 0x293 JUMP JUMPDEST DUP1 PUSH4 0x4F699A13 EQ PUSH2 0x4EA JUMPI DUP1 PUSH4 0x4F8B36EB EQ PUSH2 0x515 JUMPI DUP1 PUSH4 0x5F27AEA1 EQ PUSH2 0x53E JUMPI DUP1 PUSH4 0x633BC2E1 EQ PUSH2 0x567 JUMPI DUP1 PUSH4 0x66CAD734 EQ PUSH2 0x592 JUMPI DUP1 PUSH4 0x6C067B48 EQ PUSH2 0x5BB JUMPI PUSH2 0x293 JUMP JUMPDEST DUP1 PUSH4 0x29B36423 GT PUSH2 0x250 JUMPI DUP1 PUSH4 0x29B36423 EQ PUSH2 0x3D7 JUMPI DUP1 PUSH4 0x2E98D8E5 EQ PUSH2 0x402 JUMPI DUP1 PUSH4 0x3896F130 EQ PUSH2 0x42B JUMPI DUP1 PUSH4 0x3B3AECFA EQ PUSH2 0x447 JUMPI DUP1 PUSH4 0x3EEBD0D0 EQ PUSH2 0x484 JUMPI DUP1 PUSH4 0x49B9B07B EQ PUSH2 0x4AD JUMPI PUSH2 0x293 JUMP JUMPDEST DUP1 PUSH4 0x1C66109 EQ PUSH2 0x298 JUMPI DUP1 PUSH4 0x7C70D9A EQ PUSH2 0x2C3 JUMPI DUP1 PUSH4 0x1429F775 EQ PUSH2 0x300 JUMPI DUP1 PUSH4 0x1873DE77 EQ PUSH2 0x32B JUMPI DUP1 PUSH4 0x190F20DF EQ PUSH2 0x36B JUMPI DUP1 PUSH4 0x1C1A9F7B EQ PUSH2 0x394 JUMPI JUMPDEST PUSH1 0x0 DUP1 REVERT JUMPDEST CALLVALUE DUP1 ISZERO PUSH2 0x2A4 JUMPI PUSH1 0x0 DUP1 REVERT JUMPDEST POP PUSH2 0x2AD PUSH2 0xBFE JUMP JUMPDEST PUSH1 0x40 MLOAD PUSH2 0x2BA SWAP2 SWAP1 PUSH2 0x36ED JUMP JUMPDEST PUSH1 0x40 MLOAD DUP1 SWAP2 SUB SWAP1 RETURN JUMPDEST CALLVALUE DUP1 ISZERO PUSH2 0x2CF JUMPI PUSH1 0x0 DUP1 REVERT JUMPDEST POP PUSH2 0x2EA PUSH1 0x4 DUP1 CALLDATASIZE SUB DUP2 ADD SWAP1 PUSH2 0x2E5 SWAP2 SWAP1 PUSH2 0x3748 JUMP JUMPDEST PUSH2 0xC04 JUMP JUMPDEST PUSH1 0x40 MLOAD PUSH2 0x2F7 SWAP2 SWAP1 PUSH2 0x380E JUMP JUMPDEST PUSH1 0x40 MLOAD DUP1 SWAP2 SUB SWAP1 RETURN JUMPDEST CALLVALUE DUP1 ISZERO PUSH2 0x30C JUMPI PUSH1 0x0 DUP1 REVERT JUMPDEST POP PUSH2 0x315 PUSH2 0xCAA JUMP JUMPDEST PUSH1 0x40 MLOAD PUSH2 0x322 SWAP2 SWAP1 PUSH2 0x36ED JUMP JUMPDEST PUSH1 0x40 MLOAD DUP1 SWAP2 SUB SWAP1 RETURN JUMPDEST CALLVALUE DUP1 ISZERO PUSH2 0x337 JUMPI PUSH1 0x0 DUP1 REVERT JUMPDEST POP PUSH2 0x352 PUSH1 0x4 DUP1 CALLDATASIZE SUB DUP2 ADD SWAP1 PUSH2 0x34D SWAP2 SWAP1 PUSH2 0x3748 JUMP JUMPDEST PUSH2 0xCB0 JUMP JUMPDEST PUSH1 0x40 MLOAD PUSH2 0x362 SWAP5 SWAP4 SWAP3 SWAP2 SWAP1 PUSH2 0x3830 JUMP JUMPDEST PUSH1 0x40 MLOAD DUP1 SWAP2 SUB SWAP1 RETURN JUMPDEST CALLVALUE DUP1 ISZERO PUSH2 0x377 JUMPI PUSH1 0x0 DUP1 REVERT JUMPDEST POP PUSH2 0x392 PUSH1 0x4 DUP1 CALLDATASIZE SUB DUP2 ADD SWAP1 PUSH2 0x38D SWAP2 SWAP1 PUSH2 0x39B1 JUMP JUMPDEST PUSH2 0xD68 JUMP JUMPDEST STOP JUMPDEST CALLVALUE DUP1 ISZERO PUSH2 0x3A0 JUMPI PUSH1 0x0 DUP1 REVERT JUMPDEST POP PUSH2 0x3BB PUSH1 0x4 DUP1 CALLDATASIZE SUB DUP2 ADD SWAP1 PUSH2 0x3B6 SWAP2 SWAP1 PUSH2 0x3748 JUMP JUMPDEST PUSH2 0xDFB JUMP JUMPDEST PUSH1 0x40 MLOAD PUSH2 0x3CE SWAP8 SWAP7 SWAP6 SWAP5 SWAP4 SWAP3 SWAP2 SWAP1 PUSH2 0x3A20 JUMP JUMPDEST PUSH1 0x40 MLOAD DUP1 SWAP2 SUB SWAP1 RETURN JUMPDEST CALLVALUE DUP1 ISZERO PUSH2 0x3E3 JUMPI PUSH1 0x0 DUP1 REVERT JUMPDEST POP PUSH2 0x3EC PUSH2 0x1178 JUMP JUMPDEST PUSH1 0x40 MLOAD PUSH2 0x3F9 SWAP2 SWAP1 PUSH2 0x36ED JUMP JUMPDEST PUSH1 0x40 MLOAD DUP1 SWAP2 SUB SWAP1 RETURN JUMPDEST CALLVALUE DUP1 ISZERO PUSH2 0x40E JUMPI PUSH1 0x0 DUP1 REVERT JUMPDEST POP PUSH2 0x429 PUSH1 0x4 DUP1 CALLDATASIZE SUB DUP2 ADD SWAP1 PUSH2 0x424 SWAP2 SWAP1 PUSH2 0x3AB2 JUMP JUMPDEST PUSH2 0x117E JUMP JUMPDEST STOP JUMPDEST PUSH2 0x445 PUSH1 0x4 DUP1 CALLDATASIZE SUB DUP2 ADD SWAP1 PUSH2 0x440 SWAP2 SWAP1 PUSH2 0x3B81 JUMP JUMPDEST PUSH2 0x1221 JUMP JUMPDEST STOP JUMPDEST CALLVALUE DUP1 ISZERO PUSH2 0x453 JUMPI PUSH1 0x0 DUP1 REVERT JUMPDEST POP PUSH2 0x46E PUSH1 0x4 DUP1 CALLDATASIZE SUB DUP2 ADD SWAP1 PUSH2 0x469 SWAP2 SWAP1 PUSH2 0x3C93 JUMP JUMPDEST PUSH2 0x1344 JUMP JUMPDEST PUSH1 0x40 MLOAD PUSH2 0x47B SWAP2 SWAP1 PUSH2 0x380E JUMP JUMPDEST PUSH1 0x40 MLOAD DUP1 SWAP2 SUB SWAP1 RETURN JUMPDEST CALLVALUE DUP1 ISZERO PUSH2 0x490 JUMPI PUSH1 0x0 DUP1 REVERT JUMPDEST POP PUSH2 0x4AB PUSH1 0x4 DUP1 CALLDATASIZE SUB DUP2 ADD SWAP1 PUSH2 0x4A6 SWAP2 SWAP1 PUSH2 0x3CD3 JUMP JUMPDEST PUSH2 0x13F6 JUMP JUMPDEST STOP JUMPDEST CALLVALUE DUP1 ISZERO PUSH2 0x4B9 JUMPI PUSH1 0x0 DUP1 REVERT JUMPDEST POP PUSH2 0x4D4 PUSH1 0x4 DUP1 CALLDATASIZE SUB DUP2 ADD SWAP1 PUSH2 0x4CF SWAP2 SWAP1 PUSH2 0x3748 JUMP JUMPDEST PUSH2 0x145D JUMP JUMPDEST PUSH1 0x40 MLOAD PUSH2 0x4E1 SWAP2 SWAP1 PUSH2 0x3E14 JUMP JUMPDEST PUSH1 0x40 MLOAD DUP1 SWAP2 SUB SWAP1 RETURN JUMPDEST CALLVALUE DUP1 ISZERO PUSH2 0x4F6 JUMPI PUSH1 0x0 DUP1 REVERT JUMPDEST POP PUSH2 0x4FF PUSH2 0x1575 JUMP JUMPDEST PUSH1 0x40 MLOAD PUSH2 0x50C SWAP2 SWAP1 PUSH2 0x36ED JUMP JUMPDEST PUSH1 0x40 MLOAD DUP1 SWAP2 SUB SWAP1 RETURN JUMPDEST CALLVALUE DUP1 ISZERO PUSH2 0x521 JUMPI PUSH1 0x0 DUP1 REVERT JUMPDEST POP PUSH2 0x53C PUSH1 0x4 DUP1 CALLDATASIZE SUB DUP2 ADD SWAP1 PUSH2 0x537 SWAP2 SWAP1 PUSH2 0x3E36 JUMP JUMPDEST PUSH2 0x157B JUMP JUMPDEST STOP JUMPDEST CALLVALUE DUP1 ISZERO PUSH2 0x54A JUMPI PUSH1 0x0 DUP1 REVERT JUMPDEST POP PUSH2 0x565 PUSH1 0x4 DUP1 CALLDATASIZE SUB DUP2 ADD SWAP1 PUSH2 0x560 SWAP2 SWAP1 PUSH2 0x3AB2 JUMP JUMPDEST PUSH2 0x15FE JUMP JUMPDEST STOP JUMPDEST CALLVALUE DUP1 ISZERO PUSH2 0x573 JUMPI PUSH1 0x0 DUP1 REVERT JUMPDEST POP PUSH2 0x57C PUSH2 0x16A1 JUMP JUMPDEST PUSH1 0x40 MLOAD PUSH2 0x589 SWAP2 SWAP1 PUSH2 0x36ED JUMP JUMPDEST PUSH1 0x40 MLOAD DUP1 SWAP2 SUB SWAP1 RETURN JUMPDEST CALLVALUE DUP1 ISZERO PUSH2 0x59E JUMPI PUSH1 0x0 DUP1 REVERT JUMPDEST POP PUSH2 0x5B9 PUSH1 0x4 DUP1 CALLDATASIZE SUB DUP2 ADD SWAP1 PUSH2 0x5B4 SWAP2 SWAP1 PUSH2 0x3EAE JUMP JUMPDEST PUSH2 0x16A7 JUMP JUMPDEST STOP JUMPDEST CALLVALUE DUP1 ISZERO PUSH2 0x5C7 JUMPI PUSH1 0x0 DUP1 REVERT JUMPDEST POP PUSH2 0x5E2 PUSH1 0x4 DUP1 CALLDATASIZE SUB DUP2 ADD SWAP1 PUSH2 0x5DD SWAP2 SWAP1 PUSH2 0x3F0A JUMP JUMPDEST PUSH2 0x16D3 JUMP JUMPDEST STOP JUMPDEST CALLVALUE DUP1 ISZERO PUSH2 0x5F0 JUMPI PUSH1 0x0 DUP1 REVERT JUMPDEST POP PUSH2 0x60B PUSH1 0x4 DUP1 CALLDATASIZE SUB DUP2 ADD SWAP1 PUSH2 0x606 SWAP2 SWAP1 PUSH2 0x3748 JUMP JUMPDEST PUSH2 0x17BF JUMP JUMPDEST PUSH1 0x40 MLOAD PUSH2 0x618 SWAP2 SWAP1 PUSH2 0x380E JUMP JUMPDEST PUSH1 0x40 MLOAD DUP1 SWAP2 SUB SWAP1 RETURN JUMPDEST CALLVALUE DUP1 ISZERO PUSH2 0x62D JUMPI PUSH1 0x0 DUP1 REVERT JUMPDEST POP PUSH2 0x636 PUSH2 0x185F JUMP JUMPDEST PUSH1 0x40 MLOAD PUSH2 0x643 SWAP2 SWAP1 PUSH2 0x36ED JUMP JUMPDEST PUSH1 0x40 MLOAD DUP1 SWAP2 SUB SWAP1 RETURN JUMPDEST CALLVALUE DUP1 ISZERO PUSH2 0x658 JUMPI PUSH1 0x0 DUP1 REVERT JUMPDEST POP PUSH2 0x673 PUSH1 0x4 DUP1 CALLDATASIZE SUB DUP2 ADD SWAP1 PUSH2 0x66E SWAP2 SWAP1 PUSH2 0x3FEB JUMP JUMPDEST PUSH2 0x1865 JUMP JUMPDEST STOP JUMPDEST CALLVALUE DUP1 ISZERO PUSH2 0x681 JUMPI PUSH1 0x0 DUP1 REVERT JUMPDEST POP PUSH2 0x69C PUSH1 0x4 DUP1 CALLDATASIZE SUB DUP2 ADD SWAP1 PUSH2 0x697 SWAP2 SWAP1 PUSH2 0x3748 JUMP JUMPDEST PUSH2 0x1962 JUMP JUMPDEST PUSH1 0x40 MLOAD PUSH2 0x6A9 SWAP2 SWAP1 PUSH2 0x3E14 JUMP JUMPDEST PUSH1 0x40 MLOAD DUP1 SWAP2 SUB SWAP1 RETURN JUMPDEST CALLVALUE DUP1 ISZERO PUSH2 0x6BE JUMPI PUSH1 0x0 DUP1 REVERT JUMPDEST POP PUSH2 0x6D9 PUSH1 0x4 DUP1 CALLDATASIZE SUB DUP2 ADD SWAP1 PUSH2 0x6D4 SWAP2 SWAP1 PUSH2 0x3EAE JUMP JUMPDEST PUSH2 0x1A7A JUMP JUMPDEST STOP JUMPDEST CALLVALUE DUP1 ISZERO PUSH2 0x6E7 JUMPI PUSH1 0x0 DUP1 REVERT JUMPDEST POP PUSH2 0x702 PUSH1 0x4 DUP1 CALLDATASIZE SUB DUP2 ADD SWAP1 PUSH2 0x6FD SWAP2 SWAP1 PUSH2 0x3748 JUMP JUMPDEST PUSH2 0x1AA9 JUMP JUMPDEST PUSH1 0x40 MLOAD PUSH2 0x713 SWAP6 SWAP5 SWAP4 SWAP3 SWAP2 SWAP1 PUSH2 0x406E JUMP JUMPDEST PUSH1 0x40 MLOAD DUP1 SWAP2 SUB SWAP1 RETURN JUMPDEST CALLVALUE DUP1 ISZERO PUSH2 0x728 JUMPI PUSH1 0x0 DUP1 REVERT JUMPDEST POP PUSH2 0x743 PUSH1 0x4 DUP1 CALLDATASIZE SUB DUP2 ADD SWAP1 PUSH2 0x73E SWAP2 SWAP1 PUSH2 0x40C8 JUMP JUMPDEST PUSH2 0x1B67 JUMP JUMPDEST STOP JUMPDEST CALLVALUE DUP1 ISZERO PUSH2 0x751 JUMPI PUSH1 0x0 DUP1 REVERT JUMPDEST POP PUSH2 0x76C PUSH1 0x4 DUP1 CALLDATASIZE SUB DUP2 ADD SWAP1 PUSH2 0x767 SWAP2 SWAP1 PUSH2 0x4167 JUMP JUMPDEST PUSH2 0x1C4C JUMP JUMPDEST STOP JUMPDEST CALLVALUE DUP1 ISZERO PUSH2 0x77A JUMPI PUSH1 0x0 DUP1 REVERT JUMPDEST POP PUSH2 0x795 PUSH1 0x4 DUP1 CALLDATASIZE SUB DUP2 ADD SWAP1 PUSH2 0x790 SWAP2 SWAP1 PUSH2 0x3EAE JUMP JUMPDEST PUSH2 0x1DEB JUMP JUMPDEST STOP JUMPDEST CALLVALUE DUP1 ISZERO PUSH2 0x7A3 JUMPI PUSH1 0x0 DUP1 REVERT JUMPDEST POP PUSH2 0x7BE PUSH1 0x4 DUP1 CALLDATASIZE SUB DUP2 ADD SWAP1 PUSH2 0x7B9 SWAP2 SWAP1 PUSH2 0x428D JUMP JUMPDEST PUSH2 0x1E17 JUMP JUMPDEST STOP JUMPDEST CALLVALUE DUP1 ISZERO PUSH2 0x7CC JUMPI PUSH1 0x0 DUP1 REVERT JUMPDEST POP PUSH2 0x7E7 PUSH1 0x4 DUP1 CALLDATASIZE SUB DUP2 ADD SWAP1 PUSH2 0x7E2 SWAP2 SWAP1 PUSH2 0x3748 JUMP JUMPDEST PUSH2 0x1FC1 JUMP JUMPDEST PUSH1 0x40 MLOAD PUSH2 0x7FF SWAP13 SWAP12 SWAP11 SWAP10 SWAP9 SWAP8 SWAP7 SWAP6 SWAP5 SWAP4 SWAP3 SWAP2 SWAP1 PUSH2 0x4468 JUMP JUMPDEST PUSH1 0x40 MLOAD DUP1 SWAP2 SUB SWAP1 RETURN JUMPDEST CALLVALUE DUP1 ISZERO PUSH2 0x814 JUMPI PUSH1 0x0 DUP1 REVERT JUMPDEST POP PUSH2 0x82F PUSH1 0x4 DUP1 CALLDATASIZE SUB DUP2 ADD SWAP1 PUSH2 0x82A SWAP2 SWAP1 PUSH2 0x3EAE JUMP JUMPDEST PUSH2 0x22C9 JUMP JUMPDEST STOP JUMPDEST CALLVALUE DUP1 ISZERO PUSH2 0x83D JUMPI PUSH1 0x0 DUP1 REVERT JUMPDEST POP PUSH2 0x858 PUSH1 0x4 DUP1 CALLDATASIZE SUB DUP2 ADD SWAP1 PUSH2 0x853 SWAP2 SWAP1 PUSH2 0x45A3 JUMP JUMPDEST PUSH2 0x22F5 JUMP JUMPDEST STOP JUMPDEST CALLVALUE DUP1 ISZERO PUSH2 0x866 JUMPI PUSH1 0x0 DUP1 REVERT JUMPDEST POP PUSH2 0x86F PUSH2 0x23D4 JUMP JUMPDEST PUSH1 0x40 MLOAD PUSH2 0x87C SWAP2 SWAP1 PUSH2 0x36ED JUMP JUMPDEST PUSH1 0x40 MLOAD DUP1 SWAP2 SUB SWAP1 RETURN JUMPDEST CALLVALUE DUP1 ISZERO PUSH2 0x891 JUMPI PUSH1 0x0 DUP1 REVERT JUMPDEST POP PUSH2 0x8AC PUSH1 0x4 DUP1 CALLDATASIZE SUB DUP2 ADD SWAP1 PUSH2 0x8A7 SWAP2 SWAP1 PUSH2 0x3748 JUMP JUMPDEST PUSH2 0x23DA JUMP JUMPDEST PUSH1 0x40 MLOAD PUSH2 0x8BF SWAP8 SWAP7 SWAP6 SWAP5 SWAP4 SWAP3 SWAP2 SWAP1 PUSH2 0x45F6 JUMP JUMPDEST PUSH1 0x40 MLOAD DUP1 SWAP2 SUB SWAP1 RETURN JUMPDEST CALLVALUE DUP1 ISZERO PUSH2 0x8D4 JUMPI PUSH1 0x0 DUP1 REVERT JUMPDEST POP PUSH2 0x8DD PUSH2 0x25B4 JUMP JUMPDEST PUSH1 0x40 MLOAD PUSH2 0x8EA SWAP2 SWAP1 PUSH2 0x36ED JUMP JUMPDEST PUSH1 0x40 MLOAD DUP1 SWAP2 SUB SWAP1 RETURN JUMPDEST CALLVALUE DUP1 ISZERO PUSH2 0x8FF JUMPI PUSH1 0x0 DUP1 REVERT JUMPDEST POP PUSH2 0x91A PUSH1 0x4 DUP1 CALLDATASIZE SUB DUP2 ADD SWAP1 PUSH2 0x915 SWAP2 SWAP1 PUSH2 0x3E36 JUMP JUMPDEST PUSH2 0x25BA JUMP JUMPDEST PUSH1 0x40 MLOAD PUSH2 0x927 SWAP2 SWAP1 PUSH2 0x380E JUMP JUMPDEST PUSH1 0x40 MLOAD DUP1 SWAP2 SUB SWAP1 RETURN JUMPDEST CALLVALUE DUP1 ISZERO PUSH2 0x93C JUMPI PUSH1 0x0 DUP1 REVERT JUMPDEST POP PUSH2 0x957 PUSH1 0x4 DUP1 CALLDATASIZE SUB DUP2 ADD SWAP1 PUSH2 0x952 SWAP2 SWAP1 PUSH2 0x467A JUMP JUMPDEST PUSH2 0x26A2 JUMP JUMPDEST STOP JUMPDEST CALLVALUE DUP1 ISZERO PUSH2 0x965 JUMPI PUSH1 0x0 DUP1 REVERT JUMPDEST POP PUSH2 0x96E PUSH2 0x284C JUMP JUMPDEST PUSH1 0x40 MLOAD PUSH2 0x97B SWAP2 SWAP1 PUSH2 0x36ED JUMP JUMPDEST PUSH1 0x40 MLOAD DUP1 SWAP2 SUB SWAP1 RETURN JUMPDEST CALLVALUE DUP1 ISZERO PUSH2 0x990 JUMPI PUSH1 0x0 DUP1 REVERT JUMPDEST POP PUSH2 0x9AB PUSH1 0x4 DUP1 CALLDATASIZE SUB DUP2 ADD SWAP1 PUSH2 0x9A6 SWAP2 SWAP1 PUSH2 0x3748 JUMP JUMPDEST PUSH2 0x2852 JUMP JUMPDEST PUSH1 0x40 MLOAD PUSH2 0x9C0 SWAP10 SWAP9 SWAP8 SWAP7 SWAP6 SWAP5 SWAP4 SWAP3 SWAP2 SWAP1 PUSH2 0x47AF JUMP JUMPDEST PUSH1 0x40 MLOAD DUP1 SWAP2 SUB SWAP1 RETURN JUMPDEST CALLVALUE DUP1 ISZERO PUSH2 0x9D5 JUMPI PUSH1 0x0 DUP1 REVERT JUMPDEST POP PUSH2 0x9F0 PUSH1 0x4 DUP1 CALLDATASIZE SUB DUP2 ADD SWAP1 PUSH2 0x9EB SWAP2 SWAP1 PUSH2 0x39B1 JUMP JUMPDEST PUSH2 0x2AC0 JUMP JUMPDEST STOP JUMPDEST CALLVALUE DUP1 ISZERO PUSH2 0x9FE JUMPI PUSH1 0x0 DUP1 REVERT JUMPDEST POP PUSH2 0xA19 PUSH1 0x4 DUP1 CALLDATASIZE SUB DUP2 ADD SWAP1 PUSH2 0xA14 SWAP2 SWAP1 PUSH2 0x3748 JUMP JUMPDEST PUSH2 0x2B0B JUMP JUMPDEST PUSH1 0x40 MLOAD PUSH2 0xA26 SWAP2 SWAP1 PUSH2 0x380E JUMP JUMPDEST PUSH1 0x40 MLOAD DUP1 SWAP2 SUB SWAP1 RETURN JUMPDEST CALLVALUE DUP1 ISZERO PUSH2 0xA3B JUMPI PUSH1 0x0 DUP1 REVERT JUMPDEST POP PUSH2 0xA56 PUSH1 0x4 DUP1 CALLDATASIZE SUB DUP2 ADD SWAP1 PUSH2 0xA51 SWAP2 SWAP1 PUSH2 0x3748 JUMP JUMPDEST PUSH2 0x2BAB JUMP JUMPDEST PUSH1 0x40 MLOAD PUSH2 0xA63 SWAP2 SWAP1 PUSH2 0x380E JUMP JUMPDEST PUSH1 0x40 MLOAD DUP1 SWAP2 SUB SWAP1 RETURN JUMPDEST CALLVALUE DUP1 ISZERO PUSH2 0xA78 JUMPI PUSH1 0x0 DUP1 REVERT JUMPDEST POP PUSH2 0xA81 PUSH2 0x2C4B JUMP JUMPDEST PUSH1 0x40 MLOAD PUSH2 0xA8E SWAP2 SWAP1 PUSH2 0x36ED JUMP JUMPDEST PUSH1 0x40 MLOAD DUP1 SWAP2 SUB SWAP1 RETURN JUMPDEST CALLVALUE DUP1 ISZERO PUSH2 0xAA3 JUMPI PUSH1 0x0 DUP1 REVERT JUMPDEST POP PUSH2 0xABE PUSH1 0x4 DUP1 CALLDATASIZE SUB DUP2 ADD SWAP1 PUSH2 0xAB9 SWAP2 SWAP1 PUSH2 0x3748 JUMP JUMPDEST PUSH2 0x2C51 JUMP JUMPDEST PUSH1 0x40 MLOAD PUSH2 0xAD3 SWAP10 SWAP9 SWAP8 SWAP7 SWAP6 SWAP5 SWAP4 SWAP3 SWAP2 SWAP1 PUSH2 0x4858 JUMP JUMPDEST PUSH1 0x40 MLOAD DUP1 SWAP2 SUB SWAP1 RETURN JUMPDEST CALLVALUE DUP1 ISZERO PUSH2 0xAE8 JUMPI PUSH1 0x0 DUP1 REVERT JUMPDEST POP PUSH2 0xB03 PUSH1 0x4 DUP1 CALLDATASIZE SUB DUP2 ADD SWAP1 PUSH2 0xAFE SWAP2 SWAP1 PUSH2 0x3EAE JUMP JUMPDEST PUSH2 0x30DF JUMP JUMPDEST STOP JUMPDEST CALLVALUE DUP1 ISZERO PUSH2 0xB11 JUMPI PUSH1 0x0 DUP1 REVERT JUMPDEST POP PUSH2 0xB2C PUSH1 0x4 DUP1 CALLDATASIZE SUB DUP2 ADD SWAP1 PUSH2 0xB27 SWAP2 SWAP1 PUSH2 0x3748 JUMP JUMPDEST PUSH2 0x310B JUMP JUMPDEST PUSH1 0x40 MLOAD PUSH2 0xB3A SWAP3 SWAP2 SWAP1 PUSH2 0x491D JUMP JUMPDEST PUSH1 0x40 MLOAD DUP1 SWAP2 SUB SWAP1 RETURN JUMPDEST CALLVALUE DUP1 ISZERO PUSH2 0xB4F JUMPI PUSH1 0x0 DUP1 REVERT JUMPDEST POP PUSH2 0xB6A PUSH1 0x4 DUP1 CALLDATASIZE SUB DUP2 ADD SWAP1 PUSH2 0xB65 SWAP2 SWAP1 PUSH2 0x3748 JUMP JUMPDEST PUSH2 0x323F JUMP JUMPDEST PUSH1 0x40 MLOAD PUSH2 0xB7B SWAP6 SWAP5 SWAP4 SWAP3 SWAP2 SWAP1 PUSH2 0x4954 JUMP JUMPDEST PUSH1 0x40 MLOAD DUP1 SWAP2 SUB SWAP1 RETURN JUMPDEST CALLVALUE DUP1 ISZERO PUSH2 0xB90 JUMPI PUSH1 0x0 DUP1 REVERT JUMPDEST POP PUSH2 0xBAB PUSH1 0x4 DUP1 CALLDATASIZE SUB DUP2 ADD SWAP1 PUSH2 0xBA6 SWAP2 SWAP1 PUSH2 0x49B5 JUMP JUMPDEST PUSH2 0x3385 JUMP JUMPDEST PUSH1 0x40 MLOAD PUSH2 0xBB8 SWAP2 SWAP1 PUSH2 0x380E JUMP JUMPDEST PUSH1 0x40 MLOAD DUP1 SWAP2 SUB SWAP1 RETURN JUMPDEST CALLVALUE DUP1 ISZERO PUSH2 0xBCD JUMPI PUSH1 0x0 DUP1 REVERT JUMPDEST POP PUSH2 0xBE8 PUSH1 0x4 DUP1 CALLDATASIZE SUB DUP2 ADD SWAP1 PUSH2 0xBE3 SWAP2 SWAP1 PUSH2 0x3748 JUMP JUMPDEST PUSH2 0x3430 JUMP JUMPDEST PUSH1 0x40 MLOAD PUSH2 0xBF5 SWAP2 SWAP1 PUSH2 0x380E JUMP JUMPDEST PUSH1 0x40 MLOAD DUP1 SWAP2 SUB SWAP1 RETURN JUMPDEST PUSH1 0x7 SLOAD DUP2 JUMP JUMPDEST PUSH1 0x60 PUSH1 0x0 JUMPDEST PUSH1 0x6 SLOAD DUP2 LT ISZERO PUSH2 0xC6B JUMPI DUP3 PUSH1 0x13 PUSH1 0x0 DUP4 DUP2 MSTORE PUSH1 0x20 ADD SWAP1 DUP2 MSTORE PUSH1 0x20 ADD PUSH1 0x0 KECCAK256 PUSH1 0x2 ADD SLOAD EQ ISZERO PUSH2 0xC58 JUMPI PUSH2 0xC50 PUSH1 0x13 PUSH1 0x0 DUP4 DUP2 MSTORE PUSH1 0x20 ADD SWAP1 DUP2 MSTORE PUSH1 0x20 ADD PUSH1 0x0 KECCAK256 PUSH1 0x1 ADD SLOAD PUSH2 0x34D0 JUMP JUMPDEST SWAP2 POP POP PUSH2 0xCA5 JUMP JUMPDEST DUP1 DUP1 PUSH2 0xC63 SWAP1 PUSH2 0x4A2D JUMP JUMPDEST SWAP2 POP POP PUSH2 0xC09 JUMP JUMPDEST POP PUSH1 0x40 MLOAD DUP1 PUSH1 0x40 ADD PUSH1 0x40 MSTORE DUP1 PUSH1 0x5 DUP2 MSTORE PUSH1 0x20 ADD PUSH32 0x46616C7365000000000000000000000000000000000000000000000000000000 DUP2 MSTORE POP SWAP1 POP JUMPDEST SWAP2 SWAP1 POP JUMP JUMPDEST PUSH1 0x4 SLOAD DUP2 JUMP JUMPDEST PUSH1 0x16 PUSH1 0x20 MSTORE DUP1 PUSH1 0x0 MSTORE PUSH1 0x40 PUSH1 0x0 KECCAK256 PUSH1 0x0 SWAP2 POP SWAP1 POP DUP1 PUSH1 0x0 ADD SLOAD SWAP1 DUP1 PUSH1 0x1 ADD SLOAD SWAP1 DUP1 PUSH1 0x2 ADD SLOAD SWAP1 DUP1 PUSH1 0x3 ADD DUP1 SLOAD PUSH2 0xCE5 SWAP1 PUSH2 0x4AA5 JUMP JUMPDEST DUP1 PUSH1 0x1F ADD PUSH1 0x20 DUP1 SWAP2 DIV MUL PUSH1 0x20 ADD PUSH1 0x40 MLOAD SWAP1 DUP2 ADD PUSH1 0x40 MSTORE DUP1 SWAP3 SWAP2 SWAP1 DUP2 DUP2 MSTORE PUSH1 0x20 ADD DUP3 DUP1 SLOAD PUSH2 0xD11 SWAP1 PUSH2 0x4AA5 JUMP JUMPDEST DUP1 ISZERO PUSH2 0xD5E JUMPI DUP1 PUSH1 0x1F LT PUSH2 0xD33 JUMPI PUSH2 0x100 DUP1 DUP4 SLOAD DIV MUL DUP4 MSTORE SWAP2 PUSH1 0x20 ADD SWAP2 PUSH2 0xD5E JUMP JUMPDEST DUP3 ADD SWAP2 SWAP1 PUSH1 0x0 MSTORE PUSH1 0x20 PUSH1 0x0 KECCAK256 SWAP1 JUMPDEST DUP2 SLOAD DUP2 MSTORE SWAP1 PUSH1 0x1 ADD SWAP1 PUSH1 0x20 ADD DUP1 DUP4 GT PUSH2 0xD41 JUMPI DUP3 SWAP1 SUB PUSH1 0x1F AND DUP3 ADD SWAP2 JUMPDEST POP POP POP POP POP SWAP1 POP DUP5 JUMP JUMPDEST PUSH1 0x40 MLOAD DUP1 PUSH1 0x80 ADD PUSH1 0x40 MSTORE DUP1 PUSH1 0x9 SLOAD DUP2 MSTORE PUSH1 0x20 ADD DUP3 DUP2 MSTORE PUSH1 0x20 ADD DUP5 DUP2 MSTORE PUSH1 0x20 ADD DUP4 DUP2 MSTORE POP PUSH1 0x16 PUSH1 0x0 PUSH1 0x9 SLOAD DUP2 MSTORE PUSH1 0x20 ADD SWAP1 DUP2 MSTORE PUSH1 0x20 ADD PUSH1 0x0 KECCAK256 PUSH1 0x0 DUP3 ADD MLOAD DUP2 PUSH1 0x0 ADD SSTORE PUSH1 0x20 DUP3 ADD MLOAD DUP2 PUSH1 0x1 ADD SSTORE PUSH1 0x40 DUP3 ADD MLOAD DUP2 PUSH1 0x2 ADD SSTORE PUSH1 0x60 DUP3 ADD MLOAD DUP2 PUSH1 0x3 ADD SWAP1 DUP1 MLOAD SWAP1 PUSH1 0x20 ADD SWAP1 PUSH2 0xDDA SWAP3 SWAP2 SWAP1 PUSH2 0x3631 JUMP JUMPDEST POP SWAP1 POP POP PUSH1 0x9 PUSH1 0x0 DUP2 SLOAD DUP1 SWAP3 SWAP2 SWAP1 PUSH2 0xDF1 SWAP1 PUSH2 0x4A2D JUMP JUMPDEST SWAP2 SWAP1 POP SSTORE POP POP POP POP JUMP JUMPDEST PUSH1 0x60 PUSH1 0x0 PUSH1 0x60 DUP1 PUSH1 0x60 DUP1 PUSH1 0x0 PUSH1 0xA PUSH1 0x0 DUP10 DUP2 MSTORE PUSH1 0x20 ADD SWAP1 DUP2 MSTORE PUSH1 0x20 ADD PUSH1 0x0 KECCAK256 PUSH1 0x5 ADD PUSH1 0xA PUSH1 0x0 DUP11 DUP2 MSTORE PUSH1 0x20 ADD SWAP1 DUP2 MSTORE PUSH1 0x20 ADD PUSH1 0x0 KECCAK256 PUSH1 0x6 ADD SLOAD PUSH1 0xA PUSH1 0x0 DUP12 DUP2 MSTORE PUSH1 0x20 ADD SWAP1 DUP2 MSTORE PUSH1 0x20 ADD PUSH1 0x0 KECCAK256 PUSH1 0x1 ADD PUSH1 0xA PUSH1 0x0 DUP13 DUP2 MSTORE PUSH1 0x20 ADD SWAP1 DUP2 MSTORE PUSH1 0x20 ADD PUSH1 0x0 KECCAK256 PUSH1 0x2 ADD PUSH1 0xA PUSH1 0x0 DUP14 DUP2 MSTORE PUSH1 0x20 ADD SWAP1 DUP2 MSTORE PUSH1 0x20 ADD PUSH1 0x0 KECCAK256 PUSH1 0x4 ADD PUSH1 0xA PUSH1 0x0 DUP15 DUP2 MSTORE PUSH1 0x20 ADD SWAP1 DUP2 MSTORE PUSH1 0x20 ADD PUSH1 0x0 KECCAK256 PUSH1 0x7 ADD PUSH1 0xA PUSH1 0x0 DUP16 DUP2 MSTORE PUSH1 0x20 ADD SWAP1 DUP2 MSTORE PUSH1 0x20 ADD PUSH1 0x0 KECCAK256 PUSH1 0x8 ADD SLOAD DUP7 DUP1 SLOAD PUSH2 0xEAF SWAP1 PUSH2 0x4AA5 JUMP JUMPDEST DUP1 PUSH1 0x1F ADD PUSH1 0x20 DUP1 SWAP2 DIV MUL PUSH1 0x20 ADD PUSH1 0x40 MLOAD SWAP1 DUP2 ADD PUSH1 0x40 MSTORE DUP1 SWAP3 SWAP2 SWAP1 DUP2 DUP2 MSTORE PUSH1 0x20 ADD DUP3 DUP1 SLOAD PUSH2 0xEDB SWAP1 PUSH2 0x4AA5 JUMP JUMPDEST DUP1 ISZERO PUSH2 0xF28 JUMPI DUP1 PUSH1 0x1F LT PUSH2 0xEFD JUMPI PUSH2 0x100 DUP1 DUP4 SLOAD DIV MUL DUP4 MSTORE SWAP2 PUSH1 0x20 ADD SWAP2 PUSH2 0xF28 JUMP JUMPDEST DUP3 ADD SWAP2 SWAP1 PUSH1 0x0 MSTORE PUSH1 0x20 PUSH1 0x0 KECCAK256 SWAP1 JUMPDEST DUP2 SLOAD DUP2 MSTORE SWAP1 PUSH1 0x1 ADD SWAP1 PUSH1 0x20 ADD DUP1 DUP4 GT PUSH2 0xF0B JUMPI DUP3 SWAP1 SUB PUSH1 0x1F AND DUP3 ADD SWAP2 JUMPDEST POP POP POP POP POP SWAP7 POP DUP5 DUP1 SLOAD PUSH2 0xF3B SWAP1 PUSH2 0x4AA5 JUMP JUMPDEST DUP1 PUSH1 0x1F ADD PUSH1 0x20 DUP1 SWAP2 DIV MUL PUSH1 0x20 ADD PUSH1 0x40 MLOAD SWAP1 DUP2 ADD PUSH1 0x40 MSTORE DUP1 SWAP3 SWAP2 SWAP1 DUP2 DUP2 MSTORE PUSH1 0x20 ADD DUP3 DUP1 SLOAD PUSH2 0xF67 SWAP1 PUSH2 0x4AA5 JUMP JUMPDEST DUP1 ISZERO PUSH2 0xFB4 JUMPI DUP1 PUSH1 0x1F LT PUSH2 0xF89 JUMPI PUSH2 0x100 DUP1 DUP4 SLOAD DIV MUL DUP4 MSTORE SWAP2 PUSH1 0x20 ADD SWAP2 PUSH2 0xFB4 JUMP JUMPDEST DUP3 ADD SWAP2 SWAP1 PUSH1 0x0 MSTORE PUSH1 0x20 PUSH1 0x0 KECCAK256 SWAP1 JUMPDEST DUP2 SLOAD DUP2 MSTORE SWAP1 PUSH1 0x1 ADD SWAP1 PUSH1 0x20 ADD DUP1 DUP4 GT PUSH2 0xF97 JUMPI DUP3 SWAP1 SUB PUSH1 0x1F AND DUP3 ADD SWAP2 JUMPDEST POP POP POP POP POP SWAP5 POP DUP4 DUP1 SLOAD PUSH2 0xFC7 SWAP1 PUSH2 0x4AA5 JUMP JUMPDEST DUP1 PUSH1 0x1F ADD PUSH1 0x20 DUP1 SWAP2 DIV MUL PUSH1 0x20 ADD PUSH1 0x40 MLOAD SWAP1 DUP2 ADD PUSH1 0x40 MSTORE DUP1 SWAP3 SWAP2 SWAP1 DUP2 DUP2 MSTORE PUSH1 0x20 ADD DUP3 DUP1 SLOAD PUSH2 0xFF3 SWAP1 PUSH2 0x4AA5 JUMP JUMPDEST DUP1 ISZERO PUSH2 0x1040 JUMPI DUP1 PUSH1 0x1F LT PUSH2 0x1015 JUMPI PUSH2 0x100 DUP1 DUP4 SLOAD DIV MUL DUP4 MSTORE SWAP2 PUSH1 0x20 ADD SWAP2 PUSH2 0x1040 JUMP JUMPDEST DUP3 ADD SWAP2 SWAP1 PUSH1 0x0 MSTORE PUSH1 0x20 PUSH1 0x0 KECCAK256 SWAP1 JUMPDEST DUP2 SLOAD DUP2 MSTORE SWAP1 PUSH1 0x1 ADD SWAP1 PUSH1 0x20 ADD DUP1 DUP4 GT PUSH2 0x1023 JUMPI DUP3 SWAP1 SUB PUSH1 0x1F AND DUP3 ADD SWAP2 JUMPDEST POP POP POP POP POP SWAP4 POP DUP3 DUP1 SLOAD PUSH2 0x1053 SWAP1 PUSH2 0x4AA5 JUMP JUMPDEST DUP1 PUSH1 0x1F ADD PUSH1 0x20 DUP1 SWAP2 DIV MUL PUSH1 0x20 ADD PUSH1 0x40 MLOAD SWAP1 DUP2 ADD PUSH1 0x40 MSTORE DUP1 SWAP3 SWAP2 SWAP1 DUP2 DUP2 MSTORE PUSH1 0x20 ADD DUP3 DUP1 SLOAD PUSH2 0x107F SWAP1 PUSH2 0x4AA5 JUMP JUMPDEST DUP1 ISZERO PUSH2 0x10CC JUMPI DUP1 PUSH1 0x1F LT PUSH2 0x10A1 JUMPI PUSH2 0x100 DUP1 DUP4 SLOAD DIV MUL DUP4 MSTORE SWAP2 PUSH1 0x20 ADD SWAP2 PUSH2 0x10CC JUMP JUMPDEST DUP3 ADD SWAP2 SWAP1 PUSH1 0x0 MSTORE PUSH1 0x20 PUSH1 0x0 KECCAK256 SWAP1 JUMPDEST DUP2 SLOAD DUP2 MSTORE SWAP1 PUSH1 0x1 ADD SWAP1 PUSH1 0x20 ADD DUP1 DUP4 GT PUSH2 0x10AF JUMPI DUP3 SWAP1 SUB PUSH1 0x1F AND DUP3 ADD SWAP2 JUMPDEST POP POP POP POP POP SWAP3 POP DUP2 DUP1 SLOAD PUSH2 0x10DF SWAP1 PUSH2 0x4AA5 JUMP JUMPDEST DUP1 PUSH1 0x1F ADD PUSH1 0x20 DUP1 SWAP2 DIV MUL PUSH1 0x20 ADD PUSH1 0x40 MLOAD SWAP1 DUP2 ADD PUSH1 0x40 MSTORE DUP1 SWAP3 SWAP2 SWAP1 DUP2 DUP2 MSTORE PUSH1 0x20 ADD DUP3 DUP1 SLOAD PUSH2 0x110B SWAP1 PUSH2 0x4AA5 JUMP JUMPDEST DUP1 ISZERO PUSH2 0x1158 JUMPI DUP1 PUSH1 0x1F LT PUSH2 0x112D JUMPI PUSH2 0x100 DUP1 DUP4 SLOAD DIV MUL DUP4 MSTORE SWAP2 PUSH1 0x20 ADD SWAP2 PUSH2 0x1158 JUMP JUMPDEST DUP3 ADD SWAP2 SWAP1 PUSH1 0x0 MSTORE PUSH1 0x20 PUSH1 0x0 KECCAK256 SWAP1 JUMPDEST DUP2 SLOAD DUP2 MSTORE SWAP1 PUSH1 0x1 ADD SWAP1 PUSH1 0x20 ADD DUP1 DUP4 GT PUSH2 0x113B JUMPI DUP3 SWAP1 SUB PUSH1 0x1F AND DUP3 ADD SWAP2 JUMPDEST POP POP POP POP POP SWAP2 POP SWAP7 POP SWAP7 POP SWAP7 POP SWAP7 POP SWAP7 POP SWAP7 POP SWAP7 POP SWAP2 SWAP4 SWAP6 SWAP8 SWAP1 SWAP3 SWAP5 SWAP7 POP JUMP JUMPDEST PUSH1 0x5 SLOAD DUP2 JUMP JUMPDEST DUP4 PUSH1 0xB PUSH1 0x0 DUP8 DUP2 MSTORE PUSH1 0x20 ADD SWAP1 DUP2 MSTORE PUSH1 0x20 ADD PUSH1 0x0 KECCAK256 PUSH1 0x2 ADD SWAP1 DUP1 MLOAD SWAP1 PUSH1 0x20 ADD SWAP1 PUSH2 0x11A8 SWAP3 SWAP2 SWAP1 PUSH2 0x3631 JUMP JUMPDEST POP DUP3 PUSH1 0xB PUSH1 0x0 DUP8 DUP2 MSTORE PUSH1 0x20 ADD SWAP1 DUP2 MSTORE PUSH1 0x20 ADD PUSH1 0x0 KECCAK256 PUSH1 0x3 ADD SWAP1 DUP1 MLOAD SWAP1 PUSH1 0x20 ADD SWAP1 PUSH2 0x11D3 SWAP3 SWAP2 SWAP1 PUSH2 0x3631 JUMP JUMPDEST POP DUP2 PUSH1 0xB PUSH1 0x0 DUP8 DUP2 MSTORE PUSH1 0x20 ADD SWAP1 DUP2 MSTORE PUSH1 0x20 ADD PUSH1 0x0 KECCAK256 PUSH1 0x4 ADD SWAP1 DUP1 MLOAD SWAP1 PUSH1 0x20 ADD SWAP1 PUSH2 0x11FE SWAP3 SWAP2 SWAP1 PUSH2 0x3631 JUMP JUMPDEST POP DUP1 PUSH1 0xB PUSH1 0x0 DUP8 DUP2 MSTORE PUSH1 0x20 ADD SWAP1 DUP2 MSTORE PUSH1 0x20 ADD PUSH1 0x0 KECCAK256 PUSH1 0x8 ADD DUP2 SWAP1 SSTORE POP POP POP POP POP POP JUMP JUMPDEST PUSH1 0x40 MLOAD DUP1 PUSH2 0x120 ADD PUSH1 0x40 MSTORE DUP1 PUSH1 0x4 SLOAD DUP2 MSTORE PUSH1 0x20 ADD DUP9 DUP2 MSTORE PUSH1 0x20 ADD DUP8 DUP2 MSTORE PUSH1 0x20 ADD DUP7 DUP2 MSTORE PUSH1 0x20 ADD DUP6 DUP2 MSTORE PUSH1 0x20 ADD DUP5 DUP2 MSTORE PUSH1 0x20 ADD DUP4 DUP2 MSTORE PUSH1 0x20 ADD DUP3 DUP2 MSTORE PUSH1 0x20 ADD PUSH1 0x0 DUP2 MSTORE POP PUSH1 0xF PUSH1 0x0 PUSH1 0x4 SLOAD DUP2 MSTORE PUSH1 0x20 ADD SWAP1 DUP2 MSTORE PUSH1 0x20 ADD PUSH1 0x0 KECCAK256 PUSH1 0x0 DUP3 ADD MLOAD DUP2 PUSH1 0x0 ADD SSTORE PUSH1 0x20 DUP3 ADD MLOAD DUP2 PUSH1 0x1 ADD SSTORE PUSH1 0x40 DUP3 ADD MLOAD DUP2 PUSH1 0x2 ADD SSTORE PUSH1 0x60 DUP3 ADD MLOAD DUP2 PUSH1 0x3 ADD SWAP1 DUP1 MLOAD SWAP1 PUSH1 0x20 ADD SWAP1 PUSH2 0x12B3 SWAP3 SWAP2 SWAP1 PUSH2 0x3631 JUMP JUMPDEST POP PUSH1 0x80 DUP3 ADD MLOAD DUP2 PUSH1 0x4 ADD SWAP1 DUP1 MLOAD SWAP1 PUSH1 0x20 ADD SWAP1 PUSH2 0x12D0 SWAP3 SWAP2 SWAP1 PUSH2 0x3631 JUMP JUMPDEST POP PUSH1 0xA0 DUP3 ADD MLOAD DUP2 PUSH1 0x5 ADD SWAP1 DUP1 MLOAD SWAP1 PUSH1 0x20 ADD SWAP1 PUSH2 0x12ED SWAP3 SWAP2 SWAP1 PUSH2 0x3631 JUMP JUMPDEST POP PUSH1 0xC0 DUP3 ADD MLOAD DUP2 PUSH1 0x6 ADD SWAP1 DUP1 MLOAD SWAP1 PUSH1 0x20 ADD SWAP1 PUSH2 0x130A SWAP3 SWAP2 SWAP1 PUSH2 0x3631 JUMP JUMPDEST POP PUSH1 0xE0 DUP3 ADD MLOAD DUP2 PUSH1 0x7 ADD SSTORE PUSH2 0x100 DUP3 ADD MLOAD DUP2 PUSH1 0x8 ADD SSTORE SWAP1 POP POP PUSH1 0x4 PUSH1 0x0 DUP2 SLOAD DUP1 SWAP3 SWAP2 SWAP1 PUSH2 0x1336 SWAP1 PUSH2 0x4A2D JUMP JUMPDEST SWAP2 SWAP1 POP SSTORE POP POP POP POP POP POP POP POP JUMP JUMPDEST PUSH1 0x60 PUSH1 0x0 JUMPDEST PUSH1 0x9 SLOAD DUP2 LT ISZERO PUSH2 0x13B6 JUMPI DUP4 PUSH1 0x16 PUSH1 0x0 DUP4 DUP2 MSTORE PUSH1 0x20 ADD SWAP1 DUP2 MSTORE PUSH1 0x20 ADD PUSH1 0x0 KECCAK256 PUSH1 0x2 ADD SLOAD EQ DUP1 ISZERO PUSH2 0x138D JUMPI POP DUP3 PUSH1 0x16 PUSH1 0x0 DUP4 DUP2 MSTORE PUSH1 0x20 ADD SWAP1 DUP2 MSTORE PUSH1 0x20 ADD PUSH1 0x0 KECCAK256 PUSH1 0x1 ADD SLOAD EQ JUMPDEST ISZERO PUSH2 0x13A3 JUMPI PUSH2 0x139B DUP2 PUSH2 0x34D0 JUMP JUMPDEST SWAP2 POP POP PUSH2 0x13F0 JUMP JUMPDEST DUP1 DUP1 PUSH2 0x13AE SWAP1 PUSH2 0x4A2D JUMP JUMPDEST SWAP2 POP POP PUSH2 0x1349 JUMP JUMPDEST POP PUSH1 0x40 MLOAD DUP1 PUSH1 0x40 ADD PUSH1 0x40 MSTORE DUP1 PUSH1 0x5 DUP2 MSTORE PUSH1 0x20 ADD PUSH32 0x46616C7365000000000000000000000000000000000000000000000000000000 DUP2 MSTORE POP SWAP1 POP JUMPDEST SWAP3 SWAP2 POP POP JUMP JUMPDEST DUP3 PUSH1 0xB PUSH1 0x0 DUP7 DUP2 MSTORE PUSH1 0x20 ADD SWAP1 DUP2 MSTORE PUSH1 0x20 ADD PUSH1 0x0 KECCAK256 PUSH1 0x9 ADD SWAP1 DUP1 MLOAD SWAP1 PUSH1 0x20 ADD SWAP1 PUSH2 0x1420 SWAP3 SWAP2 SWAP1 PUSH2 0x3631 JUMP JUMPDEST POP DUP2 PUSH1 0xB PUSH1 0x0 DUP7 DUP2 MSTORE PUSH1 0x20 ADD SWAP1 DUP2 MSTORE PUSH1 0x20 ADD PUSH1 0x0 KECCAK256 PUSH1 0xA ADD DUP2 SWAP1 SSTORE POP DUP1 PUSH1 0xB PUSH1 0x0 DUP7 DUP2 MSTORE PUSH1 0x20 ADD SWAP1 DUP2 MSTORE PUSH1 0x20 ADD PUSH1 0x0 KECCAK256 PUSH1 0xB ADD DUP2 SWAP1 SSTORE POP POP POP POP POP JUMP JUMPDEST PUSH1 0x60 PUSH1 0x0 DUP1 JUMPDEST PUSH1 0x8 SLOAD DUP2 LT ISZERO PUSH2 0x14AD JUMPI DUP4 PUSH1 0x15 PUSH1 0x0 DUP4 DUP2 MSTORE PUSH1 0x20 ADD SWAP1 DUP2 MSTORE PUSH1 0x20 ADD PUSH1 0x0 KECCAK256 PUSH1 0x2 ADD SLOAD EQ ISZERO PUSH2 0x149A JUMPI DUP2 DUP1 PUSH2 0x1496 SWAP1 PUSH2 0x4A2D JUMP JUMPDEST SWAP3 POP POP JUMPDEST DUP1 DUP1 PUSH2 0x14A5 SWAP1 PUSH2 0x4A2D JUMP JUMPDEST SWAP2 POP POP PUSH2 0x1463 JUMP JUMPDEST POP PUSH1 0x0 DUP2 PUSH8 0xFFFFFFFFFFFFFFFF DUP2 GT ISZERO PUSH2 0x14CA JUMPI PUSH2 0x14C9 PUSH2 0x3886 JUMP JUMPDEST JUMPDEST PUSH1 0x40 MLOAD SWAP1 DUP1 DUP3 MSTORE DUP1 PUSH1 0x20 MUL PUSH1 0x20 ADD DUP3 ADD PUSH1 0x40 MSTORE DUP1 ISZERO PUSH2 0x14F8 JUMPI DUP2 PUSH1 0x20 ADD PUSH1 0x20 DUP3 MUL DUP1 CALLDATASIZE DUP4 CALLDATACOPY DUP1 DUP3 ADD SWAP2 POP POP SWAP1 POP JUMPDEST POP SWAP1 POP PUSH1 0x0 DUP1 JUMPDEST PUSH1 0x8 SLOAD DUP2 LT ISZERO PUSH2 0x1569 JUMPI DUP6 PUSH1 0x15 PUSH1 0x0 DUP4 DUP2 MSTORE PUSH1 0x20 ADD SWAP1 DUP2 MSTORE PUSH1 0x20 ADD PUSH1 0x0 KECCAK256 PUSH1 0x2 ADD SLOAD EQ ISZERO PUSH2 0x1556 JUMPI DUP1 DUP4 DUP4 DUP2 MLOAD DUP2 LT PUSH2 0x153B JUMPI PUSH2 0x153A PUSH2 0x4AD7 JUMP JUMPDEST JUMPDEST PUSH1 0x20 MUL PUSH1 0x20 ADD ADD DUP2 DUP2 MSTORE POP POP DUP2 DUP1 PUSH2 0x1552 SWAP1 PUSH2 0x4A2D JUMP JUMPDEST SWAP3 POP POP JUMPDEST DUP1 DUP1 PUSH2 0x1561 SWAP1 PUSH2 0x4A2D JUMP JUMPDEST SWAP2 POP POP PUSH2 0x14FF JUMP JUMPDEST POP DUP2 SWAP4 POP POP POP POP SWAP2 SWAP1 POP JUMP JUMPDEST PUSH1 0x9 SLOAD DUP2 JUMP JUMPDEST PUSH1 0x40 MLOAD DUP1 PUSH1 0x40 ADD PUSH1 0x40 MSTORE DUP1 DUP4 DUP2 MSTORE PUSH1 0x20 ADD DUP3 DUP2 MSTORE POP PUSH1 0x10 PUSH1 0x0 PUSH1 0x5 SLOAD DUP2 MSTORE PUSH1 0x20 ADD SWAP1 DUP2 MSTORE PUSH1 0x20 ADD PUSH1 0x0 KECCAK256 PUSH1 0x0 DUP3 ADD MLOAD DUP2 PUSH1 0x0 ADD SWAP1 DUP1 MLOAD SWAP1 PUSH1 0x20 ADD SWAP1 PUSH2 0x15C1 SWAP3 SWAP2 SWAP1 PUSH2 0x3631 JUMP JUMPDEST POP PUSH1 0x20 DUP3 ADD MLOAD DUP2 PUSH1 0x1 ADD SWAP1 DUP1 MLOAD SWAP1 PUSH1 0x20 ADD SWAP1 PUSH2 0x15DE SWAP3 SWAP2 SWAP1 PUSH2 0x3631 JUMP JUMPDEST POP SWAP1 POP POP PUSH1 0x5 PUSH1 0x0 DUP2 SLOAD DUP1 SWAP3 SWAP2 SWAP1 PUSH2 0x15F5 SWAP1 PUSH2 0x4A2D JUMP JUMPDEST SWAP2 SWAP1 POP SSTORE POP POP POP JUMP JUMPDEST DUP4 PUSH1 0xF PUSH1 0x0 DUP8 DUP2 MSTORE PUSH1 0x20 ADD SWAP1 DUP2 MSTORE PUSH1 0x20 ADD PUSH1 0x0 KECCAK256 PUSH1 0x3 ADD SWAP1 DUP1 MLOAD SWAP1 PUSH1 0x20 ADD SWAP1 PUSH2 0x1628 SWAP3 SWAP2 SWAP1 PUSH2 0x3631 JUMP JUMPDEST POP DUP3 PUSH1 0xF PUSH1 0x0 DUP8 DUP2 MSTORE PUSH1 0x20 ADD SWAP1 DUP2 MSTORE PUSH1 0x20 ADD PUSH1 0x0 KECCAK256 PUSH1 0x4 ADD SWAP1 DUP1 MLOAD SWAP1 PUSH1 0x20 ADD SWAP1 PUSH2 0x1653 SWAP3 SWAP2 SWAP1 PUSH2 0x3631 JUMP JUMPDEST POP DUP2 PUSH1 0xF PUSH1 0x0 DUP8 DUP2 MSTORE PUSH1 0x20 ADD SWAP1 DUP2 MSTORE PUSH1 0x20 ADD PUSH1 0x0 KECCAK256 PUSH1 0x6 ADD SWAP1 DUP1 MLOAD SWAP1 PUSH1 0x20 ADD SWAP1 PUSH2 0x167E SWAP3 SWAP2 SWAP1 PUSH2 0x3631 JUMP JUMPDEST POP DUP1 PUSH1 0xF PUSH1 0x0 DUP8 DUP2 MSTORE PUSH1 0x20 ADD SWAP1 DUP2 MSTORE PUSH1 0x20 ADD PUSH1 0x0 KECCAK256 PUSH1 0x7 ADD DUP2 SWAP1 SSTORE POP POP POP POP POP POP JUMP JUMPDEST PUSH1 0x3 SLOAD DUP2 JUMP JUMPDEST DUP1 PUSH1 0x11 PUSH1 0x0 DUP5 DUP2 MSTORE PUSH1 0x20 ADD SWAP1 DUP2 MSTORE PUSH1 0x20 ADD PUSH1 0x0 KECCAK256 SWAP1 DUP1 MLOAD SWAP1 PUSH1 0x20 ADD SWAP1 PUSH2 0x16CE SWAP3 SWAP2 SWAP1 PUSH2 0x3631 JUMP JUMPDEST POP POP POP JUMP JUMPDEST PUSH1 0x40 MLOAD DUP1 PUSH1 0xE0 ADD PUSH1 0x40 MSTORE DUP1 PUSH1 0x7 SLOAD DUP2 MSTORE PUSH1 0x20 ADD DUP8 DUP2 MSTORE PUSH1 0x20 ADD DUP7 DUP2 MSTORE PUSH1 0x20 ADD DUP6 DUP2 MSTORE PUSH1 0x20 ADD DUP5 DUP2 MSTORE PUSH1 0x20 ADD DUP4 DUP2 MSTORE PUSH1 0x20 ADD DUP3 DUP2 MSTORE POP PUSH1 0x14 PUSH1 0x0 PUSH1 0x7 SLOAD DUP2 MSTORE PUSH1 0x20 ADD SWAP1 DUP2 MSTORE PUSH1 0x20 ADD PUSH1 0x0 KECCAK256 PUSH1 0x0 DUP3 ADD MLOAD DUP2 PUSH1 0x0 ADD SSTORE PUSH1 0x20 DUP3 ADD MLOAD DUP2 PUSH1 0x1 ADD SSTORE PUSH1 0x40 DUP3 ADD MLOAD DUP2 PUSH1 0x2 ADD SSTORE PUSH1 0x60 DUP3 ADD MLOAD DUP2 PUSH1 0x3 ADD SSTORE PUSH1 0x80 DUP3 ADD MLOAD DUP2 PUSH1 0x4 ADD SWAP1 DUP1 MLOAD SWAP1 PUSH1 0x20 ADD SWAP1 PUSH2 0x1761 SWAP3 SWAP2 SWAP1 PUSH2 0x3631 JUMP JUMPDEST POP PUSH1 0xA0 DUP3 ADD MLOAD DUP2 PUSH1 0x5 ADD SWAP1 DUP1 MLOAD SWAP1 PUSH1 0x20 ADD SWAP1 PUSH2 0x177E SWAP3 SWAP2 SWAP1 PUSH2 0x3631 JUMP JUMPDEST POP PUSH1 0xC0 DUP3 ADD MLOAD DUP2 PUSH1 0x6 ADD SWAP1 DUP1 MLOAD SWAP1 PUSH1 0x20 ADD SWAP1 PUSH2 0x179B SWAP3 SWAP2 SWAP1 PUSH2 0x3631 JUMP JUMPDEST POP SWAP1 POP POP PUSH1 0x7 PUSH1 0x0 DUP2 SLOAD DUP1 SWAP3 SWAP2 SWAP1 PUSH2 0x17B2 SWAP1 PUSH2 0x4A2D JUMP JUMPDEST SWAP2 SWAP1 POP SSTORE POP POP POP POP POP POP POP JUMP JUMPDEST PUSH1 0xD PUSH1 0x20 MSTORE DUP1 PUSH1 0x0 MSTORE PUSH1 0x40 PUSH1 0x0 KECCAK256 PUSH1 0x0 SWAP2 POP SWAP1 POP DUP1 SLOAD PUSH2 0x17DE SWAP1 PUSH2 0x4AA5 JUMP JUMPDEST DUP1 PUSH1 0x1F ADD PUSH1 0x20 DUP1 SWAP2 DIV MUL PUSH1 0x20 ADD PUSH1 0x40 MLOAD SWAP1 DUP2 ADD PUSH1 0x40 MSTORE DUP1 SWAP3 SWAP2 SWAP1 DUP2 DUP2 MSTORE PUSH1 0x20 ADD DUP3 DUP1 SLOAD PUSH2 0x180A SWAP1 PUSH2 0x4AA5 JUMP JUMPDEST DUP1 ISZERO PUSH2 0x1857 JUMPI DUP1 PUSH1 0x1F LT PUSH2 0x182C JUMPI PUSH2 0x100 DUP1 DUP4 SLOAD DIV MUL DUP4 MSTORE SWAP2 PUSH1 0x20 ADD SWAP2 PUSH2 0x1857 JUMP JUMPDEST DUP3 ADD SWAP2 SWAP1 PUSH1 0x0 MSTORE PUSH1 0x20 PUSH1 0x0 KECCAK256 SWAP1 JUMPDEST DUP2 SLOAD DUP2 MSTORE SWAP1 PUSH1 0x1 ADD SWAP1 PUSH1 0x20 ADD DUP1 DUP4 GT PUSH2 0x183A JUMPI DUP3 SWAP1 SUB PUSH1 0x1F AND DUP3 ADD SWAP2 JUMPDEST POP POP POP POP POP DUP2 JUMP JUMPDEST PUSH1 0x1 SLOAD DUP2 JUMP JUMPDEST PUSH1 0x40 MLOAD DUP1 PUSH1 0xA0 ADD PUSH1 0x40 MSTORE DUP1 PUSH1 0x8 SLOAD DUP2 MSTORE PUSH1 0x20 ADD DUP3 DUP2 MSTORE PUSH1 0x20 ADD DUP5 DUP2 MSTORE PUSH1 0x20 ADD DUP6 DUP2 MSTORE PUSH1 0x20 ADD DUP4 DUP2 MSTORE POP PUSH1 0x15 PUSH1 0x0 PUSH1 0x8 SLOAD DUP2 MSTORE PUSH1 0x20 ADD SWAP1 DUP2 MSTORE PUSH1 0x20 ADD PUSH1 0x0 KECCAK256 PUSH1 0x0 DUP3 ADD MLOAD DUP2 PUSH1 0x0 ADD SSTORE PUSH1 0x20 DUP3 ADD MLOAD DUP2 PUSH1 0x1 ADD SSTORE PUSH1 0x40 DUP3 ADD MLOAD DUP2 PUSH1 0x2 ADD SSTORE PUSH1 0x60 DUP3 ADD MLOAD DUP2 PUSH1 0x3 ADD SSTORE PUSH1 0x80 DUP3 ADD MLOAD DUP2 PUSH1 0x4 ADD SWAP1 DUP1 MLOAD SWAP1 PUSH1 0x20 ADD SWAP1 PUSH2 0x18E7 SWAP3 SWAP2 SWAP1 PUSH2 0x3631 JUMP JUMPDEST POP SWAP1 POP POP PUSH1 0x1 PUSH1 0xF PUSH1 0x0 DUP7 DUP2 MSTORE PUSH1 0x20 ADD SWAP1 DUP2 MSTORE PUSH1 0x20 ADD PUSH1 0x0 KECCAK256 PUSH1 0x8 ADD PUSH1 0x0 DUP3 DUP3 SLOAD PUSH2 0x1912 SWAP2 SWAP1 PUSH2 0x4B06 JUMP JUMPDEST SWAP3 POP POP DUP2 SWAP1 SSTORE POP DUP2 PUSH1 0xF PUSH1 0x0 DUP7 DUP2 MSTORE PUSH1 0x20 ADD SWAP1 DUP2 MSTORE PUSH1 0x20 ADD PUSH1 0x0 KECCAK256 PUSH1 0x5 ADD SWAP1 DUP1 MLOAD SWAP1 PUSH1 0x20 ADD SWAP1 PUSH2 0x1943 SWAP3 SWAP2 SWAP1 PUSH2 0x3631 JUMP JUMPDEST POP PUSH1 0x8 PUSH1 0x0 DUP2 SLOAD DUP1 SWAP3 SWAP2 SWAP1 PUSH2 0x1957 SWAP1 PUSH2 0x4A2D JUMP JUMPDEST SWAP2 SWAP1 POP SSTORE POP POP POP POP POP JUMP JUMPDEST PUSH1 0x60 PUSH1 0x0 DUP1 JUMPDEST PUSH1 0x4 SLOAD DUP2 LT ISZERO PUSH2 0x19B2 JUMPI DUP4 PUSH1 0xF PUSH1 0x0 DUP4 DUP2 MSTORE PUSH1 0x20 ADD SWAP1 DUP2 MSTORE PUSH1 0x20 ADD PUSH1 0x0 KECCAK256 PUSH1 0x1 ADD SLOAD EQ ISZERO PUSH2 0x199F JUMPI DUP2 DUP1 PUSH2 0x199B SWAP1 PUSH2 0x4A2D JUMP JUMPDEST SWAP3 POP POP JUMPDEST DUP1 DUP1 PUSH2 0x19AA SWAP1 PUSH2 0x4A2D JUMP JUMPDEST SWAP2 POP POP PUSH2 0x1968 JUMP JUMPDEST POP PUSH1 0x0 DUP2 PUSH8 0xFFFFFFFFFFFFFFFF DUP2 GT ISZERO PUSH2 0x19CF JUMPI PUSH2 0x19CE PUSH2 0x3886 JUMP JUMPDEST JUMPDEST PUSH1 0x40 MLOAD SWAP1 DUP1 DUP3 MSTORE DUP1 PUSH1 0x20 MUL PUSH1 0x20 ADD DUP3 ADD PUSH1 0x40 MSTORE DUP1 ISZERO PUSH2 0x19FD JUMPI DUP2 PUSH1 0x20 ADD PUSH1 0x20 DUP3 MUL DUP1 CALLDATASIZE DUP4 CALLDATACOPY DUP1 DUP3 ADD SWAP2 POP POP SWAP1 POP JUMPDEST POP SWAP1 POP PUSH1 0x0 DUP1 JUMPDEST PUSH1 0x4 SLOAD DUP2 LT ISZERO PUSH2 0x1A6E JUMPI DUP6 PUSH1 0xF PUSH1 0x0 DUP4 DUP2 MSTORE PUSH1 0x20 ADD SWAP1 DUP2 MSTORE PUSH1 0x20 ADD PUSH1 0x0 KECCAK256 PUSH1 0x1 ADD SLOAD EQ ISZERO PUSH2 0x1A5B JUMPI DUP1 DUP4 DUP4 DUP2 MLOAD DUP2 LT PUSH2 0x1A40 JUMPI PUSH2 0x1A3F PUSH2 0x4AD7 JUMP JUMPDEST JUMPDEST PUSH1 0x20 MUL PUSH1 0x20 ADD ADD DUP2 DUP2 MSTORE POP POP DUP2 DUP1 PUSH2 0x1A57 SWAP1 PUSH2 0x4A2D JUMP JUMPDEST SWAP3 POP POP JUMPDEST DUP1 DUP1 PUSH2 0x1A66 SWAP1 PUSH2 0x4A2D JUMP JUMPDEST SWAP2 POP POP PUSH2 0x1A04 JUMP JUMPDEST POP DUP2 SWAP4 POP POP POP POP SWAP2 SWAP1 POP JUMP JUMPDEST DUP1 PUSH1 0xA PUSH1 0x0 DUP5 DUP2 MSTORE PUSH1 0x20 ADD SWAP1 DUP2 MSTORE PUSH1 0x20 ADD PUSH1 0x0 KECCAK256 PUSH1 0x7 ADD SWAP1 DUP1 MLOAD SWAP1 PUSH1 0x20 ADD SWAP1 PUSH2 0x1AA4 SWAP3 SWAP2 SWAP1 PUSH2 0x3631 JUMP JUMPDEST POP POP POP JUMP JUMPDEST PUSH1 0x15 PUSH1 0x20 MSTORE DUP1 PUSH1 0x0 MSTORE PUSH1 0x40 PUSH1 0x0 KECCAK256 PUSH1 0x0 SWAP2 POP SWAP1 POP DUP1 PUSH1 0x0 ADD SLOAD SWAP1 DUP1 PUSH1 0x1 ADD SLOAD SWAP1 DUP1 PUSH1 0x2 ADD SLOAD SWAP1 DUP1 PUSH1 0x3 ADD SLOAD SWAP1 DUP1 PUSH1 0x4 ADD DUP1 SLOAD PUSH2 0x1AE4 SWAP1 PUSH2 0x4AA5 JUMP JUMPDEST DUP1 PUSH1 0x1F ADD PUSH1 0x20 DUP1 SWAP2 DIV MUL PUSH1 0x20 ADD PUSH1 0x40 MLOAD SWAP1 DUP2 ADD PUSH1 0x40 MSTORE DUP1 SWAP3 SWAP2 SWAP1 DUP2 DUP2 MSTORE PUSH1 0x20 ADD DUP3 DUP1 SLOAD PUSH2 0x1B10 SWAP1 PUSH2 0x4AA5 JUMP JUMPDEST DUP1 ISZERO PUSH2 0x1B5D JUMPI DUP1 PUSH1 0x1F LT PUSH2 0x1B32 JUMPI PUSH2 0x100 DUP1 DUP4 SLOAD DIV MUL DUP4 MSTORE SWAP2 PUSH1 0x20 ADD SWAP2 PUSH2 0x1B5D JUMP JUMPDEST DUP3 ADD SWAP2 SWAP1 PUSH1 0x0 MSTORE PUSH1 0x20 PUSH1 0x0 KECCAK256 SWAP1 JUMPDEST DUP2 SLOAD DUP2 MSTORE SWAP1 PUSH1 0x1 ADD SWAP1 PUSH1 0x20 ADD DUP1 DUP4 GT PUSH2 0x1B40 JUMPI DUP3 SWAP1 SUB PUSH1 0x1F AND DUP3 ADD SWAP2 JUMPDEST POP POP POP POP POP SWAP1 POP DUP6 JUMP JUMPDEST PUSH1 0x40 MLOAD DUP1 PUSH1 0xA0 ADD PUSH1 0x40 MSTORE DUP1 PUSH1 0x6 SLOAD DUP2 MSTORE PUSH1 0x20 ADD DUP6 DUP2 MSTORE PUSH1 0x20 ADD DUP5 DUP2 MSTORE PUSH1 0x20 ADD DUP4 DUP2 MSTORE PUSH1 0x20 ADD DUP3 DUP2 MSTORE POP PUSH1 0x13 PUSH1 0x0 PUSH1 0x6 SLOAD DUP2 MSTORE PUSH1 0x20 ADD SWAP1 DUP2 MSTORE PUSH1 0x20 ADD PUSH1 0x0 KECCAK256 PUSH1 0x0 DUP3 ADD MLOAD DUP2 PUSH1 0x0 ADD SSTORE PUSH1 0x20 DUP3 ADD MLOAD DUP2 PUSH1 0x1 ADD SSTORE PUSH1 0x40 DUP3 ADD MLOAD DUP2 PUSH1 0x2 ADD SSTORE PUSH1 0x60 DUP3 ADD MLOAD DUP2 PUSH1 0x3 ADD SWAP1 DUP1 MLOAD SWAP1 PUSH1 0x20 ADD SWAP1 PUSH2 0x1BDF SWAP3 SWAP2 SWAP1 PUSH2 0x3631 JUMP JUMPDEST POP PUSH1 0x80 DUP3 ADD MLOAD DUP2 PUSH1 0x4 ADD SWAP1 DUP1 MLOAD SWAP1 PUSH1 0x20 ADD SWAP1 PUSH2 0x1BFC SWAP3 SWAP2 SWAP1 PUSH2 0x3631 JUMP JUMPDEST POP SWAP1 POP POP PUSH1 0x1 PUSH1 0xB PUSH1 0x0 DUP7 DUP2 MSTORE PUSH1 0x20 ADD SWAP1 DUP2 MSTORE PUSH1 0x20 ADD PUSH1 0x0 KECCAK256 PUSH1 0x6 ADD PUSH1 0x0 DUP3 DUP3 SLOAD PUSH2 0x1C27 SWAP2 SWAP1 PUSH2 0x4B06 JUMP JUMPDEST SWAP3 POP POP DUP2 SWAP1 SSTORE POP PUSH1 0x6 PUSH1 0x0 DUP2 SLOAD DUP1 SWAP3 SWAP2 SWAP1 PUSH2 0x1C41 SWAP1 PUSH2 0x4A2D JUMP JUMPDEST SWAP2 SWAP1 POP SSTORE POP POP POP POP POP JUMP JUMPDEST PUSH1 0x40 MLOAD DUP1 PUSH2 0x180 ADD PUSH1 0x40 MSTORE DUP1 PUSH1 0x2 SLOAD DUP2 MSTORE PUSH1 0x20 ADD DUP10 DUP2 MSTORE PUSH1 0x20 ADD DUP9 DUP2 MSTORE PUSH1 0x20 ADD DUP8 DUP2 MSTORE PUSH1 0x20 ADD DUP7 DUP2 MSTORE PUSH1 0x20 ADD DUP6 DUP2 MSTORE PUSH1 0x20 ADD DUP5 DUP2 MSTORE PUSH1 0x20 ADD DUP4 DUP2 MSTORE PUSH1 0x20 ADD DUP3 DUP2 MSTORE PUSH1 0x20 ADD PUSH1 0x40 MLOAD DUP1 PUSH1 0x40 ADD PUSH1 0x40 MSTORE DUP1 PUSH1 0x4 DUP2 MSTORE PUSH1 0x20 ADD PUSH32 0x4842415200000000000000000000000000000000000000000000000000000000 DUP2 MSTORE POP DUP2 MSTORE PUSH1 0x20 ADD PUSH1 0x0 DUP2 MSTORE PUSH1 0x20 ADD DUP3 DUP2 MSTORE POP PUSH1 0xB PUSH1 0x0 PUSH1 0x2 SLOAD DUP2 MSTORE PUSH1 0x20 ADD SWAP1 DUP2 MSTORE PUSH1 0x20 ADD PUSH1 0x0 KECCAK256 PUSH1 0x0 DUP3 ADD MLOAD DUP2 PUSH1 0x0 ADD SSTORE PUSH1 0x20 DUP3 ADD MLOAD DUP2 PUSH1 0x1 ADD SSTORE PUSH1 0x40 DUP3 ADD MLOAD DUP2 PUSH1 0x2 ADD SWAP1 DUP1 MLOAD SWAP1 PUSH1 0x20 ADD SWAP1 PUSH2 0x1D1B SWAP3 SWAP2 SWAP1 PUSH2 0x3631 JUMP JUMPDEST POP PUSH1 0x60 DUP3 ADD MLOAD DUP2 PUSH1 0x3 ADD SWAP1 DUP1 MLOAD SWAP1 PUSH1 0x20 ADD SWAP1 PUSH2 0x1D38 SWAP3 SWAP2 SWAP1 PUSH2 0x3631 JUMP JUMPDEST POP PUSH1 0x80 DUP3 ADD MLOAD DUP2 PUSH1 0x4 ADD SWAP1 DUP1 MLOAD SWAP1 PUSH1 0x20 ADD SWAP1 PUSH2 0x1D55 SWAP3 SWAP2 SWAP1 PUSH2 0x3631 JUMP JUMPDEST POP PUSH1 0xA0 DUP3 ADD MLOAD DUP2 PUSH1 0x5 ADD SWAP1 DUP1 MLOAD SWAP1 PUSH1 0x20 ADD SWAP1 PUSH2 0x1D72 SWAP3 SWAP2 SWAP1 PUSH2 0x3631 JUMP JUMPDEST POP PUSH1 0xC0 DUP3 ADD MLOAD DUP2 PUSH1 0x6 ADD SSTORE PUSH1 0xE0 DUP3 ADD MLOAD DUP2 PUSH1 0x7 ADD SSTORE PUSH2 0x100 DUP3 ADD MLOAD DUP2 PUSH1 0x8 ADD SSTORE PUSH2 0x120 DUP3 ADD MLOAD DUP2 PUSH1 0x9 ADD SWAP1 DUP1 MLOAD SWAP1 PUSH1 0x20 ADD SWAP1 PUSH2 0x1DAF SWAP3 SWAP2 SWAP1 PUSH2 0x3631 JUMP JUMPDEST POP PUSH2 0x140 DUP3 ADD MLOAD DUP2 PUSH1 0xA ADD SSTORE PUSH2 0x160 DUP3 ADD MLOAD DUP2 PUSH1 0xB ADD SSTORE SWAP1 POP POP PUSH1 0x2 PUSH1 0x0 DUP2 SLOAD DUP1 SWAP3 SWAP2 SWAP1 PUSH2 0x1DDC SWAP1 PUSH2 0x4A2D JUMP JUMPDEST SWAP2 SWAP1 POP SSTORE POP POP POP POP POP POP POP POP POP JUMP JUMPDEST DUP1 PUSH1 0xE PUSH1 0x0 DUP5 DUP2 MSTORE PUSH1 0x20 ADD SWAP1 DUP2 MSTORE PUSH1 0x20 ADD PUSH1 0x0 KECCAK256 SWAP1 DUP1 MLOAD SWAP1 PUSH1 0x20 ADD SWAP1 PUSH2 0x1E12 SWAP3 SWAP2 SWAP1 PUSH2 0x3631 JUMP JUMPDEST POP POP POP JUMP JUMPDEST DUP10 PUSH1 0x12 PUSH1 0x0 DUP13 DUP2 MSTORE PUSH1 0x20 ADD SWAP1 DUP2 MSTORE PUSH1 0x20 ADD PUSH1 0x0 KECCAK256 PUSH1 0x0 ADD DUP2 SWAP1 SSTORE POP DUP8 PUSH1 0x12 PUSH1 0x0 DUP13 DUP2 MSTORE PUSH1 0x20 ADD SWAP1 DUP2 MSTORE PUSH1 0x20 ADD PUSH1 0x0 KECCAK256 PUSH1 0x1 ADD SWAP1 DUP1 MLOAD SWAP1 PUSH1 0x20 ADD SWAP1 PUSH2 0x1E5C SWAP3 SWAP2 SWAP1 PUSH2 0x3631 JUMP JUMPDEST POP DUP7 PUSH1 0x12 PUSH1 0x0 DUP13 DUP2 MSTORE PUSH1 0x20 ADD SWAP1 DUP2 MSTORE PUSH1 0x20 ADD PUSH1 0x0 KECCAK256 PUSH1 0x2 ADD SWAP1 DUP1 MLOAD SWAP1 PUSH1 0x20 ADD SWAP1 PUSH2 0x1E87 SWAP3 SWAP2 SWAP1 PUSH2 0x3631 JUMP JUMPDEST POP DUP6 PUSH1 0x12 PUSH1 0x0 DUP13 DUP2 MSTORE PUSH1 0x20 ADD SWAP1 DUP2 MSTORE PUSH1 0x20 ADD PUSH1 0x0 KECCAK256 PUSH1 0x3 ADD SWAP1 DUP1 MLOAD SWAP1 PUSH1 0x20 ADD SWAP1 PUSH2 0x1EB2 SWAP3 SWAP2 SWAP1 PUSH2 0x3631 JUMP JUMPDEST POP DUP5 PUSH1 0x12 PUSH1 0x0 DUP13 DUP2 MSTORE PUSH1 0x20 ADD SWAP1 DUP2 MSTORE PUSH1 0x20 ADD PUSH1 0x0 KECCAK256 PUSH1 0x4 ADD SWAP1 DUP1 MLOAD SWAP1 PUSH1 0x20 ADD SWAP1 PUSH2 0x1EDD SWAP3 SWAP2 SWAP1 PUSH2 0x3631 JUMP JUMPDEST POP DUP4 PUSH1 0x12 PUSH1 0x0 DUP13 DUP2 MSTORE PUSH1 0x20 ADD SWAP1 DUP2 MSTORE PUSH1 0x20 ADD PUSH1 0x0 KECCAK256 PUSH1 0x5 ADD SWAP1 DUP1 MLOAD SWAP1 PUSH1 0x20 ADD SWAP1 PUSH2 0x1F08 SWAP3 SWAP2 SWAP1 PUSH2 0x3631 JUMP JUMPDEST POP DUP3 PUSH1 0x12 PUSH1 0x0 DUP13 DUP2 MSTORE PUSH1 0x20 ADD SWAP1 DUP2 MSTORE PUSH1 0x20 ADD PUSH1 0x0 KECCAK256 PUSH1 0x6 ADD SWAP1 DUP1 MLOAD SWAP1 PUSH1 0x20 ADD SWAP1 PUSH2 0x1F33 SWAP3 SWAP2 SWAP1 PUSH2 0x3631 JUMP JUMPDEST POP DUP2 PUSH1 0x12 PUSH1 0x0 DUP13 DUP2 MSTORE PUSH1 0x20 ADD SWAP1 DUP2 MSTORE PUSH1 0x20 ADD PUSH1 0x0 KECCAK256 PUSH1 0x7 ADD SWAP1 DUP1 MLOAD SWAP1 PUSH1 0x20 ADD SWAP1 PUSH2 0x1F5E SWAP3 SWAP2 SWAP1 PUSH2 0x3631 JUMP JUMPDEST POP DUP1 PUSH1 0x12 PUSH1 0x0 DUP13 DUP2 MSTORE PUSH1 0x20 ADD SWAP1 DUP2 MSTORE PUSH1 0x20 ADD PUSH1 0x0 KECCAK256 PUSH1 0x8 ADD SWAP1 DUP1 MLOAD SWAP1 PUSH1 0x20 ADD SWAP1 PUSH2 0x1F89 SWAP3 SWAP2 SWAP1 PUSH2 0x3631 JUMP JUMPDEST POP DUP9 PUSH1 0xA PUSH1 0x0 DUP13 DUP2 MSTORE PUSH1 0x20 ADD SWAP1 DUP2 MSTORE PUSH1 0x20 ADD PUSH1 0x0 KECCAK256 PUSH1 0x4 ADD SWAP1 DUP1 MLOAD SWAP1 PUSH1 0x20 ADD SWAP1 PUSH2 0x1FB4 SWAP3 SWAP2 SWAP1 PUSH2 0x3631 JUMP JUMPDEST POP POP POP POP POP POP POP POP POP POP POP JUMP JUMPDEST PUSH1 0xB PUSH1 0x20 MSTORE DUP1 PUSH1 0x0 MSTORE PUSH1 0x40 PUSH1 0x0 KECCAK256 PUSH1 0x0 SWAP2 POP SWAP1 POP DUP1 PUSH1 0x0 ADD SLOAD SWAP1 DUP1 PUSH1 0x1 ADD SLOAD SWAP1 DUP1 PUSH1 0x2 ADD DUP1 SLOAD PUSH2 0x1FF0 SWAP1 PUSH2 0x4AA5 JUMP JUMPDEST DUP1 PUSH1 0x1F ADD PUSH1 0x20 DUP1 SWAP2 DIV MUL PUSH1 0x20 ADD PUSH1 0x40 MLOAD SWAP1 DUP2 ADD PUSH1 0x40 MSTORE DUP1 SWAP3 SWAP2 SWAP1 DUP2 DUP2 MSTORE PUSH1 0x20 ADD DUP3 DUP1 SLOAD PUSH2 0x201C SWAP1 PUSH2 0x4AA5 JUMP JUMPDEST DUP1 ISZERO PUSH2 0x2069 JUMPI DUP1 PUSH1 0x1F LT PUSH2 0x203E JUMPI PUSH2 0x100 DUP1 DUP4 SLOAD DIV MUL DUP4 MSTORE SWAP2 PUSH1 0x20 ADD SWAP2 PUSH2 0x2069 JUMP JUMPDEST DUP3 ADD SWAP2 SWAP1 PUSH1 0x0 MSTORE PUSH1 0x20 PUSH1 0x0 KECCAK256 SWAP1 JUMPDEST DUP2 SLOAD DUP2 MSTORE SWAP1 PUSH1 0x1 ADD SWAP1 PUSH1 0x20 ADD DUP1 DUP4 GT PUSH2 0x204C JUMPI DUP3 SWAP1 SUB PUSH1 0x1F AND DUP3 ADD SWAP2 JUMPDEST POP POP POP POP POP SWAP1 DUP1 PUSH1 0x3 ADD DUP1 SLOAD PUSH2 0x207E SWAP1 PUSH2 0x4AA5 JUMP JUMPDEST DUP1 PUSH1 0x1F ADD PUSH1 0x20 DUP1 SWAP2 DIV MUL PUSH1 0x20 ADD PUSH1 0x40 MLOAD SWAP1 DUP2 ADD PUSH1 0x40 MSTORE DUP1 SWAP3 SWAP2 SWAP1 DUP2 DUP2 MSTORE PUSH1 0x20 ADD DUP3 DUP1 SLOAD PUSH2 0x20AA SWAP1 PUSH2 0x4AA5 JUMP JUMPDEST DUP1 ISZERO PUSH2 0x20F7 JUMPI DUP1 PUSH1 0x1F LT PUSH2 0x20CC JUMPI PUSH2 0x100 DUP1 DUP4 SLOAD DIV MUL DUP4 MSTORE SWAP2 PUSH1 0x20 ADD SWAP2 PUSH2 0x20F7 JUMP JUMPDEST DUP3 ADD SWAP2 SWAP1 PUSH1 0x0 MSTORE PUSH1 0x20 PUSH1 0x0 KECCAK256 SWAP1 JUMPDEST DUP2 SLOAD DUP2 MSTORE SWAP1 PUSH1 0x1 ADD SWAP1 PUSH1 0x20 ADD DUP1 DUP4 GT PUSH2 0x20DA JUMPI DUP3 SWAP1 SUB PUSH1 0x1F AND DUP3 ADD SWAP2 JUMPDEST POP POP POP POP POP SWAP1 DUP1 PUSH1 0x4 ADD DUP1 SLOAD PUSH2 0x210C SWAP1 PUSH2 0x4AA5 JUMP JUMPDEST DUP1 PUSH1 0x1F ADD PUSH1 0x20 DUP1 SWAP2 DIV MUL PUSH1 0x20 ADD PUSH1 0x40 MLOAD SWAP1 DUP2 ADD PUSH1 0x40 MSTORE DUP1 SWAP3 SWAP2 SWAP1 DUP2 DUP2 MSTORE PUSH1 0x20 ADD DUP3 DUP1 SLOAD PUSH2 0x2138 SWAP1 PUSH2 0x4AA5 JUMP JUMPDEST DUP1 ISZERO PUSH2 0x2185 JUMPI DUP1 PUSH1 0x1F LT PUSH2 0x215A JUMPI PUSH2 0x100 DUP1 DUP4 SLOAD DIV MUL DUP4 MSTORE SWAP2 PUSH1 0x20 ADD SWAP2 PUSH2 0x2185 JUMP JUMPDEST DUP3 ADD SWAP2 SWAP1 PUSH1 0x0 MSTORE PUSH1 0x20 PUSH1 0x0 KECCAK256 SWAP1 JUMPDEST DUP2 SLOAD DUP2 MSTORE SWAP1 PUSH1 0x1 ADD SWAP1 PUSH1 0x20 ADD DUP1 DUP4 GT PUSH2 0x2168 JUMPI DUP3 SWAP1 SUB PUSH1 0x1F AND DUP3 ADD SWAP2 JUMPDEST POP POP POP POP POP SWAP1 DUP1 PUSH1 0x5 ADD DUP1 SLOAD PUSH2 0x219A SWAP1 PUSH2 0x4AA5 JUMP JUMPDEST DUP1 PUSH1 0x1F ADD PUSH1 0x20 DUP1 SWAP2 DIV MUL PUSH1 0x20 ADD PUSH1 0x40 MLOAD SWAP1 DUP2 ADD PUSH1 0x40 MSTORE DUP1 SWAP3 SWAP2 SWAP1 DUP2 DUP2 MSTORE PUSH1 0x20 ADD DUP3 DUP1 SLOAD PUSH2 0x21C6 SWAP1 PUSH2 0x4AA5 JUMP JUMPDEST DUP1 ISZERO PUSH2 0x2213 JUMPI DUP1 PUSH1 0x1F LT PUSH2 0x21E8 JUMPI PUSH2 0x100 DUP1 DUP4 SLOAD DIV MUL DUP4 MSTORE SWAP2 PUSH1 0x20 ADD SWAP2 PUSH2 0x2213 JUMP JUMPDEST DUP3 ADD SWAP2 SWAP1 PUSH1 0x0 MSTORE PUSH1 0x20 PUSH1 0x0 KECCAK256 SWAP1 JUMPDEST DUP2 SLOAD DUP2 MSTORE SWAP1 PUSH1 0x1 ADD SWAP1 PUSH1 0x20 ADD DUP1 DUP4 GT PUSH2 0x21F6 JUMPI DUP3 SWAP1 SUB PUSH1 0x1F AND DUP3 ADD SWAP2 JUMPDEST POP POP POP POP POP SWAP1 DUP1 PUSH1 0x6 ADD SLOAD SWAP1 DUP1 PUSH1 0x7 ADD SLOAD SWAP1 DUP1 PUSH1 0x8 ADD SLOAD SWAP1 DUP1 PUSH1 0x9 ADD DUP1 SLOAD PUSH2 0x223A SWAP1 PUSH2 0x4AA5 JUMP JUMPDEST DUP1 PUSH1 0x1F ADD PUSH1 0x20 DUP1 SWAP2 DIV MUL PUSH1 0x20 ADD PUSH1 0x40 MLOAD SWAP1 DUP2 ADD PUSH1 0x40 MSTORE DUP1 SWAP3 SWAP2 SWAP1 DUP2 DUP2 MSTORE PUSH1 0x20 ADD DUP3 DUP1 SLOAD PUSH2 0x2266 SWAP1 PUSH2 0x4AA5 JUMP JUMPDEST DUP1 ISZERO PUSH2 0x22B3 JUMPI DUP1 PUSH1 0x1F LT PUSH2 0x2288 JUMPI PUSH2 0x100 DUP1 DUP4 SLOAD DIV MUL DUP4 MSTORE SWAP2 PUSH1 0x20 ADD SWAP2 PUSH2 0x22B3 JUMP JUMPDEST DUP3 ADD SWAP2 SWAP1 PUSH1 0x0 MSTORE PUSH1 0x20 PUSH1 0x0 KECCAK256 SWAP1 JUMPDEST DUP2 SLOAD DUP2 MSTORE SWAP1 PUSH1 0x1 ADD SWAP1 PUSH1 0x20 ADD DUP1 DUP4 GT PUSH2 0x2296 JUMPI DUP3 SWAP1 SUB PUSH1 0x1F AND DUP3 ADD SWAP2 JUMPDEST POP POP POP POP POP SWAP1 DUP1 PUSH1 0xA ADD SLOAD SWAP1 DUP1 PUSH1 0xB ADD SLOAD SWAP1 POP DUP13 JUMP JUMPDEST DUP1 PUSH1 0xC PUSH1 0x0 DUP5 DUP2 MSTORE PUSH1 0x20 ADD SWAP1 DUP2 MSTORE PUSH1 0x20 ADD PUSH1 0x0 KECCAK256 SWAP1 DUP1 MLOAD SWAP1 PUSH1 0x20 ADD SWAP1 PUSH2 0x22F0 SWAP3 SWAP2 SWAP1 PUSH2 0x3631 JUMP JUMPDEST POP POP POP JUMP JUMPDEST PUSH1 0x0 DUP2 PUSH20 0xFFFFFFFFFFFFFFFFFFFFFFFFFFFFFFFFFFFFFFFF AND DUP4 PUSH1 0x40 MLOAD PUSH2 0x231B SWAP1 PUSH2 0x4B8D JUMP JUMPDEST PUSH1 0x0 PUSH1 0x40 MLOAD DUP1 DUP4 SUB DUP2 DUP6 DUP8 GAS CALL SWAP3 POP POP POP RETURNDATASIZE DUP1 PUSH1 0x0 DUP2 EQ PUSH2 0x2358 JUMPI PUSH1 0x40 MLOAD SWAP2 POP PUSH1 0x1F NOT PUSH1 0x3F RETURNDATASIZE ADD AND DUP3 ADD PUSH1 0x40 MSTORE RETURNDATASIZE DUP3 MSTORE RETURNDATASIZE PUSH1 0x0 PUSH1 0x20 DUP5 ADD RETURNDATACOPY PUSH2 0x235D JUMP JUMPDEST PUSH1 0x60 SWAP2 POP JUMPDEST POP POP SWAP1 POP DUP1 PUSH2 0x23A1 JUMPI PUSH1 0x40 MLOAD PUSH32 0x8C379A000000000000000000000000000000000000000000000000000000000 DUP2 MSTORE PUSH1 0x4 ADD PUSH2 0x2398 SWAP1 PUSH2 0x4BEE JUMP JUMPDEST PUSH1 0x40 MLOAD DUP1 SWAP2 SUB SWAP1 REVERT JUMPDEST DUP3 PUSH1 0xA PUSH1 0x0 DUP7 DUP2 MSTORE PUSH1 0x20 ADD SWAP1 DUP2 MSTORE PUSH1 0x20 ADD PUSH1 0x0 KECCAK256 PUSH1 0x6 ADD PUSH1 0x0 DUP3 DUP3 SLOAD PUSH2 0x23C7 SWAP2 SWAP1 PUSH2 0x4C0E JUMP JUMPDEST SWAP3 POP POP DUP2 SWAP1 SSTORE POP POP POP POP POP JUMP JUMPDEST PUSH1 0x8 SLOAD DUP2 JUMP JUMPDEST PUSH1 0x14 PUSH1 0x20 MSTORE DUP1 PUSH1 0x0 MSTORE PUSH1 0x40 PUSH1 0x0 KECCAK256 PUSH1 0x0 SWAP2 POP SWAP1 POP DUP1 PUSH1 0x0 ADD SLOAD SWAP1 DUP1 PUSH1 0x1 ADD SLOAD SWAP1 DUP1 PUSH1 0x2 ADD SLOAD SWAP1 DUP1 PUSH1 0x3 ADD SLOAD SWAP1 DUP1 PUSH1 0x4 ADD DUP1 SLOAD PUSH2 0x2415 SWAP1 PUSH2 0x4AA5 JUMP JUMPDEST DUP1 PUSH1 0x1F ADD PUSH1 0x20 DUP1 SWAP2 DIV MUL PUSH1 0x20 ADD PUSH1 0x40 MLOAD SWAP1 DUP2 ADD PUSH1 0x40 MSTORE DUP1 SWAP3 SWAP2 SWAP1 DUP2 DUP2 MSTORE PUSH1 0x20 ADD DUP3 DUP1 SLOAD PUSH2 0x2441 SWAP1 PUSH2 0x4AA5 JUMP JUMPDEST DUP1 ISZERO PUSH2 0x248E JUMPI DUP1 PUSH1 0x1F LT PUSH2 0x2463 JUMPI PUSH2 0x100 DUP1 DUP4 SLOAD DIV MUL DUP4 MSTORE SWAP2 PUSH1 0x20 ADD SWAP2 PUSH2 0x248E JUMP JUMPDEST DUP3 ADD SWAP2 SWAP1 PUSH1 0x0 MSTORE PUSH1 0x20 PUSH1 0x0 KECCAK256 SWAP1 JUMPDEST DUP2 SLOAD DUP2 MSTORE SWAP1 PUSH1 0x1 ADD SWAP1 PUSH1 0x20 ADD DUP1 DUP4 GT PUSH2 0x2471 JUMPI DUP3 SWAP1 SUB PUSH1 0x1F AND DUP3 ADD SWAP2 JUMPDEST POP POP POP POP POP SWAP1 DUP1 PUSH1 0x5 ADD DUP1 SLOAD PUSH2 0x24A3 SWAP1 PUSH2 0x4AA5 JUMP JUMPDEST DUP1 PUSH1 0x1F ADD PUSH1 0x20 DUP1 SWAP2 DIV MUL PUSH1 0x20 ADD PUSH1 0x40 MLOAD SWAP1 DUP2 ADD PUSH1 0x40 MSTORE DUP1 SWAP3 SWAP2 SWAP1 DUP2 DUP2 MSTORE PUSH1 0x20 ADD DUP3 DUP1 SLOAD PUSH2 0x24CF SWAP1 PUSH2 0x4AA5 JUMP JUMPDEST DUP1 ISZERO PUSH2 0x251C JUMPI DUP1 PUSH1 0x1F LT PUSH2 0x24F1 JUMPI PUSH2 0x100 DUP1 DUP4 SLOAD DIV MUL DUP4 MSTORE SWAP2 PUSH1 0x20 ADD SWAP2 PUSH2 0x251C JUMP JUMPDEST DUP3 ADD SWAP2 SWAP1 PUSH1 0x0 MSTORE PUSH1 0x20 PUSH1 0x0 KECCAK256 SWAP1 JUMPDEST DUP2 SLOAD DUP2 MSTORE SWAP1 PUSH1 0x1 ADD SWAP1 PUSH1 0x20 ADD DUP1 DUP4 GT PUSH2 0x24FF JUMPI DUP3 SWAP1 SUB PUSH1 0x1F AND DUP3 ADD SWAP2 JUMPDEST POP POP POP POP POP SWAP1 DUP1 PUSH1 0x6 ADD DUP1 SLOAD PUSH2 0x2531 SWAP1 PUSH2 0x4AA5 JUMP JUMPDEST DUP1 PUSH1 0x1F ADD PUSH1 0x20 DUP1 SWAP2 DIV MUL PUSH1 0x20 ADD PUSH1 0x40 MLOAD SWAP1 DUP2 ADD PUSH1 0x40 MSTORE DUP1 SWAP3 SWAP2 SWAP1 DUP2 DUP2 MSTORE PUSH1 0x20 ADD DUP3 DUP1 SLOAD PUSH2 0x255D SWAP1 PUSH2 0x4AA5 JUMP JUMPDEST DUP1 ISZERO PUSH2 0x25AA JUMPI DUP1 PUSH1 0x1F LT PUSH2 0x257F JUMPI PUSH2 0x100 DUP1 DUP4 SLOAD DIV MUL DUP4 MSTORE SWAP2 PUSH1 0x20 ADD SWAP2 PUSH2 0x25AA JUMP JUMPDEST DUP3 ADD SWAP2 SWAP1 PUSH1 0x0 MSTORE PUSH1 0x20 PUSH1 0x0 KECCAK256 SWAP1 JUMPDEST DUP2 SLOAD DUP2 MSTORE SWAP1 PUSH1 0x1 ADD SWAP1 PUSH1 0x20 ADD DUP1 DUP4 GT PUSH2 0x258D JUMPI DUP3 SWAP1 SUB PUSH1 0x1F AND DUP3 ADD SWAP2 JUMPDEST POP POP POP POP POP SWAP1 POP DUP8 JUMP JUMPDEST PUSH1 0x2 SLOAD DUP2 JUMP JUMPDEST PUSH1 0x60 PUSH1 0x0 JUMPDEST PUSH1 0x0 SLOAD DUP2 LT ISZERO PUSH2 0x2662 JUMPI DUP4 DUP1 MLOAD SWAP1 PUSH1 0x20 ADD KECCAK256 PUSH1 0xA PUSH1 0x0 DUP4 DUP2 MSTORE PUSH1 0x20 ADD SWAP1 DUP2 MSTORE PUSH1 0x20 ADD PUSH1 0x0 KECCAK256 PUSH1 0x2 ADD PUSH1 0x40 MLOAD PUSH2 0x25F4 SWAP2 SWAP1 PUSH2 0x4CD6 JUMP JUMPDEST PUSH1 0x40 MLOAD DUP1 SWAP2 SUB SWAP1 KECCAK256 EQ DUP1 ISZERO PUSH2 0x2639 JUMPI POP DUP3 DUP1 MLOAD SWAP1 PUSH1 0x20 ADD KECCAK256 PUSH1 0xA PUSH1 0x0 DUP4 DUP2 MSTORE PUSH1 0x20 ADD SWAP1 DUP2 MSTORE PUSH1 0x20 ADD PUSH1 0x0 KECCAK256 PUSH1 0x3 ADD PUSH1 0x40 MLOAD PUSH2 0x262F SWAP2 SWAP1 PUSH2 0x4CD6 JUMP JUMPDEST PUSH1 0x40 MLOAD DUP1 SWAP2 SUB SWAP1 KECCAK256 EQ JUMPDEST ISZERO PUSH2 0x264F JUMPI PUSH2 0x2647 DUP2 PUSH2 0x34D0 JUMP JUMPDEST SWAP2 POP POP PUSH2 0x269C JUMP JUMPDEST DUP1 DUP1 PUSH2 0x265A SWAP1 PUSH2 0x4A2D JUMP JUMPDEST SWAP2 POP POP PUSH2 0x25BF JUMP JUMPDEST POP PUSH1 0x40 MLOAD DUP1 PUSH1 0x40 ADD PUSH1 0x40 MSTORE DUP1 PUSH1 0x5 DUP2 MSTORE PUSH1 0x20 ADD PUSH32 0x46616C7365000000000000000000000000000000000000000000000000000000 DUP2 MSTORE POP SWAP1 POP JUMPDEST SWAP3 SWAP2 POP POP JUMP JUMPDEST PUSH1 0x40 MLOAD DUP1 PUSH2 0x120 ADD PUSH1 0x40 MSTORE DUP1 PUSH1 0x0 SLOAD DUP2 MSTORE PUSH1 0x20 ADD DUP8 DUP2 MSTORE PUSH1 0x20 ADD DUP7 DUP2 MSTORE PUSH1 0x20 ADD DUP6 DUP2 MSTORE PUSH1 0x20 ADD DUP4 DUP2 MSTORE PUSH1 0x20 ADD PUSH1 0x40 MLOAD DUP1 PUSH1 0x60 ADD PUSH1 0x40 MSTORE DUP1 PUSH1 0x28 DUP2 MSTORE PUSH1 0x20 ADD PUSH2 0x4D7F PUSH1 0x28 SWAP2 CODECOPY DUP2 MSTORE PUSH1 0x20 ADD PUSH1 0x0 DUP2 MSTORE PUSH1 0x20 ADD DUP5 DUP2 MSTORE PUSH1 0x20 ADD PUSH1 0x0 SLOAD DUP2 MSTORE POP PUSH1 0xA PUSH1 0x0 DUP1 SLOAD DUP2 MSTORE PUSH1 0x20 ADD SWAP1 DUP2 MSTORE PUSH1 0x20 ADD PUSH1 0x0 KECCAK256 PUSH1 0x0 DUP3 ADD MLOAD DUP2 PUSH1 0x0 ADD SSTORE PUSH1 0x20 DUP3 ADD MLOAD DUP2 PUSH1 0x1 ADD SWAP1 DUP1 MLOAD SWAP1 PUSH1 0x20 ADD SWAP1 PUSH2 0x2739 SWAP3 SWAP2 SWAP1 PUSH2 0x3631 JUMP JUMPDEST POP PUSH1 0x40 DUP3 ADD MLOAD DUP2 PUSH1 0x2 ADD SWAP1 DUP1 MLOAD SWAP1 PUSH1 0x20 ADD SWAP1 PUSH2 0x2756 SWAP3 SWAP2 SWAP1 PUSH2 0x3631 JUMP JUMPDEST POP PUSH1 0x60 DUP3 ADD MLOAD DUP2 PUSH1 0x3 ADD SWAP1 DUP1 MLOAD SWAP1 PUSH1 0x20 ADD SWAP1 PUSH2 0x2773 SWAP3 SWAP2 SWAP1 PUSH2 0x3631 JUMP JUMPDEST POP PUSH1 0x80 DUP3 ADD MLOAD DUP2 PUSH1 0x4 ADD SWAP1 DUP1 MLOAD SWAP1 PUSH1 0x20 ADD SWAP1 PUSH2 0x2790 SWAP3 SWAP2 SWAP1 PUSH2 0x3631 JUMP JUMPDEST POP PUSH1 0xA0 DUP3 ADD MLOAD DUP2 PUSH1 0x5 ADD SWAP1 DUP1 MLOAD SWAP1 PUSH1 0x20 ADD SWAP1 PUSH2 0x27AD SWAP3 SWAP2 SWAP1 PUSH2 0x3631 JUMP JUMPDEST POP PUSH1 0xC0 DUP3 ADD MLOAD DUP2 PUSH1 0x6 ADD SSTORE PUSH1 0xE0 DUP3 ADD MLOAD DUP2 PUSH1 0x7 ADD SWAP1 DUP1 MLOAD SWAP1 PUSH1 0x20 ADD SWAP1 PUSH2 0x27D4 SWAP3 SWAP2 SWAP1 PUSH2 0x3631 JUMP JUMPDEST POP PUSH2 0x100 DUP3 ADD MLOAD DUP2 PUSH1 0x8 ADD SSTORE SWAP1 POP POP DUP1 PUSH1 0x12 PUSH1 0x0 DUP1 SLOAD DUP2 MSTORE PUSH1 0x20 ADD SWAP1 DUP2 MSTORE PUSH1 0x20 ADD PUSH1 0x0 KECCAK256 PUSH1 0x6 ADD SWAP1 DUP1 MLOAD SWAP1 PUSH1 0x20 ADD SWAP1 PUSH2 0x280E SWAP3 SWAP2 SWAP1 PUSH2 0x3631 JUMP JUMPDEST POP PUSH1 0x0 SLOAD PUSH1 0x12 PUSH1 0x0 DUP1 SLOAD DUP2 MSTORE PUSH1 0x20 ADD SWAP1 DUP2 MSTORE PUSH1 0x20 ADD PUSH1 0x0 KECCAK256 PUSH1 0x0 ADD DUP2 SWAP1 SSTORE POP PUSH1 0x0 DUP1 DUP2 SLOAD DUP1 SWAP3 SWAP2 SWAP1 PUSH2 0x283F SWAP1 PUSH2 0x4A2D JUMP JUMPDEST SWAP2 SWAP1 POP SSTORE POP POP POP POP POP POP POP JUMP JUMPDEST PUSH1 0x0 SLOAD DUP2 JUMP JUMPDEST PUSH1 0xF PUSH1 0x20 MSTORE DUP1 PUSH1 0x0 MSTORE PUSH1 0x40 PUSH1 0x0 KECCAK256 PUSH1 0x0 SWAP2 POP SWAP1 POP DUP1 PUSH1 0x0 ADD SLOAD SWAP1 DUP1 PUSH1 0x1 ADD SLOAD SWAP1 DUP1 PUSH1 0x2 ADD SLOAD SWAP1 DUP1 PUSH1 0x3 ADD DUP1 SLOAD PUSH2 0x2887 SWAP1 PUSH2 0x4AA5 JUMP JUMPDEST DUP1 PUSH1 0x1F ADD PUSH1 0x20 DUP1 SWAP2 DIV MUL PUSH1 0x20 ADD PUSH1 0x40 MLOAD SWAP1 DUP2 ADD PUSH1 0x40 MSTORE DUP1 SWAP3 SWAP2 SWAP1 DUP2 DUP2 MSTORE PUSH1 0x20 ADD DUP3 DUP1 SLOAD PUSH2 0x28B3 SWAP1 PUSH2 0x4AA5 JUMP JUMPDEST DUP1 ISZERO PUSH2 0x2900 JUMPI DUP1 PUSH1 0x1F LT PUSH2 0x28D5 JUMPI PUSH2 0x100 DUP1 DUP4 SLOAD DIV MUL DUP4 MSTORE SWAP2 PUSH1 0x20 ADD SWAP2 PUSH2 0x2900 JUMP JUMPDEST DUP3 ADD SWAP2 SWAP1 PUSH1 0x0 MSTORE PUSH1 0x20 PUSH1 0x0 KECCAK256 SWAP1 JUMPDEST DUP2 SLOAD DUP2 MSTORE SWAP1 PUSH1 0x1 ADD SWAP1 PUSH1 0x20 ADD DUP1 DUP4 GT PUSH2 0x28E3 JUMPI DUP3 SWAP1 SUB PUSH1 0x1F AND DUP3 ADD SWAP2 JUMPDEST POP POP POP POP POP SWAP1 DUP1 PUSH1 0x4 ADD DUP1 SLOAD PUSH2 0x2915 SWAP1 PUSH2 0x4AA5 JUMP JUMPDEST DUP1 PUSH1 0x1F ADD PUSH1 0x20 DUP1 SWAP2 DIV MUL PUSH1 0x20 ADD PUSH1 0x40 MLOAD SWAP1 DUP2 ADD PUSH1 0x40 MSTORE DUP1 SWAP3 SWAP2 SWAP1 DUP2 DUP2 MSTORE PUSH1 0x20 ADD DUP3 DUP1 SLOAD PUSH2 0x2941 SWAP1 PUSH2 0x4AA5 JUMP JUMPDEST DUP1 ISZERO PUSH2 0x298E JUMPI DUP1 PUSH1 0x1F LT PUSH2 0x2963 JUMPI PUSH2 0x100 DUP1 DUP4 SLOAD DIV MUL DUP4 MSTORE SWAP2 PUSH1 0x20 ADD SWAP2 PUSH2 0x298E JUMP JUMPDEST DUP3 ADD SWAP2 SWAP1 PUSH1 0x0 MSTORE PUSH1 0x20 PUSH1 0x0 KECCAK256 SWAP1 JUMPDEST DUP2 SLOAD DUP2 MSTORE SWAP1 PUSH1 0x1 ADD SWAP1 PUSH1 0x20 ADD DUP1 DUP4 GT PUSH2 0x2971 JUMPI DUP3 SWAP1 SUB PUSH1 0x1F AND DUP3 ADD SWAP2 JUMPDEST POP POP POP POP POP SWAP1 DUP1 PUSH1 0x5 ADD DUP1 SLOAD PUSH2 0x29A3 SWAP1 PUSH2 0x4AA5 JUMP JUMPDEST DUP1 PUSH1 0x1F ADD PUSH1 0x20 DUP1 SWAP2 DIV MUL PUSH1 0x20 ADD PUSH1 0x40 MLOAD SWAP1 DUP2 ADD PUSH1 0x40 MSTORE DUP1 SWAP3 SWAP2 SWAP1 DUP2 DUP2 MSTORE PUSH1 0x20 ADD DUP3 DUP1 SLOAD PUSH2 0x29CF SWAP1 PUSH2 0x4AA5 JUMP JUMPDEST DUP1 ISZERO PUSH2 0x2A1C JUMPI DUP1 PUSH1 0x1F LT PUSH2 0x29F1 JUMPI PUSH2 0x100 DUP1 DUP4 SLOAD DIV MUL DUP4 MSTORE SWAP2 PUSH1 0x20 ADD SWAP2 PUSH2 0x2A1C JUMP JUMPDEST DUP3 ADD SWAP2 SWAP1 PUSH1 0x0 MSTORE PUSH1 0x20 PUSH1 0x0 KECCAK256 SWAP1 JUMPDEST DUP2 SLOAD DUP2 MSTORE SWAP1 PUSH1 0x1 ADD SWAP1 PUSH1 0x20 ADD DUP1 DUP4 GT PUSH2 0x29FF JUMPI DUP3 SWAP1 SUB PUSH1 0x1F AND DUP3 ADD SWAP2 JUMPDEST POP POP POP POP POP SWAP1 DUP1 PUSH1 0x6 ADD DUP1 SLOAD PUSH2 0x2A31 SWAP1 PUSH2 0x4AA5 JUMP JUMPDEST DUP1 PUSH1 0x1F ADD PUSH1 0x20 DUP1 SWAP2 DIV MUL PUSH1 0x20 ADD PUSH1 0x40 MLOAD SWAP1 DUP2 ADD PUSH1 0x40 MSTORE DUP1 SWAP3 SWAP2 SWAP1 DUP2 DUP2 MSTORE PUSH1 0x20 ADD DUP3 DUP1 SLOAD PUSH2 0x2A5D SWAP1 PUSH2 0x4AA5 JUMP JUMPDEST DUP1 ISZERO PUSH2 0x2AAA JUMPI DUP1 PUSH1 0x1F LT PUSH2 0x2A7F JUMPI PUSH2 0x100 DUP1 DUP4 SLOAD DIV MUL DUP4 MSTORE SWAP2 PUSH1 0x20 ADD SWAP2 PUSH2 0x2AAA JUMP JUMPDEST DUP3 ADD SWAP2 SWAP1 PUSH1 0x0 MSTORE PUSH1 0x20 PUSH1 0x0 KECCAK256 SWAP1 JUMPDEST DUP2 SLOAD DUP2 MSTORE SWAP1 PUSH1 0x1 ADD SWAP1 PUSH1 0x20 ADD DUP1 DUP4 GT PUSH2 0x2A8D JUMPI DUP3 SWAP1 SUB PUSH1 0x1F AND DUP3 ADD SWAP2 JUMPDEST POP POP POP POP POP SWAP1 DUP1 PUSH1 0x7 ADD SLOAD SWAP1 DUP1 PUSH1 0x8 ADD SLOAD SWAP1 POP DUP10 JUMP JUMPDEST DUP2 PUSH1 0xA PUSH1 0x0 DUP6 DUP2 MSTORE PUSH1 0x20 ADD SWAP1 DUP2 MSTORE PUSH1 0x20 ADD PUSH1 0x0 KECCAK256 PUSH1 0x5 ADD SWAP1 DUP1 MLOAD SWAP1 PUSH1 0x20 ADD SWAP1 PUSH2 0x2AEA SWAP3 SWAP2 SWAP1 PUSH2 0x3631 JUMP JUMPDEST POP DUP1 PUSH1 0xA PUSH1 0x0 DUP6 DUP2 MSTORE PUSH1 0x20 ADD SWAP1 DUP2 MSTORE PUSH1 0x20 ADD PUSH1 0x0 KECCAK256 PUSH1 0x6 ADD DUP2 SWAP1 SSTORE POP POP POP POP JUMP JUMPDEST PUSH1 0xC PUSH1 0x20 MSTORE DUP1 PUSH1 0x0 MSTORE PUSH1 0x40 PUSH1 0x0 KECCAK256 PUSH1 0x0 SWAP2 POP SWAP1 POP DUP1 SLOAD PUSH2 0x2B2A SWAP1 PUSH2 0x4AA5 JUMP JUMPDEST DUP1 PUSH1 0x1F ADD PUSH1 0x20 DUP1 SWAP2 DIV MUL PUSH1 0x20 ADD PUSH1 0x40 MLOAD SWAP1 DUP2 ADD PUSH1 0x40 MSTORE DUP1 SWAP3 SWAP2 SWAP1 DUP2 DUP2 MSTORE PUSH1 0x20 ADD DUP3 DUP1 SLOAD PUSH2 0x2B56 SWAP1 PUSH2 0x4AA5 JUMP JUMPDEST DUP1 ISZERO PUSH2 0x2BA3 JUMPI DUP1 PUSH1 0x1F LT PUSH2 0x2B78 JUMPI PUSH2 0x100 DUP1 DUP4 SLOAD DIV MUL DUP4 MSTORE SWAP2 PUSH1 0x20 ADD SWAP2 PUSH2 0x2BA3 JUMP JUMPDEST DUP3 ADD SWAP2 SWAP1 PUSH1 0x0 MSTORE PUSH1 0x20 PUSH1 0x0 KECCAK256 SWAP1 JUMPDEST DUP2 SLOAD DUP2 MSTORE SWAP1 PUSH1 0x1 ADD SWAP1 PUSH1 0x20 ADD DUP1 DUP4 GT PUSH2 0x2B86 JUMPI DUP3 SWAP1 SUB PUSH1 0x1F AND DUP3 ADD SWAP2 JUMPDEST POP POP POP POP POP DUP2 JUMP JUMPDEST PUSH1 0x11 PUSH1 0x20 MSTORE DUP1 PUSH1 0x0 MSTORE PUSH1 0x40 PUSH1 0x0 KECCAK256 PUSH1 0x0 SWAP2 POP SWAP1 POP DUP1 SLOAD PUSH2 0x2BCA SWAP1 PUSH2 0x4AA5 JUMP JUMPDEST DUP1 PUSH1 0x1F ADD PUSH1 0x20 DUP1 SWAP2 DIV MUL PUSH1 0x20 ADD PUSH1 0x40 MLOAD SWAP1 DUP2 ADD PUSH1 0x40 MSTORE DUP1 SWAP3 SWAP2 SWAP1 DUP2 DUP2 MSTORE PUSH1 0x20 ADD DUP3 DUP1 SLOAD PUSH2 0x2BF6 SWAP1 PUSH2 0x4AA5 JUMP JUMPDEST DUP1 ISZERO PUSH2 0x2C43 JUMPI DUP1 PUSH1 0x1F LT PUSH2 0x2C18 JUMPI PUSH2 0x100 DUP1 DUP4 SLOAD DIV MUL DUP4 MSTORE SWAP2 PUSH1 0x20 ADD SWAP2 PUSH2 0x2C43 JUMP JUMPDEST DUP3 ADD SWAP2 SWAP1 PUSH1 0x0 MSTORE PUSH1 0x20 PUSH1 0x0 KECCAK256 SWAP1 JUMPDEST DUP2 SLOAD DUP2 MSTORE SWAP1 PUSH1 0x1 ADD SWAP1 PUSH1 0x20 ADD DUP1 DUP4 GT PUSH2 0x2C26 JUMPI DUP3 SWAP1 SUB PUSH1 0x1F AND DUP3 ADD SWAP2 JUMPDEST POP POP POP POP POP DUP2 JUMP JUMPDEST PUSH1 0x6 SLOAD DUP2 JUMP JUMPDEST PUSH1 0x12 PUSH1 0x20 MSTORE DUP1 PUSH1 0x0 MSTORE PUSH1 0x40 PUSH1 0x0 KECCAK256 PUSH1 0x0 SWAP2 POP SWAP1 POP DUP1 PUSH1 0x0 ADD SLOAD SWAP1 DUP1 PUSH1 0x1 ADD DUP1 SLOAD PUSH2 0x2C7A SWAP1 PUSH2 0x4AA5 JUMP JUMPDEST DUP1 PUSH1 0x1F ADD PUSH1 0x20 DUP1 SWAP2 DIV MUL PUSH1 0x20 ADD PUSH1 0x40 MLOAD SWAP1 DUP2 ADD PUSH1 0x40 MSTORE DUP1 SWAP3 SWAP2 SWAP1 DUP2 DUP2 MSTORE PUSH1 0x20 ADD DUP3 DUP1 SLOAD PUSH2 0x2CA6 SWAP1 PUSH2 0x4AA5 JUMP JUMPDEST DUP1 ISZERO PUSH2 0x2CF3 JUMPI DUP1 PUSH1 0x1F LT PUSH2 0x2CC8 JUMPI PUSH2 0x100 DUP1 DUP4 SLOAD DIV MUL DUP4 MSTORE SWAP2 PUSH1 0x20 ADD SWAP2 PUSH2 0x2CF3 JUMP JUMPDEST DUP3 ADD SWAP2 SWAP1 PUSH1 0x0 MSTORE PUSH1 0x20 PUSH1 0x0 KECCAK256 SWAP1 JUMPDEST DUP2 SLOAD DUP2 MSTORE SWAP1 PUSH1 0x1 ADD SWAP1 PUSH1 0x20 ADD DUP1 DUP4 GT PUSH2 0x2CD6 JUMPI DUP3 SWAP1 SUB PUSH1 0x1F AND DUP3 ADD SWAP2 JUMPDEST POP POP POP POP POP SWAP1 DUP1 PUSH1 0x2 ADD DUP1 SLOAD PUSH2 0x2D08 SWAP1 PUSH2 0x4AA5 JUMP JUMPDEST DUP1 PUSH1 0x1F ADD PUSH1 0x20 DUP1 SWAP2 DIV MUL PUSH1 0x20 ADD PUSH1 0x40 MLOAD SWAP1 DUP2 ADD PUSH1 0x40 MSTORE DUP1 SWAP3 SWAP2 SWAP1 DUP2 DUP2 MSTORE PUSH1 0x20 ADD DUP3 DUP1 SLOAD PUSH2 0x2D34 SWAP1 PUSH2 0x4AA5 JUMP JUMPDEST DUP1 ISZERO PUSH2 0x2D81 JUMPI DUP1 PUSH1 0x1F LT PUSH2 0x2D56 JUMPI PUSH2 0x100 DUP1 DUP4 SLOAD DIV MUL DUP4 MSTORE SWAP2 PUSH1 0x20 ADD SWAP2 PUSH2 0x2D81 JUMP JUMPDEST DUP3 ADD SWAP2 SWAP1 PUSH1 0x0 MSTORE PUSH1 0x20 PUSH1 0x0 KECCAK256 SWAP1 JUMPDEST DUP2 SLOAD DUP2 MSTORE SWAP1 PUSH1 0x1 ADD SWAP1 PUSH1 0x20 ADD DUP1 DUP4 GT PUSH2 0x2D64 JUMPI DUP3 SWAP1 SUB PUSH1 0x1F AND DUP3 ADD SWAP2 JUMPDEST POP POP POP POP POP SWAP1 DUP1 PUSH1 0x3 ADD DUP1 SLOAD PUSH2 0x2D96 SWAP1 PUSH2 0x4AA5 JUMP JUMPDEST DUP1 PUSH1 0x1F ADD PUSH1 0x20 DUP1 SWAP2 DIV MUL PUSH1 0x20 ADD PUSH1 0x40 MLOAD SWAP1 DUP2 ADD PUSH1 0x40 MSTORE DUP1 SWAP3 SWAP2 SWAP1 DUP2 DUP2 MSTORE PUSH1 0x20 ADD DUP3 DUP1 SLOAD PUSH2 0x2DC2 SWAP1 PUSH2 0x4AA5 JUMP JUMPDEST DUP1 ISZERO PUSH2 0x2E0F JUMPI DUP1 PUSH1 0x1F LT PUSH2 0x2DE4 JUMPI PUSH2 0x100 DUP1 DUP4 SLOAD DIV MUL DUP4 MSTORE SWAP2 PUSH1 0x20 ADD SWAP2 PUSH2 0x2E0F JUMP JUMPDEST DUP3 ADD SWAP2 SWAP1 PUSH1 0x0 MSTORE PUSH1 0x20 PUSH1 0x0 KECCAK256 SWAP1 JUMPDEST DUP2 SLOAD DUP2 MSTORE SWAP1 PUSH1 0x1 ADD SWAP1 PUSH1 0x20 ADD DUP1 DUP4 GT PUSH2 0x2DF2 JUMPI DUP3 SWAP1 SUB PUSH1 0x1F AND DUP3 ADD SWAP2 JUMPDEST POP POP POP POP POP SWAP1 DUP1 PUSH1 0x4 ADD DUP1 SLOAD PUSH2 0x2E24 SWAP1 PUSH2 0x4AA5 JUMP JUMPDEST DUP1 PUSH1 0x1F ADD PUSH1 0x20 DUP1 SWAP2 DIV MUL PUSH1 0x20 ADD PUSH1 0x40 MLOAD SWAP1 DUP2 ADD PUSH1 0x40 MSTORE DUP1 SWAP3 SWAP2 SWAP1 DUP2 DUP2 MSTORE PUSH1 0x20 ADD DUP3 DUP1 SLOAD PUSH2 0x2E50 SWAP1 PUSH2 0x4AA5 JUMP JUMPDEST DUP1 ISZERO PUSH2 0x2E9D JUMPI DUP1 PUSH1 0x1F LT PUSH2 0x2E72 JUMPI PUSH2 0x100 DUP1 DUP4 SLOAD DIV MUL DUP4 MSTORE SWAP2 PUSH1 0x20 ADD SWAP2 PUSH2 0x2E9D JUMP JUMPDEST DUP3 ADD SWAP2 SWAP1 PUSH1 0x0 MSTORE PUSH1 0x20 PUSH1 0x0 KECCAK256 SWAP1 JUMPDEST DUP2 SLOAD DUP2 MSTORE SWAP1 PUSH1 0x1 ADD SWAP1 PUSH1 0x20 ADD DUP1 DUP4 GT PUSH2 0x2E80 JUMPI DUP3 SWAP1 SUB PUSH1 0x1F AND DUP3 ADD SWAP2 JUMPDEST POP POP POP POP POP SWAP1 DUP1 PUSH1 0x5 ADD DUP1 SLOAD PUSH2 0x2EB2 SWAP1 PUSH2 0x4AA5 JUMP JUMPDEST DUP1 PUSH1 0x1F ADD PUSH1 0x20 DUP1 SWAP2 DIV MUL PUSH1 0x20 ADD PUSH1 0x40 MLOAD SWAP1 DUP2 ADD PUSH1 0x40 MSTORE DUP1 SWAP3 SWAP2 SWAP1 DUP2 DUP2 MSTORE PUSH1 0x20 ADD DUP3 DUP1 SLOAD PUSH2 0x2EDE SWAP1 PUSH2 0x4AA5 JUMP JUMPDEST DUP1 ISZERO PUSH2 0x2F2B JUMPI DUP1 PUSH1 0x1F LT PUSH2 0x2F00 JUMPI PUSH2 0x100 DUP1 DUP4 SLOAD DIV MUL DUP4 MSTORE SWAP2 PUSH1 0x20 ADD SWAP2 PUSH2 0x2F2B JUMP JUMPDEST DUP3 ADD SWAP2 SWAP1 PUSH1 0x0 MSTORE PUSH1 0x20 PUSH1 0x0 KECCAK256 SWAP1 JUMPDEST DUP2 SLOAD DUP2 MSTORE SWAP1 PUSH1 0x1 ADD SWAP1 PUSH1 0x20 ADD DUP1 DUP4 GT PUSH2 0x2F0E JUMPI DUP3 SWAP1 SUB PUSH1 0x1F AND DUP3 ADD SWAP2 JUMPDEST POP POP POP POP POP SWAP1 DUP1 PUSH1 0x6 ADD DUP1 SLOAD PUSH2 0x2F40 SWAP1 PUSH2 0x4AA5 JUMP JUMPDEST DUP1 PUSH1 0x1F ADD PUSH1 0x20 DUP1 SWAP2 DIV MUL PUSH1 0x20 ADD PUSH1 0x40 MLOAD SWAP1 DUP2 ADD PUSH1 0x40 MSTORE DUP1 SWAP3 SWAP2 SWAP1 DUP2 DUP2 MSTORE PUSH1 0x20 ADD DUP3 DUP1 SLOAD PUSH2 0x2F6C SWAP1 PUSH2 0x4AA5 JUMP JUMPDEST DUP1 ISZERO PUSH2 0x2FB9 JUMPI DUP1 PUSH1 0x1F LT PUSH2 0x2F8E JUMPI PUSH2 0x100 DUP1 DUP4 SLOAD DIV MUL DUP4 MSTORE SWAP2 PUSH1 0x20 ADD SWAP2 PUSH2 0x2FB9 JUMP JUMPDEST DUP3 ADD SWAP2 SWAP1 PUSH1 0x0 MSTORE PUSH1 0x20 PUSH1 0x0 KECCAK256 SWAP1 JUMPDEST DUP2 SLOAD DUP2 MSTORE SWAP1 PUSH1 0x1 ADD SWAP1 PUSH1 0x20 ADD DUP1 DUP4 GT PUSH2 0x2F9C JUMPI DUP3 SWAP1 SUB PUSH1 0x1F AND DUP3 ADD SWAP2 JUMPDEST POP POP POP POP POP SWAP1 DUP1 PUSH1 0x7 ADD DUP1 SLOAD PUSH2 0x2FCE SWAP1 PUSH2 0x4AA5 JUMP JUMPDEST DUP1 PUSH1 0x1F ADD PUSH1 0x20 DUP1 SWAP2 DIV MUL PUSH1 0x20 ADD PUSH1 0x40 MLOAD SWAP1 DUP2 ADD PUSH1 0x40 MSTORE DUP1 SWAP3 SWAP2 SWAP1 DUP2 DUP2 MSTORE PUSH1 0x20 ADD DUP3 DUP1 SLOAD PUSH2 0x2FFA SWAP1 PUSH2 0x4AA5 JUMP JUMPDEST DUP1 ISZERO PUSH2 0x3047 JUMPI DUP1 PUSH1 0x1F LT PUSH2 0x301C JUMPI PUSH2 0x100 DUP1 DUP4 SLOAD DIV MUL DUP4 MSTORE SWAP2 PUSH1 0x20 ADD SWAP2 PUSH2 0x3047 JUMP JUMPDEST DUP3 ADD SWAP2 SWAP1 PUSH1 0x0 MSTORE PUSH1 0x20 PUSH1 0x0 KECCAK256 SWAP1 JUMPDEST DUP2 SLOAD DUP2 MSTORE SWAP1 PUSH1 0x1 ADD SWAP1 PUSH1 0x20 ADD DUP1 DUP4 GT PUSH2 0x302A JUMPI DUP3 SWAP1 SUB PUSH1 0x1F AND DUP3 ADD SWAP2 JUMPDEST POP POP POP POP POP SWAP1 DUP1 PUSH1 0x8 ADD DUP1 SLOAD PUSH2 0x305C SWAP1 PUSH2 0x4AA5 JUMP JUMPDEST DUP1 PUSH1 0x1F ADD PUSH1 0x20 DUP1 SWAP2 DIV MUL PUSH1 0x20 ADD PUSH1 0x40 MLOAD SWAP1 DUP2 ADD PUSH1 0x40 MSTORE DUP1 SWAP3 SWAP2 SWAP1 DUP2 DUP2 MSTORE PUSH1 0x20 ADD DUP3 DUP1 SLOAD PUSH2 0x3088 SWAP1 PUSH2 0x4AA5 JUMP JUMPDEST DUP1 ISZERO PUSH2 0x30D5 JUMPI DUP1 PUSH1 0x1F LT PUSH2 0x30AA JUMPI PUSH2 0x100 DUP1 DUP4 SLOAD DIV MUL DUP4 MSTORE SWAP2 PUSH1 0x20 ADD SWAP2 PUSH2 0x30D5 JUMP JUMPDEST DUP3 ADD SWAP2 SWAP1 PUSH1 0x0 MSTORE PUSH1 0x20 PUSH1 0x0 KECCAK256 SWAP1 JUMPDEST DUP2 SLOAD DUP2 MSTORE SWAP1 PUSH1 0x1 ADD SWAP1 PUSH1 0x20 ADD DUP1 DUP4 GT PUSH2 0x30B8 JUMPI DUP3 SWAP1 SUB PUSH1 0x1F AND DUP3 ADD SWAP2 JUMPDEST POP POP POP POP POP SWAP1 POP DUP10 JUMP JUMPDEST DUP1 PUSH1 0xD PUSH1 0x0 DUP5 DUP2 MSTORE PUSH1 0x20 ADD SWAP1 DUP2 MSTORE PUSH1 0x20 ADD PUSH1 0x0 KECCAK256 SWAP1 DUP1 MLOAD SWAP1 PUSH1 0x20 ADD SWAP1 PUSH2 0x3106 SWAP3 SWAP2 SWAP1 PUSH2 0x3631 JUMP JUMPDEST POP POP POP JUMP JUMPDEST PUSH1 0x10 PUSH1 0x20 MSTORE DUP1 PUSH1 0x0 MSTORE PUSH1 0x40 PUSH1 0x0 KECCAK256 PUSH1 0x0 SWAP2 POP SWAP1 POP DUP1 PUSH1 0x0 ADD DUP1 SLOAD PUSH2 0x312E SWAP1 PUSH2 0x4AA5 JUMP JUMPDEST DUP1 PUSH1 0x1F ADD PUSH1 0x20 DUP1 SWAP2 DIV MUL PUSH1 0x20 ADD PUSH1 0x40 MLOAD SWAP1 DUP2 ADD PUSH1 0x40 MSTORE DUP1 SWAP3 SWAP2 SWAP1 DUP2 DUP2 MSTORE PUSH1 0x20 ADD DUP3 DUP1 SLOAD PUSH2 0x315A SWAP1 PUSH2 0x4AA5 JUMP JUMPDEST DUP1 ISZERO PUSH2 0x31A7 JUMPI DUP1 PUSH1 0x1F LT PUSH2 0x317C JUMPI PUSH2 0x100 DUP1 DUP4 SLOAD DIV MUL DUP4 MSTORE SWAP2 PUSH1 0x20 ADD SWAP2 PUSH2 0x31A7 JUMP JUMPDEST DUP3 ADD SWAP2 SWAP1 PUSH1 0x0 MSTORE PUSH1 0x20 PUSH1 0x0 KECCAK256 SWAP1 JUMPDEST DUP2 SLOAD DUP2 MSTORE SWAP1 PUSH1 0x1 ADD SWAP1 PUSH1 0x20 ADD DUP1 DUP4 GT PUSH2 0x318A JUMPI DUP3 SWAP1 SUB PUSH1 0x1F AND DUP3 ADD SWAP2 JUMPDEST POP POP POP POP POP SWAP1 DUP1 PUSH1 0x1 ADD DUP1 SLOAD PUSH2 0x31BC SWAP1 PUSH2 0x4AA5 JUMP JUMPDEST DUP1 PUSH1 0x1F ADD PUSH1 0x20 DUP1 SWAP2 DIV MUL PUSH1 0x20 ADD PUSH1 0x40 MLOAD SWAP1 DUP2 ADD PUSH1 0x40 MSTORE DUP1 SWAP3 SWAP2 SWAP1 DUP2 DUP2 MSTORE PUSH1 0x20 ADD DUP3 DUP1 SLOAD PUSH2 0x31E8 SWAP1 PUSH2 0x4AA5 JUMP JUMPDEST DUP1 ISZERO PUSH2 0x3235 JUMPI DUP1 PUSH1 0x1F LT PUSH2 0x320A JUMPI PUSH2 0x100 DUP1 DUP4 SLOAD DIV MUL DUP4 MSTORE SWAP2 PUSH1 0x20 ADD SWAP2 PUSH2 0x3235 JUMP JUMPDEST DUP3 ADD SWAP2 SWAP1 PUSH1 0x0 MSTORE PUSH1 0x20 PUSH1 0x0 KECCAK256 SWAP1 JUMPDEST DUP2 SLOAD DUP2 MSTORE SWAP1 PUSH1 0x1 ADD SWAP1 PUSH1 0x20 ADD DUP1 DUP4 GT PUSH2 0x3218 JUMPI DUP3 SWAP1 SUB PUSH1 0x1F AND DUP3 ADD SWAP2 JUMPDEST POP POP POP POP POP SWAP1 POP DUP3 JUMP JUMPDEST PUSH1 0x13 PUSH1 0x20 MSTORE DUP1 PUSH1 0x0 MSTORE PUSH1 0x40 PUSH1 0x0 KECCAK256 PUSH1 0x0 SWAP2 POP SWAP1 POP DUP1 PUSH1 0x0 ADD SLOAD SWAP1 DUP1 PUSH1 0x1 ADD SLOAD SWAP1 DUP1 PUSH1 0x2 ADD SLOAD SWAP1 DUP1 PUSH1 0x3 ADD DUP1 SLOAD PUSH2 0x3274 SWAP1 PUSH2 0x4AA5 JUMP JUMPDEST DUP1 PUSH1 0x1F ADD PUSH1 0x20 DUP1 SWAP2 DIV MUL PUSH1 0x20 ADD PUSH1 0x40 MLOAD SWAP1 DUP2 ADD PUSH1 0x40 MSTORE DUP1 SWAP3 SWAP2 SWAP1 DUP2 DUP2 MSTORE PUSH1 0x20 ADD DUP3 DUP1 SLOAD PUSH2 0x32A0 SWAP1 PUSH2 0x4AA5 JUMP JUMPDEST DUP1 ISZERO PUSH2 0x32ED JUMPI DUP1 PUSH1 0x1F LT PUSH2 0x32C2 JUMPI PUSH2 0x100 DUP1 DUP4 SLOAD DIV MUL DUP4 MSTORE SWAP2 PUSH1 0x20 ADD SWAP2 PUSH2 0x32ED JUMP JUMPDEST DUP3 ADD SWAP2 SWAP1 PUSH1 0x0 MSTORE PUSH1 0x20 PUSH1 0x0 KECCAK256 SWAP1 JUMPDEST DUP2 SLOAD DUP2 MSTORE SWAP1 PUSH1 0x1 ADD SWAP1 PUSH1 0x20 ADD DUP1 DUP4 GT PUSH2 0x32D0 JUMPI DUP3 SWAP1 SUB PUSH1 0x1F AND DUP3 ADD SWAP2 JUMPDEST POP POP POP POP POP SWAP1 DUP1 PUSH1 0x4 ADD DUP1 SLOAD PUSH2 0x3302 SWAP1 PUSH2 0x4AA5 JUMP JUMPDEST DUP1 PUSH1 0x1F ADD PUSH1 0x20 DUP1 SWAP2 DIV MUL PUSH1 0x20 ADD PUSH1 0x40 MLOAD SWAP1 DUP2 ADD PUSH1 0x40 MSTORE DUP1 SWAP3 SWAP2 SWAP1 DUP2 DUP2 MSTORE PUSH1 0x20 ADD DUP3 DUP1 SLOAD PUSH2 0x332E SWAP1 PUSH2 0x4AA5 JUMP JUMPDEST DUP1 ISZERO PUSH2 0x337B JUMPI DUP1 PUSH1 0x1F LT PUSH2 0x3350 JUMPI PUSH2 0x100 DUP1 DUP4 SLOAD DIV MUL DUP4 MSTORE SWAP2 PUSH1 0x20 ADD SWAP2 PUSH2 0x337B JUMP JUMPDEST DUP3 ADD SWAP2 SWAP1 PUSH1 0x0 MSTORE PUSH1 0x20 PUSH1 0x0 KECCAK256 SWAP1 JUMPDEST DUP2 SLOAD DUP2 MSTORE SWAP1 PUSH1 0x1 ADD SWAP1 PUSH1 0x20 ADD DUP1 DUP4 GT PUSH2 0x335E JUMPI DUP3 SWAP1 SUB PUSH1 0x1F AND DUP3 ADD SWAP2 JUMPDEST POP POP POP POP POP SWAP1 POP DUP6 JUMP JUMPDEST PUSH1 0x60 PUSH1 0x0 JUMPDEST PUSH1 0x0 SLOAD DUP2 LT ISZERO PUSH2 0x33F1 JUMPI DUP3 DUP1 MLOAD SWAP1 PUSH1 0x20 ADD KECCAK256 PUSH1 0xA PUSH1 0x0 DUP4 DUP2 MSTORE PUSH1 0x20 ADD SWAP1 DUP2 MSTORE PUSH1 0x20 ADD PUSH1 0x0 KECCAK256 PUSH1 0x2 ADD PUSH1 0x40 MLOAD PUSH2 0x33BF SWAP2 SWAP1 PUSH2 0x4CD6 JUMP JUMPDEST PUSH1 0x40 MLOAD DUP1 SWAP2 SUB SWAP1 KECCAK256 EQ ISZERO PUSH2 0x33DE JUMPI PUSH2 0x33D6 DUP2 PUSH2 0x34D0 JUMP JUMPDEST SWAP2 POP POP PUSH2 0x342B JUMP JUMPDEST DUP1 DUP1 PUSH2 0x33E9 SWAP1 PUSH2 0x4A2D JUMP JUMPDEST SWAP2 POP POP PUSH2 0x338A JUMP JUMPDEST POP PUSH1 0x40 MLOAD DUP1 PUSH1 0x40 ADD PUSH1 0x40 MSTORE DUP1 PUSH1 0x5 DUP2 MSTORE PUSH1 0x20 ADD PUSH32 0x46616C7365000000000000000000000000000000000000000000000000000000 DUP2 MSTORE POP SWAP1 POP JUMPDEST SWAP2 SWAP1 POP JUMP JUMPDEST PUSH1 0xE PUSH1 0x20 MSTORE DUP1 PUSH1 0x0 MSTORE PUSH1 0x40 PUSH1 0x0 KECCAK256 PUSH1 0x0 SWAP2 POP SWAP1 POP DUP1 SLOAD PUSH2 0x344F SWAP1 PUSH2 0x4AA5 JUMP JUMPDEST DUP1 PUSH1 0x1F ADD PUSH1 0x20 DUP1 SWAP2 DIV MUL PUSH1 0x20 ADD PUSH1 0x40 MLOAD SWAP1 DUP2 ADD PUSH1 0x40 MSTORE DUP1 SWAP3 SWAP2 SWAP1 DUP2 DUP2 MSTORE PUSH1 0x20 ADD DUP3 DUP1 SLOAD PUSH2 0x347B SWAP1 PUSH2 0x4AA5 JUMP JUMPDEST DUP1 ISZERO PUSH2 0x34C8 JUMPI DUP1 PUSH1 0x1F LT PUSH2 0x349D JUMPI PUSH2 0x100 DUP1 DUP4 SLOAD DIV MUL DUP4 MSTORE SWAP2 PUSH1 0x20 ADD SWAP2 PUSH2 0x34C8 JUMP JUMPDEST DUP3 ADD SWAP2 SWAP1 PUSH1 0x0 MSTORE PUSH1 0x20 PUSH1 0x0 KECCAK256 SWAP1 JUMPDEST DUP2 SLOAD DUP2 MSTORE SWAP1 PUSH1 0x1 ADD SWAP1 PUSH1 0x20 ADD DUP1 DUP4 GT PUSH2 0x34AB JUMPI DUP3 SWAP1 SUB PUSH1 0x1F AND DUP3 ADD SWAP2 JUMPDEST POP POP POP POP POP DUP2 JUMP JUMPDEST PUSH1 0x60 PUSH1 0x0 DUP3 EQ ISZERO PUSH2 0x3518 JUMPI PUSH1 0x40 MLOAD DUP1 PUSH1 0x40 ADD PUSH1 0x40 MSTORE DUP1 PUSH1 0x1 DUP2 MSTORE PUSH1 0x20 ADD PUSH32 0x3000000000000000000000000000000000000000000000000000000000000000 DUP2 MSTORE POP SWAP1 POP PUSH2 0x362C JUMP JUMPDEST PUSH1 0x0 DUP3 SWAP1 POP PUSH1 0x0 JUMPDEST PUSH1 0x0 DUP3 EQ PUSH2 0x354A JUMPI DUP1 DUP1 PUSH2 0x3533 SWAP1 PUSH2 0x4A2D JUMP JUMPDEST SWAP2 POP POP PUSH1 0xA DUP3 PUSH2 0x3543 SWAP2 SWAP1 PUSH2 0x4D1C JUMP JUMPDEST SWAP2 POP PUSH2 0x3520 JUMP JUMPDEST PUSH1 0x0 DUP2 PUSH8 0xFFFFFFFFFFFFFFFF DUP2 GT ISZERO PUSH2 0x3566 JUMPI PUSH2 0x3565 PUSH2 0x3886 JUMP JUMPDEST JUMPDEST PUSH1 0x40 MLOAD SWAP1 DUP1 DUP3 MSTORE DUP1 PUSH1 0x1F ADD PUSH1 0x1F NOT AND PUSH1 0x20 ADD DUP3 ADD PUSH1 0x40 MSTORE DUP1 ISZERO PUSH2 0x3598 JUMPI DUP2 PUSH1 0x20 ADD PUSH1 0x1 DUP3 MUL DUP1 CALLDATASIZE DUP4 CALLDATACOPY DUP1 DUP3 ADD SWAP2 POP POP SWAP1 POP JUMPDEST POP SWAP1 POP JUMPDEST PUSH1 0x0 DUP6 EQ PUSH2 0x3625 JUMPI PUSH1 0x1 DUP3 PUSH2 0x35B1 SWAP2 SWAP1 PUSH2 0x4C0E JUMP JUMPDEST SWAP2 POP PUSH1 0xA DUP6 PUSH2 0x35C0 SWAP2 SWAP1 PUSH2 0x4D4D JUMP JUMPDEST PUSH1 0x30 PUSH2 0x35CC SWAP2 SWAP1 PUSH2 0x4B06 JUMP JUMPDEST PUSH1 0xF8 SHL DUP2 DUP4 DUP2 MLOAD DUP2 LT PUSH2 0x35E2 JUMPI PUSH2 0x35E1 PUSH2 0x4AD7 JUMP JUMPDEST JUMPDEST PUSH1 0x20 ADD ADD SWAP1 PUSH31 0xFFFFFFFFFFFFFFFFFFFFFFFFFFFFFFFFFFFFFFFFFFFFFFFFFFFFFFFFFFFFFF NOT AND SWAP1 DUP2 PUSH1 0x0 BYTE SWAP1 MSTORE8 POP PUSH1 0xA DUP6 PUSH2 0x361E SWAP2 SWAP1 PUSH2 0x4D1C JUMP JUMPDEST SWAP5 POP PUSH2 0x359C JUMP JUMPDEST DUP1 SWAP4 POP POP POP POP JUMPDEST SWAP2 SWAP1 POP JUMP JUMPDEST DUP3 DUP1 SLOAD PUSH2 0x363D SWAP1 PUSH2 0x4AA5 JUMP JUMPDEST SWAP1 PUSH1 0x0 MSTORE PUSH1 0x20 PUSH1 0x0 KECCAK256 SWAP1 PUSH1 0x1F ADD PUSH1 0x20 SWAP1 DIV DUP2 ADD SWAP3 DUP3 PUSH2 0x365F JUMPI PUSH1 0x0 DUP6 SSTORE PUSH2 0x36A6 JUMP JUMPDEST DUP3 PUSH1 0x1F LT PUSH2 0x3678 JUMPI DUP1 MLOAD PUSH1 0xFF NOT AND DUP4 DUP1 ADD OR DUP6 SSTORE PUSH2 0x36A6 JUMP JUMPDEST DUP3 DUP1 ADD PUSH1 0x1 ADD DUP6 SSTORE DUP3 ISZERO PUSH2 0x36A6 JUMPI SWAP2 DUP3 ADD JUMPDEST DUP3 DUP2 GT ISZERO PUSH2 0x36A5 JUMPI DUP3 MLOAD DUP3 SSTORE SWAP2 PUSH1 0x20 ADD SWAP2 SWAP1 PUSH1 0x1 ADD SWAP1 PUSH2 0x368A JUMP JUMPDEST JUMPDEST POP SWAP1 POP PUSH2 0x36B3 SWAP2 SWAP1 PUSH2 0x36B7 JUMP JUMPDEST POP SWAP1 JUMP JUMPDEST JUMPDEST DUP1 DUP3 GT ISZERO PUSH2 0x36D0 JUMPI PUSH1 0x0 DUP2 PUSH1 0x0 SWAP1 SSTORE POP PUSH1 0x1 ADD PUSH2 0x36B8 JUMP JUMPDEST POP SWAP1 JUMP JUMPDEST PUSH1 0x0 DUP2 SWAP1 POP SWAP2 SWAP1 POP JUMP JUMPDEST PUSH2 0x36E7 DUP2 PUSH2 0x36D4 JUMP JUMPDEST DUP3 MSTORE POP POP JUMP JUMPDEST PUSH1 0x0 PUSH1 0x20 DUP3 ADD SWAP1 POP PUSH2 0x3702 PUSH1 0x0 DUP4 ADD DUP5 PUSH2 0x36DE JUMP JUMPDEST SWAP3 SWAP2 POP POP JUMP JUMPDEST PUSH1 0x0 PUSH1 0x40 MLOAD SWAP1 POP SWAP1 JUMP JUMPDEST PUSH1 0x0 DUP1 REVERT JUMPDEST PUSH1 0x0 DUP1 REVERT JUMPDEST PUSH2 0x3725 DUP2 PUSH2 0x36D4 JUMP JUMPDEST DUP2 EQ PUSH2 0x3730 JUMPI PUSH1 0x0 DUP1 REVERT JUMPDEST POP JUMP JUMPDEST PUSH1 0x0 DUP2 CALLDATALOAD SWAP1 POP PUSH2 0x3742 DUP2 PUSH2 0x371C JUMP JUMPDEST SWAP3 SWAP2 POP POP JUMP JUMPDEST PUSH1 0x0 PUSH1 0x20 DUP3 DUP5 SUB SLT ISZERO PUSH2 0x375E JUMPI PUSH2 0x375D PUSH2 0x3712 JUMP JUMPDEST JUMPDEST PUSH1 0x0 PUSH2 0x376C DUP5 DUP3 DUP6 ADD PUSH2 0x3733 JUMP JUMPDEST SWAP2 POP POP SWAP3 SWAP2 POP POP JUMP JUMPDEST PUSH1 0x0 DUP2 MLOAD SWAP1 POP SWAP2 SWAP1 POP JUMP JUMPDEST PUSH1 0x0 DUP3 DUP3 MSTORE PUSH1 0x20 DUP3 ADD SWAP1 POP SWAP3 SWAP2 POP POP JUMP JUMPDEST PUSH1 0x0 JUMPDEST DUP4 DUP2 LT ISZERO PUSH2 0x37AF JUMPI DUP1 DUP3 ADD MLOAD DUP2 DUP5 ADD MSTORE PUSH1 0x20 DUP2 ADD SWAP1 POP PUSH2 0x3794 JUMP JUMPDEST DUP4 DUP2 GT ISZERO PUSH2 0x37BE JUMPI PUSH1 0x0 DUP5 DUP5 ADD MSTORE JUMPDEST POP POP POP POP JUMP JUMPDEST PUSH1 0x0 PUSH1 0x1F NOT PUSH1 0x1F DUP4 ADD AND SWAP1 POP SWAP2 SWAP1 POP JUMP JUMPDEST PUSH1 0x0 PUSH2 0x37E0 DUP3 PUSH2 0x3775 JUMP JUMPDEST PUSH2 0x37EA DUP2 DUP6 PUSH2 0x3780 JUMP JUMPDEST SWAP4 POP PUSH2 0x37FA DUP2 DUP6 PUSH1 0x20 DUP7 ADD PUSH2 0x3791 JUMP JUMPDEST PUSH2 0x3803 DUP2 PUSH2 0x37C4 JUMP JUMPDEST DUP5 ADD SWAP2 POP POP SWAP3 SWAP2 POP POP JUMP JUMPDEST PUSH1 0x0 PUSH1 0x20 DUP3 ADD SWAP1 POP DUP2 DUP2 SUB PUSH1 0x0 DUP4 ADD MSTORE PUSH2 0x3828 DUP2 DUP5 PUSH2 0x37D5 JUMP JUMPDEST SWAP1 POP SWAP3 SWAP2 POP POP JUMP JUMPDEST PUSH1 0x0 PUSH1 0x80 DUP3 ADD SWAP1 POP PUSH2 0x3845 PUSH1 0x0 DUP4 ADD DUP8 PUSH2 0x36DE JUMP JUMPDEST PUSH2 0x3852 PUSH1 0x20 DUP4 ADD DUP7 PUSH2 0x36DE JUMP JUMPDEST PUSH2 0x385F PUSH1 0x40 DUP4 ADD DUP6 PUSH2 0x36DE JUMP JUMPDEST DUP2 DUP2 SUB PUSH1 0x60 DUP4 ADD MSTORE PUSH2 0x3871 DUP2 DUP5 PUSH2 0x37D5 JUMP JUMPDEST SWAP1 POP SWAP6 SWAP5 POP POP POP POP POP JUMP JUMPDEST PUSH1 0x0 DUP1 REVERT JUMPDEST PUSH1 0x0 DUP1 REVERT JUMPDEST PUSH32 0x4E487B7100000000000000000000000000000000000000000000000000000000 PUSH1 0x0 MSTORE PUSH1 0x41 PUSH1 0x4 MSTORE PUSH1 0x24 PUSH1 0x0 REVERT JUMPDEST PUSH2 0x38BE DUP3 PUSH2 0x37C4 JUMP JUMPDEST DUP2 ADD DUP2 DUP2 LT PUSH8 0xFFFFFFFFFFFFFFFF DUP3 GT OR ISZERO PUSH2 0x38DD JUMPI PUSH2 0x38DC PUSH2 0x3886 JUMP JUMPDEST JUMPDEST DUP1 PUSH1 0x40 MSTORE POP POP POP JUMP JUMPDEST PUSH1 0x0 PUSH2 0x38F0 PUSH2 0x3708 JUMP JUMPDEST SWAP1 POP PUSH2 0x38FC DUP3 DUP3 PUSH2 0x38B5 JUMP JUMPDEST SWAP2 SWAP1 POP JUMP JUMPDEST PUSH1 0x0 PUSH8 0xFFFFFFFFFFFFFFFF DUP3 GT ISZERO PUSH2 0x391C JUMPI PUSH2 0x391B PUSH2 0x3886 JUMP JUMPDEST JUMPDEST PUSH2 0x3925 DUP3 PUSH2 0x37C4 JUMP JUMPDEST SWAP1 POP PUSH1 0x20 DUP2 ADD SWAP1 POP SWAP2 SWAP1 POP JUMP JUMPDEST DUP3 DUP2 DUP4 CALLDATACOPY PUSH1 0x0 DUP4 DUP4 ADD MSTORE POP POP POP JUMP JUMPDEST PUSH1 0x0 PUSH2 0x3954 PUSH2 0x394F DUP5 PUSH2 0x3901 JUMP JUMPDEST PUSH2 0x38E6 JUMP JUMPDEST SWAP1 POP DUP3 DUP2 MSTORE PUSH1 0x20 DUP2 ADD DUP5 DUP5 DUP5 ADD GT ISZERO PUSH2 0x3970 JUMPI PUSH2 0x396F PUSH2 0x3881 JUMP JUMPDEST JUMPDEST PUSH2 0x397B DUP5 DUP3 DUP6 PUSH2 0x3932 JUMP JUMPDEST POP SWAP4 SWAP3 POP POP POP JUMP JUMPDEST PUSH1 0x0 DUP3 PUSH1 0x1F DUP4 ADD SLT PUSH2 0x3998 JUMPI PUSH2 0x3997 PUSH2 0x387C JUMP JUMPDEST JUMPDEST DUP2 CALLDATALOAD PUSH2 0x39A8 DUP5 DUP3 PUSH1 0x20 DUP7 ADD PUSH2 0x3941 JUMP JUMPDEST SWAP2 POP POP SWAP3 SWAP2 POP POP JUMP JUMPDEST PUSH1 0x0 DUP1 PUSH1 0x0 PUSH1 0x60 DUP5 DUP7 SUB SLT ISZERO PUSH2 0x39CA JUMPI PUSH2 0x39C9 PUSH2 0x3712 JUMP JUMPDEST JUMPDEST PUSH1 0x0 PUSH2 0x39D8 DUP7 DUP3 DUP8 ADD PUSH2 0x3733 JUMP JUMPDEST SWAP4 POP POP PUSH1 0x20 DUP5 ADD CALLDATALOAD PUSH8 0xFFFFFFFFFFFFFFFF DUP2 GT ISZERO PUSH2 0x39F9 JUMPI PUSH2 0x39F8 PUSH2 0x3717 JUMP JUMPDEST JUMPDEST PUSH2 0x3A05 DUP7 DUP3 DUP8 ADD PUSH2 0x3983 JUMP JUMPDEST SWAP3 POP POP PUSH1 0x40 PUSH2 0x3A16 DUP7 DUP3 DUP8 ADD PUSH2 0x3733 JUMP JUMPDEST SWAP2 POP POP SWAP3 POP SWAP3 POP SWAP3 JUMP JUMPDEST PUSH1 0x0 PUSH1 0xE0 DUP3 ADD SWAP1 POP DUP2 DUP2 SUB PUSH1 0x0 DUP4 ADD MSTORE PUSH2 0x3A3A DUP2 DUP11 PUSH2 0x37D5 JUMP JUMPDEST SWAP1 POP PUSH2 0x3A49 PUSH1 0x20 DUP4 ADD DUP10 PUSH2 0x36DE JUMP JUMPDEST DUP2 DUP2 SUB PUSH1 0x40 DUP4 ADD MSTORE PUSH2 0x3A5B DUP2 DUP9 PUSH2 0x37D5 JUMP JUMPDEST SWAP1 POP DUP2 DUP2 SUB PUSH1 0x60 DUP4 ADD MSTORE PUSH2 0x3A6F DUP2 DUP8 PUSH2 0x37D5 JUMP JUMPDEST SWAP1 POP DUP2 DUP2 SUB PUSH1 0x80 DUP4 ADD MSTORE PUSH2 0x3A83 DUP2 DUP7 PUSH2 0x37D5 JUMP JUMPDEST SWAP1 POP DUP2 DUP2 SUB PUSH1 0xA0 DUP4 ADD MSTORE PUSH2 0x3A97 DUP2 DUP6 PUSH2 0x37D5 JUMP JUMPDEST SWAP1 POP PUSH2 0x3AA6 PUSH1 0xC0 DUP4 ADD DUP5 PUSH2 0x36DE JUMP JUMPDEST SWAP9 SWAP8 POP POP POP POP POP POP POP POP JUMP JUMPDEST PUSH1 0x0 DUP1 PUSH1 0x0 DUP1 PUSH1 0x0 PUSH1 0xA0 DUP7 DUP9 SUB SLT ISZERO PUSH2 0x3ACE JUMPI PUSH2 0x3ACD PUSH2 0x3712 JUMP JUMPDEST JUMPDEST PUSH1 0x0 PUSH2 0x3ADC DUP9 DUP3 DUP10 ADD PUSH2 0x3733 JUMP JUMPDEST SWAP6 POP POP PUSH1 0x20 DUP7 ADD CALLDATALOAD PUSH8 0xFFFFFFFFFFFFFFFF DUP2 GT ISZERO PUSH2 0x3AFD JUMPI PUSH2 0x3AFC PUSH2 0x3717 JUMP JUMPDEST JUMPDEST PUSH2 0x3B09 DUP9 DUP3 DUP10 ADD PUSH2 0x3983 JUMP JUMPDEST SWAP5 POP POP PUSH1 0x40 DUP7 ADD CALLDATALOAD PUSH8 0xFFFFFFFFFFFFFFFF DUP2 GT ISZERO PUSH2 0x3B2A JUMPI PUSH2 0x3B29 PUSH2 0x3717 JUMP JUMPDEST JUMPDEST PUSH2 0x3B36 DUP9 DUP3 DUP10 ADD PUSH2 0x3983 JUMP JUMPDEST SWAP4 POP POP PUSH1 0x60 DUP7 ADD CALLDATALOAD PUSH8 0xFFFFFFFFFFFFFFFF DUP2 GT ISZERO PUSH2 0x3B57 JUMPI PUSH2 0x3B56 PUSH2 0x3717 JUMP JUMPDEST JUMPDEST PUSH2 0x3B63 DUP9 DUP3 DUP10 ADD PUSH2 0x3983 JUMP JUMPDEST SWAP3 POP POP PUSH1 0x80 PUSH2 0x3B74 DUP9 DUP3 DUP10 ADD PUSH2 0x3733 JUMP JUMPDEST SWAP2 POP POP SWAP3 SWAP6 POP SWAP3 SWAP6 SWAP1 SWAP4 POP JUMP JUMPDEST PUSH1 0x0 DUP1 PUSH1 0x0 DUP1 PUSH1 0x0 DUP1 PUSH1 0x0 PUSH1 0xE0 DUP9 DUP11 SUB SLT ISZERO PUSH2 0x3BA0 JUMPI PUSH2 0x3B9F PUSH2 0x3712 JUMP JUMPDEST JUMPDEST PUSH1 0x0 PUSH2 0x3BAE DUP11 DUP3 DUP12 ADD PUSH2 0x3733 JUMP JUMPDEST SWAP8 POP POP PUSH1 0x20 PUSH2 0x3BBF DUP11 DUP3 DUP12 ADD PUSH2 0x3733 JUMP JUMPDEST SWAP7 POP POP PUSH1 0x40 DUP9 ADD CALLDATALOAD PUSH8 0xFFFFFFFFFFFFFFFF DUP2 GT ISZERO PUSH2 0x3BE0 JUMPI PUSH2 0x3BDF PUSH2 0x3717 JUMP JUMPDEST JUMPDEST PUSH2 0x3BEC DUP11 DUP3 DUP12 ADD PUSH2 0x3983 JUMP JUMPDEST SWAP6 POP POP PUSH1 0x60 DUP9 ADD CALLDATALOAD PUSH8 0xFFFFFFFFFFFFFFFF DUP2 GT ISZERO PUSH2 0x3C0D JUMPI PUSH2 0x3C0C PUSH2 0x3717 JUMP JUMPDEST JUMPDEST PUSH2 0x3C19 DUP11 DUP3 DUP12 ADD PUSH2 0x3983 JUMP JUMPDEST SWAP5 POP POP PUSH1 0x80 DUP9 ADD CALLDATALOAD PUSH8 0xFFFFFFFFFFFFFFFF DUP2 GT ISZERO PUSH2 0x3C3A JUMPI PUSH2 0x3C39 PUSH2 0x3717 JUMP JUMPDEST JUMPDEST PUSH2 0x3C46 DUP11 DUP3 DUP12 ADD PUSH2 0x3983 JUMP JUMPDEST SWAP4 POP POP PUSH1 0xA0 DUP9 ADD CALLDATALOAD PUSH8 0xFFFFFFFFFFFFFFFF DUP2 GT ISZERO PUSH2 0x3C67 JUMPI PUSH2 0x3C66 PUSH2 0x3717 JUMP JUMPDEST JUMPDEST PUSH2 0x3C73 DUP11 DUP3 DUP12 ADD PUSH2 0x3983 JUMP JUMPDEST SWAP3 POP POP PUSH1 0xC0 PUSH2 0x3C84 DUP11 DUP3 DUP12 ADD PUSH2 0x3733 JUMP JUMPDEST SWAP2 POP POP SWAP3 SWAP6 SWAP9 SWAP2 SWAP5 SWAP8 POP SWAP3 SWAP6 POP JUMP JUMPDEST PUSH1 0x0 DUP1 PUSH1 0x40 DUP4 DUP6 SUB SLT ISZERO PUSH2 0x3CAA JUMPI PUSH2 0x3CA9 PUSH2 0x3712 JUMP JUMPDEST JUMPDEST PUSH1 0x0 PUSH2 0x3CB8 DUP6 DUP3 DUP7 ADD PUSH2 0x3733 JUMP JUMPDEST SWAP3 POP POP PUSH1 0x20 PUSH2 0x3CC9 DUP6 DUP3 DUP7 ADD PUSH2 0x3733 JUMP JUMPDEST SWAP2 POP POP SWAP3 POP SWAP3 SWAP1 POP JUMP JUMPDEST PUSH1 0x0 DUP1 PUSH1 0x0 DUP1 PUSH1 0x80 DUP6 DUP8 SUB SLT ISZERO PUSH2 0x3CED JUMPI PUSH2 0x3CEC PUSH2 0x3712 JUMP JUMPDEST JUMPDEST PUSH1 0x0 PUSH2 0x3CFB DUP8 DUP3 DUP9 ADD PUSH2 0x3733 JUMP JUMPDEST SWAP5 POP POP PUSH1 0x20 DUP6 ADD CALLDATALOAD PUSH8 0xFFFFFFFFFFFFFFFF DUP2 GT ISZERO PUSH2 0x3D1C JUMPI PUSH2 0x3D1B PUSH2 0x3717 JUMP JUMPDEST JUMPDEST PUSH2 0x3D28 DUP8 DUP3 DUP9 ADD PUSH2 0x3983 JUMP JUMPDEST SWAP4 POP POP PUSH1 0x40 PUSH2 0x3D39 DUP8 DUP3 DUP9 ADD PUSH2 0x3733 JUMP JUMPDEST SWAP3 POP POP PUSH1 0x60 PUSH2 0x3D4A DUP8 DUP3 DUP9 ADD PUSH2 0x3733 JUMP JUMPDEST SWAP2 POP POP SWAP3 SWAP6 SWAP2 SWAP5 POP SWAP3 POP JUMP JUMPDEST PUSH1 0x0 DUP2 MLOAD SWAP1 POP SWAP2 SWAP1 POP JUMP JUMPDEST PUSH1 0x0 DUP3 DUP3 MSTORE PUSH1 0x20 DUP3 ADD SWAP1 POP SWAP3 SWAP2 POP POP JUMP JUMPDEST PUSH1 0x0 DUP2 SWAP1 POP PUSH1 0x20 DUP3 ADD SWAP1 POP SWAP2 SWAP1 POP JUMP JUMPDEST PUSH2 0x3D8B DUP2 PUSH2 0x36D4 JUMP JUMPDEST DUP3 MSTORE POP POP JUMP JUMPDEST PUSH1 0x0 PUSH2 0x3D9D DUP4 DUP4 PUSH2 0x3D82 JUMP JUMPDEST PUSH1 0x20 DUP4 ADD SWAP1 POP SWAP3 SWAP2 POP POP JUMP JUMPDEST PUSH1 0x0 PUSH1 0x20 DUP3 ADD SWAP1 POP SWAP2 SWAP1 POP JUMP JUMPDEST PUSH1 0x0 PUSH2 0x3DC1 DUP3 PUSH2 0x3D56 JUMP JUMPDEST PUSH2 0x3DCB DUP2 DUP6 PUSH2 0x3D61 JUMP JUMPDEST SWAP4 POP PUSH2 0x3DD6 DUP4 PUSH2 0x3D72 JUMP JUMPDEST DUP1 PUSH1 0x0 JUMPDEST DUP4 DUP2 LT ISZERO PUSH2 0x3E07 JUMPI DUP2 MLOAD PUSH2 0x3DEE DUP9 DUP3 PUSH2 0x3D91 JUMP JUMPDEST SWAP8 POP PUSH2 0x3DF9 DUP4 PUSH2 0x3DA9 JUMP JUMPDEST SWAP3 POP POP PUSH1 0x1 DUP2 ADD SWAP1 POP PUSH2 0x3DDA JUMP JUMPDEST POP DUP6 SWAP4 POP POP POP POP SWAP3 SWAP2 POP POP JUMP JUMPDEST PUSH1 0x0 PUSH1 0x20 DUP3 ADD SWAP1 POP DUP2 DUP2 SUB PUSH1 0x0 DUP4 ADD MSTORE PUSH2 0x3E2E DUP2 DUP5 PUSH2 0x3DB6 JUMP JUMPDEST SWAP1 POP SWAP3 SWAP2 POP POP JUMP JUMPDEST PUSH1 0x0 DUP1 PUSH1 0x40 DUP4 DUP6 SUB SLT ISZERO PUSH2 0x3E4D JUMPI PUSH2 0x3E4C PUSH2 0x3712 JUMP JUMPDEST JUMPDEST PUSH1 0x0 DUP4 ADD CALLDATALOAD PUSH8 0xFFFFFFFFFFFFFFFF DUP2 GT ISZERO PUSH2 0x3E6B JUMPI PUSH2 0x3E6A PUSH2 0x3717 JUMP JUMPDEST JUMPDEST PUSH2 0x3E77 DUP6 DUP3 DUP7 ADD PUSH2 0x3983 JUMP JUMPDEST SWAP3 POP POP PUSH1 0x20 DUP4 ADD CALLDATALOAD PUSH8 0xFFFFFFFFFFFFFFFF DUP2 GT ISZERO PUSH2 0x3E98 JUMPI PUSH2 0x3E97 PUSH2 0x3717 JUMP JUMPDEST JUMPDEST PUSH2 0x3EA4 DUP6 DUP3 DUP7 ADD PUSH2 0x3983 JUMP JUMPDEST SWAP2 POP POP SWAP3 POP SWAP3 SWAP1 POP JUMP JUMPDEST PUSH1 0x0 DUP1 PUSH1 0x40 DUP4 DUP6 SUB SLT ISZERO PUSH2 0x3EC5 JUMPI PUSH2 0x3EC4 PUSH2 0x3712 JUMP JUMPDEST JUMPDEST PUSH1 0x0 PUSH2 0x3ED3 DUP6 DUP3 DUP7 ADD PUSH2 0x3733 JUMP JUMPDEST SWAP3 POP POP PUSH1 0x20 DUP4 ADD CALLDATALOAD PUSH8 0xFFFFFFFFFFFFFFFF DUP2 GT ISZERO PUSH2 0x3EF4 JUMPI PUSH2 0x3EF3 PUSH2 0x3717 JUMP JUMPDEST JUMPDEST PUSH2 0x3F00 DUP6 DUP3 DUP7 ADD PUSH2 0x3983 JUMP JUMPDEST SWAP2 POP POP SWAP3 POP SWAP3 SWAP1 POP JUMP JUMPDEST PUSH1 0x0 DUP1 PUSH1 0x0 DUP1 PUSH1 0x0 DUP1 PUSH1 0xC0 DUP8 DUP10 SUB SLT ISZERO PUSH2 0x3F27 JUMPI PUSH2 0x3F26 PUSH2 0x3712 JUMP JUMPDEST JUMPDEST PUSH1 0x0 PUSH2 0x3F35 DUP10 DUP3 DUP11 ADD PUSH2 0x3733 JUMP JUMPDEST SWAP7 POP POP PUSH1 0x20 PUSH2 0x3F46 DUP10 DUP3 DUP11 ADD PUSH2 0x3733 JUMP JUMPDEST SWAP6 POP POP PUSH1 0x40 PUSH2 0x3F57 DUP10 DUP3 DUP11 ADD PUSH2 0x3733 JUMP JUMPDEST SWAP5 POP POP PUSH1 0x60 DUP8 ADD CALLDATALOAD PUSH8 0xFFFFFFFFFFFFFFFF DUP2 GT ISZERO PUSH2 0x3F78 JUMPI PUSH2 0x3F77 PUSH2 0x3717 JUMP JUMPDEST JUMPDEST PUSH2 0x3F84 DUP10 DUP3 DUP11 ADD PUSH2 0x3983 JUMP JUMPDEST SWAP4 POP POP PUSH1 0x80 DUP8 ADD CALLDATALOAD PUSH8 0xFFFFFFFFFFFFFFFF DUP2 GT ISZERO PUSH2 0x3FA5 JUMPI PUSH2 0x3FA4 PUSH2 0x3717 JUMP JUMPDEST JUMPDEST PUSH2 0x3FB1 DUP10 DUP3 DUP11 ADD PUSH2 0x3983 JUMP JUMPDEST SWAP3 POP POP PUSH1 0xA0 DUP8 ADD CALLDATALOAD PUSH8 0xFFFFFFFFFFFFFFFF DUP2 GT ISZERO PUSH2 0x3FD2 JUMPI PUSH2 0x3FD1 PUSH2 0x3717 JUMP JUMPDEST JUMPDEST PUSH2 0x3FDE DUP10 DUP3 DUP11 ADD PUSH2 0x3983 JUMP JUMPDEST SWAP2 POP POP SWAP3 SWAP6 POP SWAP3 SWAP6 POP SWAP3 SWAP6 JUMP JUMPDEST PUSH1 0x0 DUP1 PUSH1 0x0 DUP1 PUSH1 0x80 DUP6 DUP8 SUB SLT ISZERO PUSH2 0x4005 JUMPI PUSH2 0x4004 PUSH2 0x3712 JUMP JUMPDEST JUMPDEST PUSH1 0x0 PUSH2 0x4013 DUP8 DUP3 DUP9 ADD PUSH2 0x3733 JUMP JUMPDEST SWAP5 POP POP PUSH1 0x20 PUSH2 0x4024 DUP8 DUP3 DUP9 ADD PUSH2 0x3733 JUMP JUMPDEST SWAP4 POP POP PUSH1 0x40 DUP6 ADD CALLDATALOAD PUSH8 0xFFFFFFFFFFFFFFFF DUP2 GT ISZERO PUSH2 0x4045 JUMPI PUSH2 0x4044 PUSH2 0x3717 JUMP JUMPDEST JUMPDEST PUSH2 0x4051 DUP8 DUP3 DUP9 ADD PUSH2 0x3983 JUMP JUMPDEST SWAP3 POP POP PUSH1 0x60 PUSH2 0x4062 DUP8 DUP3 DUP9 ADD PUSH2 0x3733 JUMP JUMPDEST SWAP2 POP POP SWAP3 SWAP6 SWAP2 SWAP5 POP SWAP3 POP JUMP JUMPDEST PUSH1 0x0 PUSH1 0xA0 DUP3 ADD SWAP1 POP PUSH2 0x4083 PUSH1 0x0 DUP4 ADD DUP9 PUSH2 0x36DE JUMP JUMPDEST PUSH2 0x4090 PUSH1 0x20 DUP4 ADD DUP8 PUSH2 0x36DE JUMP JUMPDEST PUSH2 0x409D PUSH1 0x40 DUP4 ADD DUP7 PUSH2 0x36DE JUMP JUMPDEST PUSH2 0x40AA PUSH1 0x60 DUP4 ADD DUP6 PUSH2 0x36DE JUMP JUMPDEST DUP2 DUP2 SUB PUSH1 0x80 DUP4 ADD MSTORE PUSH2 0x40BC DUP2 DUP5 PUSH2 0x37D5 JUMP JUMPDEST SWAP1 POP SWAP7 SWAP6 POP POP POP POP POP POP JUMP JUMPDEST PUSH1 0x0 DUP1 PUSH1 0x0 DUP1 PUSH1 0x80 DUP6 DUP8 SUB SLT ISZERO PUSH2 0x40E2 JUMPI PUSH2 0x40E1 PUSH2 0x3712 JUMP JUMPDEST JUMPDEST PUSH1 0x0 PUSH2 0x40F0 DUP8 DUP3 DUP9 ADD PUSH2 0x3733 JUMP JUMPDEST SWAP5 POP POP PUSH1 0x20 PUSH2 0x4101 DUP8 DUP3 DUP9 ADD PUSH2 0x3733 JUMP JUMPDEST SWAP4 POP POP PUSH1 0x40 DUP6 ADD CALLDATALOAD PUSH8 0xFFFFFFFFFFFFFFFF DUP2 GT ISZERO PUSH2 0x4122 JUMPI PUSH2 0x4121 PUSH2 0x3717 JUMP JUMPDEST JUMPDEST PUSH2 0x412E DUP8 DUP3 DUP9 ADD PUSH2 0x3983 JUMP JUMPDEST SWAP3 POP POP PUSH1 0x60 DUP6 ADD CALLDATALOAD PUSH8 0xFFFFFFFFFFFFFFFF DUP2 GT ISZERO PUSH2 0x414F JUMPI PUSH2 0x414E PUSH2 0x3717 JUMP JUMPDEST JUMPDEST PUSH2 0x415B DUP8 DUP3 DUP9 ADD PUSH2 0x3983 JUMP JUMPDEST SWAP2 POP POP SWAP3 SWAP6 SWAP2 SWAP5 POP SWAP3 POP JUMP JUMPDEST PUSH1 0x0 DUP1 PUSH1 0x0 DUP1 PUSH1 0x0 DUP1 PUSH1 0x0 DUP1 PUSH2 0x100 DUP10 DUP12 SUB SLT ISZERO PUSH2 0x4188 JUMPI PUSH2 0x4187 PUSH2 0x3712 JUMP JUMPDEST JUMPDEST PUSH1 0x0 PUSH2 0x4196 DUP12 DUP3 DUP13 ADD PUSH2 0x3733 JUMP JUMPDEST SWAP9 POP POP PUSH1 0x20 DUP10 ADD CALLDATALOAD PUSH8 0xFFFFFFFFFFFFFFFF DUP2 GT ISZERO PUSH2 0x41B7 JUMPI PUSH2 0x41B6 PUSH2 0x3717 JUMP JUMPDEST JUMPDEST PUSH2 0x41C3 DUP12 DUP3 DUP13 ADD PUSH2 0x3983 JUMP JUMPDEST SWAP8 POP POP PUSH1 0x40 DUP10 ADD CALLDATALOAD PUSH8 0xFFFFFFFFFFFFFFFF DUP2 GT ISZERO PUSH2 0x41E4 JUMPI PUSH2 0x41E3 PUSH2 0x3717 JUMP JUMPDEST JUMPDEST PUSH2 0x41F0 DUP12 DUP3 DUP13 ADD PUSH2 0x3983 JUMP JUMPDEST SWAP7 POP POP PUSH1 0x60 DUP10 ADD CALLDATALOAD PUSH8 0xFFFFFFFFFFFFFFFF DUP2 GT ISZERO PUSH2 0x4211 JUMPI PUSH2 0x4210 PUSH2 0x3717 JUMP JUMPDEST JUMPDEST PUSH2 0x421D DUP12 DUP3 DUP13 ADD PUSH2 0x3983 JUMP JUMPDEST SWAP6 POP POP PUSH1 0x80 DUP10 ADD CALLDATALOAD PUSH8 0xFFFFFFFFFFFFFFFF DUP2 GT ISZERO PUSH2 0x423E JUMPI PUSH2 0x423D PUSH2 0x3717 JUMP JUMPDEST JUMPDEST PUSH2 0x424A DUP12 DUP3 DUP13 ADD PUSH2 0x3983 JUMP JUMPDEST SWAP5 POP POP PUSH1 0xA0 PUSH2 0x425B DUP12 DUP3 DUP13 ADD PUSH2 0x3733 JUMP JUMPDEST SWAP4 POP POP PUSH1 0xC0 PUSH2 0x426C DUP12 DUP3 DUP13 ADD PUSH2 0x3733 JUMP JUMPDEST SWAP3 POP POP PUSH1 0xE0 PUSH2 0x427D DUP12 DUP3 DUP13 ADD PUSH2 0x3733 JUMP JUMPDEST SWAP2 POP POP SWAP3 SWAP6 SWAP9 POP SWAP3 SWAP6 SWAP9 SWAP1 SWAP4 SWAP7 POP JUMP JUMPDEST PUSH1 0x0 DUP1 PUSH1 0x0 DUP1 PUSH1 0x0 DUP1 PUSH1 0x0 DUP1 PUSH1 0x0 DUP1 PUSH2 0x140 DUP12 DUP14 SUB SLT ISZERO PUSH2 0x42B1 JUMPI PUSH2 0x42B0 PUSH2 0x3712 JUMP JUMPDEST JUMPDEST PUSH1 0x0 PUSH2 0x42BF DUP14 DUP3 DUP15 ADD PUSH2 0x3733 JUMP JUMPDEST SWAP11 POP POP PUSH1 0x20 DUP12 ADD CALLDATALOAD PUSH8 0xFFFFFFFFFFFFFFFF DUP2 GT ISZERO PUSH2 0x42E0 JUMPI PUSH2 0x42DF PUSH2 0x3717 JUMP JUMPDEST JUMPDEST PUSH2 0x42EC DUP14 DUP3 DUP15 ADD PUSH2 0x3983 JUMP JUMPDEST SWAP10 POP POP PUSH1 0x40 DUP12 ADD CALLDATALOAD PUSH8 0xFFFFFFFFFFFFFFFF DUP2 GT ISZERO PUSH2 0x430D JUMPI PUSH2 0x430C PUSH2 0x3717 JUMP JUMPDEST JUMPDEST PUSH2 0x4319 DUP14 DUP3 DUP15 ADD PUSH2 0x3983 JUMP JUMPDEST SWAP9 POP POP PUSH1 0x60 DUP12 ADD CALLDATALOAD PUSH8 0xFFFFFFFFFFFFFFFF DUP2 GT ISZERO PUSH2 0x433A JUMPI PUSH2 0x4339 PUSH2 0x3717 JUMP JUMPDEST JUMPDEST PUSH2 0x4346 DUP14 DUP3 DUP15 ADD PUSH2 0x3983 JUMP JUMPDEST SWAP8 POP POP PUSH1 0x80 DUP12 ADD CALLDATALOAD PUSH8 0xFFFFFFFFFFFFFFFF DUP2 GT ISZERO PUSH2 0x4367 JUMPI PUSH2 0x4366 PUSH2 0x3717 JUMP JUMPDEST JUMPDEST PUSH2 0x4373 DUP14 DUP3 DUP15 ADD PUSH2 0x3983 JUMP JUMPDEST SWAP7 POP POP PUSH1 0xA0 DUP12 ADD CALLDATALOAD PUSH8 0xFFFFFFFFFFFFFFFF DUP2 GT ISZERO PUSH2 0x4394 JUMPI PUSH2 0x4393 PUSH2 0x3717 JUMP JUMPDEST JUMPDEST PUSH2 0x43A0 DUP14 DUP3 DUP15 ADD PUSH2 0x3983 JUMP JUMPDEST SWAP6 POP POP PUSH1 0xC0 DUP12 ADD CALLDATALOAD PUSH8 0xFFFFFFFFFFFFFFFF DUP2 GT ISZERO PUSH2 0x43C1 JUMPI PUSH2 0x43C0 PUSH2 0x3717 JUMP JUMPDEST JUMPDEST PUSH2 0x43CD DUP14 DUP3 DUP15 ADD PUSH2 0x3983 JUMP JUMPDEST SWAP5 POP POP PUSH1 0xE0 DUP12 ADD CALLDATALOAD PUSH8 0xFFFFFFFFFFFFFFFF DUP2 GT ISZERO PUSH2 0x43EE JUMPI PUSH2 0x43ED PUSH2 0x3717 JUMP JUMPDEST JUMPDEST PUSH2 0x43FA DUP14 DUP3 DUP15 ADD PUSH2 0x3983 JUMP JUMPDEST SWAP4 POP POP PUSH2 0x100 DUP12 ADD CALLDATALOAD PUSH8 0xFFFFFFFFFFFFFFFF DUP2 GT ISZERO PUSH2 0x441C JUMPI PUSH2 0x441B PUSH2 0x3717 JUMP JUMPDEST JUMPDEST PUSH2 0x4428 DUP14 DUP3 DUP15 ADD PUSH2 0x3983 JUMP JUMPDEST SWAP3 POP POP PUSH2 0x120 DUP12 ADD CALLDATALOAD PUSH8 0xFFFFFFFFFFFFFFFF DUP2 GT ISZERO PUSH2 0x444A JUMPI PUSH2 0x4449 PUSH2 0x3717 JUMP JUMPDEST JUMPDEST PUSH2 0x4456 DUP14 DUP3 DUP15 ADD PUSH2 0x3983 JUMP JUMPDEST SWAP2 POP POP SWAP3 SWAP6 SWAP9 SWAP12 SWAP2 SWAP5 SWAP8 SWAP11 POP SWAP3 SWAP6 SWAP9 POP JUMP JUMPDEST PUSH1 0x0 PUSH2 0x180 DUP3 ADD SWAP1 POP PUSH2 0x447E PUSH1 0x0 DUP4 ADD DUP16 PUSH2 0x36DE JUMP JUMPDEST PUSH2 0x448B PUSH1 0x20 DUP4 ADD DUP15 PUSH2 0x36DE JUMP JUMPDEST DUP2 DUP2 SUB PUSH1 0x40 DUP4 ADD MSTORE PUSH2 0x449D DUP2 DUP14 PUSH2 0x37D5 JUMP JUMPDEST SWAP1 POP DUP2 DUP2 SUB PUSH1 0x60 DUP4 ADD MSTORE PUSH2 0x44B1 DUP2 DUP13 PUSH2 0x37D5 JUMP JUMPDEST SWAP1 POP DUP2 DUP2 SUB PUSH1 0x80 DUP4 ADD MSTORE PUSH2 0x44C5 DUP2 DUP12 PUSH2 0x37D5 JUMP JUMPDEST SWAP1 POP DUP2 DUP2 SUB PUSH1 0xA0 DUP4 ADD MSTORE PUSH2 0x44D9 DUP2 DUP11 PUSH2 0x37D5 JUMP JUMPDEST SWAP1 POP PUSH2 0x44E8 PUSH1 0xC0 DUP4 ADD DUP10 PUSH2 0x36DE JUMP JUMPDEST PUSH2 0x44F5 PUSH1 0xE0 DUP4 ADD DUP9 PUSH2 0x36DE JUMP JUMPDEST PUSH2 0x4503 PUSH2 0x100 DUP4 ADD DUP8 PUSH2 0x36DE JUMP JUMPDEST DUP2 DUP2 SUB PUSH2 0x120 DUP4 ADD MSTORE PUSH2 0x4516 DUP2 DUP7 PUSH2 0x37D5 JUMP JUMPDEST SWAP1 POP PUSH2 0x4526 PUSH2 0x140 DUP4 ADD DUP6 PUSH2 0x36DE JUMP JUMPDEST PUSH2 0x4534 PUSH2 0x160 DUP4 ADD DUP5 PUSH2 0x36DE JUMP JUMPDEST SWAP14 SWAP13 POP POP POP POP POP POP POP POP POP POP POP POP POP JUMP JUMPDEST PUSH1 0x0 PUSH20 0xFFFFFFFFFFFFFFFFFFFFFFFFFFFFFFFFFFFFFFFF DUP3 AND SWAP1 POP SWAP2 SWAP1 POP JUMP JUMPDEST PUSH1 0x0 PUSH2 0x4570 DUP3 PUSH2 0x4545 JUMP JUMPDEST SWAP1 POP SWAP2 SWAP1 POP JUMP JUMPDEST PUSH2 0x4580 DUP2 PUSH2 0x4565 JUMP JUMPDEST DUP2 EQ PUSH2 0x458B JUMPI PUSH1 0x0 DUP1 REVERT JUMPDEST POP JUMP JUMPDEST PUSH1 0x0 DUP2 CALLDATALOAD SWAP1 POP PUSH2 0x459D DUP2 PUSH2 0x4577 JUMP JUMPDEST SWAP3 SWAP2 POP POP JUMP JUMPDEST PUSH1 0x0 DUP1 PUSH1 0x0 PUSH1 0x60 DUP5 DUP7 SUB SLT ISZERO PUSH2 0x45BC JUMPI PUSH2 0x45BB PUSH2 0x3712 JUMP JUMPDEST JUMPDEST PUSH1 0x0 PUSH2 0x45CA DUP7 DUP3 DUP8 ADD PUSH2 0x3733 JUMP JUMPDEST SWAP4 POP POP PUSH1 0x20 PUSH2 0x45DB DUP7 DUP3 DUP8 ADD PUSH2 0x3733 JUMP JUMPDEST SWAP3 POP POP PUSH1 0x40 PUSH2 0x45EC DUP7 DUP3 DUP8 ADD PUSH2 0x458E JUMP JUMPDEST SWAP2 POP POP SWAP3 POP SWAP3 POP SWAP3 JUMP JUMPDEST PUSH1 0x0 PUSH1 0xE0 DUP3 ADD SWAP1 POP PUSH2 0x460B PUSH1 0x0 DUP4 ADD DUP11 PUSH2 0x36DE JUMP JUMPDEST PUSH2 0x4618 PUSH1 0x20 DUP4 ADD DUP10 PUSH2 0x36DE JUMP JUMPDEST PUSH2 0x4625 PUSH1 0x40 DUP4 ADD DUP9 PUSH2 0x36DE JUMP JUMPDEST PUSH2 0x4632 PUSH1 0x60 DUP4 ADD DUP8 PUSH2 0x36DE JUMP JUMPDEST DUP2 DUP2 SUB PUSH1 0x80 DUP4 ADD MSTORE PUSH2 0x4644 DUP2 DUP7 PUSH2 0x37D5 JUMP JUMPDEST SWAP1 POP DUP2 DUP2 SUB PUSH1 0xA0 DUP4 ADD MSTORE PUSH2 0x4658 DUP2 DUP6 PUSH2 0x37D5 JUMP JUMPDEST SWAP1 POP DUP2 DUP2 SUB PUSH1 0xC0 DUP4 ADD MSTORE PUSH2 0x466C DUP2 DUP5 PUSH2 0x37D5 JUMP JUMPDEST SWAP1 POP SWAP9 SWAP8 POP POP POP POP POP POP POP POP JUMP JUMPDEST PUSH1 0x0 DUP1 PUSH1 0x0 DUP1 PUSH1 0x0 DUP1 PUSH1 0xC0 DUP8 DUP10 SUB SLT ISZERO PUSH2 0x4697 JUMPI PUSH2 0x4696 PUSH2 0x3712 JUMP JUMPDEST JUMPDEST PUSH1 0x0 DUP8 ADD CALLDATALOAD PUSH8 0xFFFFFFFFFFFFFFFF DUP2 GT ISZERO PUSH2 0x46B5 JUMPI PUSH2 0x46B4 PUSH2 0x3717 JUMP JUMPDEST JUMPDEST PUSH2 0x46C1 DUP10 DUP3 DUP11 ADD PUSH2 0x3983 JUMP JUMPDEST SWAP7 POP POP PUSH1 0x20 DUP8 ADD CALLDATALOAD PUSH8 0xFFFFFFFFFFFFFFFF DUP2 GT ISZERO PUSH2 0x46E2 JUMPI PUSH2 0x46E1 PUSH2 0x3717 JUMP JUMPDEST JUMPDEST PUSH2 0x46EE DUP10 DUP3 DUP11 ADD PUSH2 0x3983 JUMP JUMPDEST SWAP6 POP POP PUSH1 0x40 DUP8 ADD CALLDATALOAD PUSH8 0xFFFFFFFFFFFFFFFF DUP2 GT ISZERO PUSH2 0x470F JUMPI PUSH2 0x470E PUSH2 0x3717 JUMP JUMPDEST JUMPDEST PUSH2 0x471B DUP10 DUP3 DUP11 ADD PUSH2 0x3983 JUMP JUMPDEST SWAP5 POP POP PUSH1 0x60 DUP8 ADD CALLDATALOAD PUSH8 0xFFFFFFFFFFFFFFFF DUP2 GT ISZERO PUSH2 0x473C JUMPI PUSH2 0x473B PUSH2 0x3717 JUMP JUMPDEST JUMPDEST PUSH2 0x4748 DUP10 DUP3 DUP11 ADD PUSH2 0x3983 JUMP JUMPDEST SWAP4 POP POP PUSH1 0x80 DUP8 ADD CALLDATALOAD PUSH8 0xFFFFFFFFFFFFFFFF DUP2 GT ISZERO PUSH2 0x4769 JUMPI PUSH2 0x4768 PUSH2 0x3717 JUMP JUMPDEST JUMPDEST PUSH2 0x4775 DUP10 DUP3 DUP11 ADD PUSH2 0x3983 JUMP JUMPDEST SWAP3 POP POP PUSH1 0xA0 DUP8 ADD CALLDATALOAD PUSH8 0xFFFFFFFFFFFFFFFF DUP2 GT ISZERO PUSH2 0x4796 JUMPI PUSH2 0x4795 PUSH2 0x3717 JUMP JUMPDEST JUMPDEST PUSH2 0x47A2 DUP10 DUP3 DUP11 ADD PUSH2 0x3983 JUMP JUMPDEST SWAP2 POP POP SWAP3 SWAP6 POP SWAP3 SWAP6 POP SWAP3 SWAP6 JUMP JUMPDEST PUSH1 0x0 PUSH2 0x120 DUP3 ADD SWAP1 POP PUSH2 0x47C5 PUSH1 0x0 DUP4 ADD DUP13 PUSH2 0x36DE JUMP JUMPDEST PUSH2 0x47D2 PUSH1 0x20 DUP4 ADD DUP12 PUSH2 0x36DE JUMP JUMPDEST PUSH2 0x47DF PUSH1 0x40 DUP4 ADD DUP11 PUSH2 0x36DE JUMP JUMPDEST DUP2 DUP2 SUB PUSH1 0x60 DUP4 ADD MSTORE PUSH2 0x47F1 DUP2 DUP10 PUSH2 0x37D5 JUMP JUMPDEST SWAP1 POP DUP2 DUP2 SUB PUSH1 0x80 DUP4 ADD MSTORE PUSH2 0x4805 DUP2 DUP9 PUSH2 0x37D5 JUMP JUMPDEST SWAP1 POP DUP2 DUP2 SUB PUSH1 0xA0 DUP4 ADD MSTORE PUSH2 0x4819 DUP2 DUP8 PUSH2 0x37D5 JUMP JUMPDEST SWAP1 POP DUP2 DUP2 SUB PUSH1 0xC0 DUP4 ADD MSTORE PUSH2 0x482D DUP2 DUP7 PUSH2 0x37D5 JUMP JUMPDEST SWAP1 POP PUSH2 0x483C PUSH1 0xE0 DUP4 ADD DUP6 PUSH2 0x36DE JUMP JUMPDEST PUSH2 0x484A PUSH2 0x100 DUP4 ADD DUP5 PUSH2 0x36DE JUMP JUMPDEST SWAP11 SWAP10 POP POP POP POP POP POP POP POP POP POP JUMP JUMPDEST PUSH1 0x0 PUSH2 0x120 DUP3 ADD SWAP1 POP PUSH2 0x486E PUSH1 0x0 DUP4 ADD DUP13 PUSH2 0x36DE JUMP JUMPDEST DUP2 DUP2 SUB PUSH1 0x20 DUP4 ADD MSTORE PUSH2 0x4880 DUP2 DUP12 PUSH2 0x37D5 JUMP JUMPDEST SWAP1 POP DUP2 DUP2 SUB PUSH1 0x40 DUP4 ADD MSTORE PUSH2 0x4894 DUP2 DUP11 PUSH2 0x37D5 JUMP JUMPDEST SWAP1 POP DUP2 DUP2 SUB PUSH1 0x60 DUP4 ADD MSTORE PUSH2 0x48A8 DUP2 DUP10 PUSH2 0x37D5 JUMP JUMPDEST SWAP1 POP DUP2 DUP2 SUB PUSH1 0x80 DUP4 ADD MSTORE PUSH2 0x48BC DUP2 DUP9 PUSH2 0x37D5 JUMP JUMPDEST SWAP1 POP DUP2 DUP2 SUB PUSH1 0xA0 DUP4 ADD MSTORE PUSH2 0x48D0 DUP2 DUP8 PUSH2 0x37D5 JUMP JUMPDEST SWAP1 POP DUP2 DUP2 SUB PUSH1 0xC0 DUP4 ADD MSTORE PUSH2 0x48E4 DUP2 DUP7 PUSH2 0x37D5 JUMP JUMPDEST SWAP1 POP DUP2 DUP2 SUB PUSH1 0xE0 DUP4 ADD MSTORE PUSH2 0x48F8 DUP2 DUP6 PUSH2 0x37D5 JUMP JUMPDEST SWAP1 POP DUP2 DUP2 SUB PUSH2 0x100 DUP4 ADD MSTORE PUSH2 0x490D DUP2 DUP5 PUSH2 0x37D5 JUMP JUMPDEST SWAP1 POP SWAP11 SWAP10 POP POP POP POP POP POP POP POP POP POP JUMP JUMPDEST PUSH1 0x0 PUSH1 0x40 DUP3 ADD SWAP1 POP DUP2 DUP2 SUB PUSH1 0x0 DUP4 ADD MSTORE PUSH2 0x4937 DUP2 DUP6 PUSH2 0x37D5 JUMP JUMPDEST SWAP1 POP DUP2 DUP2 SUB PUSH1 0x20 DUP4 ADD MSTORE PUSH2 0x494B DUP2 DUP5 PUSH2 0x37D5 JUMP JUMPDEST SWAP1 POP SWAP4 SWAP3 POP POP POP JUMP JUMPDEST PUSH1 0x0 PUSH1 0xA0 DUP3 ADD SWAP1 POP PUSH2 0x4969 PUSH1 0x0 DUP4 ADD DUP9 PUSH2 0x36DE JUMP JUMPDEST PUSH2 0x4976 PUSH1 0x20 DUP4 ADD DUP8 PUSH2 0x36DE JUMP JUMPDEST PUSH2 0x4983 PUSH1 0x40 DUP4 ADD DUP7 PUSH2 0x36DE JUMP JUMPDEST DUP2 DUP2 SUB PUSH1 0x60 DUP4 ADD MSTORE PUSH2 0x4995 DUP2 DUP6 PUSH2 0x37D5 JUMP JUMPDEST SWAP1 POP DUP2 DUP2 SUB PUSH1 0x80 DUP4 ADD MSTORE PUSH2 0x49A9 DUP2 DUP5 PUSH2 0x37D5 JUMP JUMPDEST SWAP1 POP SWAP7 SWAP6 POP POP POP POP POP POP JUMP JUMPDEST PUSH1 0x0 PUSH1 0x20 DUP3 DUP5 SUB SLT ISZERO PUSH2 0x49CB JUMPI PUSH2 0x49CA PUSH2 0x3712 JUMP JUMPDEST JUMPDEST PUSH1 0x0 DUP3 ADD CALLDATALOAD PUSH8 0xFFFFFFFFFFFFFFFF DUP2 GT ISZERO PUSH2 0x49E9 JUMPI PUSH2 0x49E8 PUSH2 0x3717 JUMP JUMPDEST JUMPDEST PUSH2 0x49F5 DUP5 DUP3 DUP6 ADD PUSH2 0x3983 JUMP JUMPDEST SWAP2 POP POP SWAP3 SWAP2 POP POP JUMP JUMPDEST PUSH32 0x4E487B7100000000000000000000000000000000000000000000000000000000 PUSH1 0x0 MSTORE PUSH1 0x11 PUSH1 0x4 MSTORE PUSH1 0x24 PUSH1 0x0 REVERT JUMPDEST PUSH1 0x0 PUSH2 0x4A38 DUP3 PUSH2 0x36D4 JUMP JUMPDEST SWAP2 POP PUSH32 0xFFFFFFFFFFFFFFFFFFFFFFFFFFFFFFFFFFFFFFFFFFFFFFFFFFFFFFFFFFFFFFFF DUP3 EQ ISZERO PUSH2 0x4A6B JUMPI PUSH2 0x4A6A PUSH2 0x49FE JUMP JUMPDEST JUMPDEST PUSH1 0x1 DUP3 ADD SWAP1 POP SWAP2 SWAP1 POP JUMP JUMPDEST PUSH32 0x4E487B7100000000000000000000000000000000000000000000000000000000 PUSH1 0x0 MSTORE PUSH1 0x22 PUSH1 0x4 MSTORE PUSH1 0x24 PUSH1 0x0 REVERT JUMPDEST PUSH1 0x0 PUSH1 0x2 DUP3 DIV SWAP1 POP PUSH1 0x1 DUP3 AND DUP1 PUSH2 0x4ABD JUMPI PUSH1 0x7F DUP3 AND SWAP2 POP JUMPDEST PUSH1 0x20 DUP3 LT DUP2 EQ ISZERO PUSH2 0x4AD1 JUMPI PUSH2 0x4AD0 PUSH2 0x4A76 JUMP JUMPDEST JUMPDEST POP SWAP2 SWAP1 POP JUMP JUMPDEST PUSH32 0x4E487B7100000000000000000000000000000000000000000000000000000000 PUSH1 0x0 MSTORE PUSH1 0x32 PUSH1 0x4 MSTORE PUSH1 0x24 PUSH1 0x0 REVERT JUMPDEST PUSH1 0x0 PUSH2 0x4B11 DUP3 PUSH2 0x36D4 JUMP JUMPDEST SWAP2 POP PUSH2 0x4B1C DUP4 PUSH2 0x36D4 JUMP JUMPDEST SWAP3 POP DUP3 PUSH32 0xFFFFFFFFFFFFFFFFFFFFFFFFFFFFFFFFFFFFFFFFFFFFFFFFFFFFFFFFFFFFFFFF SUB DUP3 GT ISZERO PUSH2 0x4B51 JUMPI PUSH2 0x4B50 PUSH2 0x49FE JUMP JUMPDEST JUMPDEST DUP3 DUP3 ADD SWAP1 POP SWAP3 SWAP2 POP POP JUMP JUMPDEST PUSH1 0x0 DUP2 SWAP1 POP SWAP3 SWAP2 POP POP JUMP JUMPDEST POP JUMP JUMPDEST PUSH1 0x0 PUSH2 0x4B77 PUSH1 0x0 DUP4 PUSH2 0x4B5C JUMP JUMPDEST SWAP2 POP PUSH2 0x4B82 DUP3 PUSH2 0x4B67 JUMP JUMPDEST PUSH1 0x0 DUP3 ADD SWAP1 POP SWAP2 SWAP1 POP JUMP JUMPDEST PUSH1 0x0 PUSH2 0x4B98 DUP3 PUSH2 0x4B6A JUMP JUMPDEST SWAP2 POP DUP2 SWAP1 POP SWAP2 SWAP1 POP JUMP JUMPDEST PUSH32 0x53656E64206661696C6564000000000000000000000000000000000000000000 PUSH1 0x0 DUP3 ADD MSTORE POP JUMP JUMPDEST PUSH1 0x0 PUSH2 0x4BD8 PUSH1 0xB DUP4 PUSH2 0x3780 JUMP JUMPDEST SWAP2 POP PUSH2 0x4BE3 DUP3 PUSH2 0x4BA2 JUMP JUMPDEST PUSH1 0x20 DUP3 ADD SWAP1 POP SWAP2 SWAP1 POP JUMP JUMPDEST PUSH1 0x0 PUSH1 0x20 DUP3 ADD SWAP1 POP DUP2 DUP2 SUB PUSH1 0x0 DUP4 ADD MSTORE PUSH2 0x4C07 DUP2 PUSH2 0x4BCB JUMP JUMPDEST SWAP1 POP SWAP2 SWAP1 POP JUMP JUMPDEST PUSH1 0x0 PUSH2 0x4C19 DUP3 PUSH2 0x36D4 JUMP JUMPDEST SWAP2 POP PUSH2 0x4C24 DUP4 PUSH2 0x36D4 JUMP JUMPDEST SWAP3 POP DUP3 DUP3 LT ISZERO PUSH2 0x4C37 JUMPI PUSH2 0x4C36 PUSH2 0x49FE JUMP JUMPDEST JUMPDEST DUP3 DUP3 SUB SWAP1 POP SWAP3 SWAP2 POP POP JUMP JUMPDEST PUSH1 0x0 DUP2 SWAP1 POP DUP2 PUSH1 0x0 MSTORE PUSH1 0x20 PUSH1 0x0 KECCAK256 SWAP1 POP SWAP2 SWAP1 POP JUMP JUMPDEST PUSH1 0x0 DUP2 SLOAD PUSH2 0x4C64 DUP2 PUSH2 0x4AA5 JUMP JUMPDEST PUSH2 0x4C6E DUP2 DUP7 PUSH2 0x4B5C JUMP JUMPDEST SWAP5 POP PUSH1 0x1 DUP3 AND PUSH1 0x0 DUP2 EQ PUSH2 0x4C89 JUMPI PUSH1 0x1 DUP2 EQ PUSH2 0x4C9A JUMPI PUSH2 0x4CCD JUMP JUMPDEST PUSH1 0xFF NOT DUP4 AND DUP7 MSTORE DUP2 DUP7 ADD SWAP4 POP PUSH2 0x4CCD JUMP JUMPDEST PUSH2 0x4CA3 DUP6 PUSH2 0x4C42 JUMP JUMPDEST PUSH1 0x0 JUMPDEST DUP4 DUP2 LT ISZERO PUSH2 0x4CC5 JUMPI DUP2 SLOAD DUP2 DUP10 ADD MSTORE PUSH1 0x1 DUP3 ADD SWAP2 POP PUSH1 0x20 DUP2 ADD SWAP1 POP PUSH2 0x4CA6 JUMP JUMPDEST DUP4 DUP9 ADD SWAP6 POP POP POP JUMPDEST POP POP POP SWAP3 SWAP2 POP POP JUMP JUMPDEST PUSH1 0x0 PUSH2 0x4CE2 DUP3 DUP5 PUSH2 0x4C57 JUMP JUMPDEST SWAP2 POP DUP2 SWAP1 POP SWAP3 SWAP2 POP POP JUMP JUMPDEST PUSH32 0x4E487B7100000000000000000000000000000000000000000000000000000000 PUSH1 0x0 MSTORE PUSH1 0x12 PUSH1 0x4 MSTORE PUSH1 0x24 PUSH1 0x0 REVERT JUMPDEST PUSH1 0x0 PUSH2 0x4D27 DUP3 PUSH2 0x36D4 JUMP JUMPDEST SWAP2 POP PUSH2 0x4D32 DUP4 PUSH2 0x36D4 JUMP JUMPDEST SWAP3 POP DUP3 PUSH2 0x4D42 JUMPI PUSH2 0x4D41 PUSH2 0x4CED JUMP JUMPDEST JUMPDEST DUP3 DUP3 DIV SWAP1 POP SWAP3 SWAP2 POP POP JUMP JUMPDEST PUSH1 0x0 PUSH2 0x4D58 DUP3 PUSH2 0x36D4 JUMP JUMPDEST SWAP2 POP PUSH2 0x4D63 DUP4 PUSH2 0x36D4 JUMP JUMPDEST SWAP3 POP DUP3 PUSH2 0x4D73 JUMPI PUSH2 0x4D72 PUSH2 0x4CED JUMP JUMPDEST JUMPDEST DUP3 DUP3 MOD SWAP1 POP SWAP3 SWAP2 POP POP JUMP INVALID PUSH9 0x747470733A2F2F692E PUSH17 0x6F7374696D672E63632F53737847773563 GAS 0x2F PUSH17 0x6572736F6E2E6A7067A264697066735822 SLT KECCAK256 0x5E 0x28 0xBD 0x4F 0xF7 GT 0xEA PUSH6 0x2E284C72485E 0xB3 CHAINID 0x4C 0xBA 0xFC PUSH8 0x2DFF4B2C96639977 SELFBALANCE MSIZE PUSH30 0xD564736F6C63430008090033000000000000000000000000000000000000 "},"gasEstimates":{"creation":{"codeDepositCost":"3986400","executionCost":"4547","totalCost":"3990947"},"external":{"CheckEmail(string)":"infinite","CreateAccount(string,string,string,string,string,string)":"infinite","CreateCompletedInformedConsent(uint256,string,uint256)":"infinite","CreateCompletedSurveys(uint256,uint256,string,uint256)":"infinite","CreateOngoingStudy(uint256,uint256,string,string)":"infinite","CreateOrSaveSections(uint256,string)":"infinite","CreateOrSaveStudyTitle(uint256,string)":"infinite","CreateQuestionAnswer(uint256,uint256,uint256,string,string,string)":"infinite","CreateStudy(uint256,string,string,string,string,uint256,uint256,uint256)":"infinite","CreateSurvey(uint256,uint256,string,string,string,string,uint256)":"infinite","CreateSurveyCategory(string,string)":"infinite","GetOngoingStudy(uint256)":"infinite","Login(string,string)":"infinite","UpdateAccessToken(uint256,string)":"infinite","UpdateAudience(uint256,string)":"infinite","UpdateFhir(uint256,string,string,string,string,string,string,string,string,string)":"infinite","UpdateReward(uint256,string,uint256,uint256)":"infinite","UpdateStudy(uint256,string,string,string,uint256)":"infinite","UpdateStudyAges(uint256,string)":"infinite","UpdateSurvey(uint256,string,string,string,uint256)":"infinite","UpdateUser(uint256,string,uint256)":"infinite","WithDrawAmount(uint256,uint256,address)":"infinite","_AnsweredIds()":"2476","_CompletedInformedConsentIds()":"2475","_CompletedSurveyIds()":"2496","_FhirIds()":"2496","_OngoingIds()":"2584","_StudyIds()":"2540","_SubjectIds()":"2541","_SurveyCategoryIds()":"2475","_SurveyIds()":"2520","_UserIds()":"2474","_categoryMap(uint256)":"infinite","_completedinformedMap(uint256)":"infinite","_completedsurveyMap(uint256)":"infinite","_fhirMap(uint256)":"infinite","_ongoingMap(uint256)":"infinite","_questionanswerdMap(uint256)":"infinite","_sectionsMap(uint256)":"infinite","_studyAges(uint256)":"infinite","_studyAudienceMap(uint256)":"infinite","_studyMap(uint256)":"infinite","_studyTitles(uint256)":"infinite","_surveyMap(uint256)":"infinite","getAllCompletedSurveysIDByUser(uint256)":"infinite","getAllSurveysIDByStudy(uint256)":"infinite","getCompletedInformedConsentId(uint256,uint256)":"infinite","getUserDetails(uint256)":"infinite"}},"methodIdentifiers":{"CheckEmail(string)":"f8b7800f","CreateAccount(string,string,string,string,string,string)":"cda495c6","CreateCompletedInformedConsent(uint256,string,uint256)":"190f20df","CreateCompletedSurveys(uint256,uint256,string,uint256)":"7d423e10","CreateOngoingStudy(uint256,uint256,string,string)":"9e20c627","CreateOrSaveSections(uint256,string)":"66cad734","CreateOrSaveStudyTitle(uint256,string)":"ed657594","CreateQuestionAnswer(uint256,uint256,uint256,string,string,string)":"6c067b48","CreateStudy(uint256,string,string,string,string,uint256,uint256,uint256)":"a899ef42","CreateSurvey(uint256,uint256,string,string,string,string,uint256)":"3896f130","CreateSurveyCategory(string,string)":"4f8b36eb","GetOngoingStudy(uint256)":"07c70d9a","Login(string,string)":"ccef4218","UpdateAccessToken(uint256,string)":"90b18a78","UpdateAudience(uint256,string)":"ad23f8f9","UpdateFhir(uint256,string,string,string,string,string,string,string,string,string)":"ae7de73f","UpdateReward(uint256,string,uint256,uint256)":"3eebd0d0","UpdateStudy(uint256,string,string,string,uint256)":"2e98d8e5","UpdateStudyAges(uint256,string)":"b105aa43","UpdateSurvey(uint256,string,string,string,uint256)":"5f27aea1","UpdateUser(uint256,string,uint256)":"e57f973f","WithDrawAmount(uint256,uint256,address)":"b356e1b3","_AnsweredIds()":"01c66109","_CompletedInformedConsentIds()":"4f699a13","_CompletedSurveyIds()":"b6e604bd","_FhirIds()":"7c15641a","_OngoingIds()":"eb6b2870","_StudyIds()":"c482e92e","_SubjectIds()":"633bc2e1","_SurveyCategoryIds()":"29b36423","_SurveyIds()":"1429f775","_UserIds()":"ce08988c","_categoryMap(uint256)":"f0d8e873","_completedinformedMap(uint256)":"1873de77","_completedsurveyMap(uint256)":"90d6cf05","_fhirMap(uint256)":"ebe197ca","_ongoingMap(uint256)":"f6aaa804","_questionanswerdMap(uint256)":"c13b2836","_sectionsMap(uint256)":"ea7efaa6","_studyAges(uint256)":"e6576b03","_studyAudienceMap(uint256)":"fc20a886","_studyMap(uint256)":"aece8c39","_studyTitles(uint256)":"78119530","_surveyMap(uint256)":"de7acfd7","getAllCompletedSurveysIDByUser(uint256)":"49b9b07b","getAllSurveysIDByStudy(uint256)":"8b23607c","getCompletedInformedConsentId(uint256,uint256)":"3b3aecfa","getUserDetails(uint256)":"1c1a9f7b"}},"storageLayout":{"storage":[{"astId":178,"contract":"contracts/WavyStudy.sol:WavyStudy","label":"_UserIds","offset":0,"slot":"0","type":"t_uint256"},{"astId":180,"contract":"contracts/WavyStudy.sol:WavyStudy","label":"_FhirIds","offset":0,"slot":"1","type":"t_uint256"},{"astId":182,"contract":"contracts/WavyStudy.sol:WavyStudy","label":"_StudyIds","offset":0,"slot":"2","type":"t_uint256"},{"astId":184,"contract":"contracts/WavyStudy.sol:WavyStudy","label":"_SubjectIds","offset":0,"slot":"3","type":"t_uint256"},{"astId":186,"contract":"contracts/WavyStudy.sol:WavyStudy","label":"_SurveyIds","offset":0,"slot":"4","type":"t_uint256"},{"astId":188,"contract":"contracts/WavyStudy.sol:WavyStudy","label":"_SurveyCategoryIds","offset":0,"slot":"5","type":"t_uint256"},{"astId":190,"contract":"contracts/WavyStudy.sol:WavyStudy","label":"_OngoingIds","offset":0,"slot":"6","type":"t_uint256"},{"astId":192,"contract":"contracts/WavyStudy.sol:WavyStudy","label":"_AnsweredIds","offset":0,"slot":"7","type":"t_uint256"},{"astId":194,"contract":"contracts/WavyStudy.sol:WavyStudy","label":"_CompletedSurveyIds","offset":0,"slot":"8","type":"t_uint256"},{"astId":196,"contract":"contracts/WavyStudy.sol:WavyStudy","label":"_CompletedInformedConsentIds","offset":0,"slot":"9","type":"t_uint256"},{"astId":202,"contract":"contracts/WavyStudy.sol:WavyStudy","label":"_userMap","offset":0,"slot":"10","type":"t_mapping(t_uint256,t_struct(user_struct)30_storage)"},{"astId":208,"contract":"contracts/WavyStudy.sol:WavyStudy","label":"_studyMap","offset":0,"slot":"11","type":"t_mapping(t_uint256,t_struct(study_struct)74_storage)"},{"astId":212,"contract":"contracts/WavyStudy.sol:WavyStudy","label":"_studyAges","offset":0,"slot":"12","type":"t_mapping(t_uint256,t_string_storage)"},{"astId":216,"contract":"contracts/WavyStudy.sol:WavyStudy","label":"_studyTitles","offset":0,"slot":"13","type":"t_mapping(t_uint256,t_string_storage)"},{"astId":221,"contract":"contracts/WavyStudy.sol:WavyStudy","label":"_studyAudienceMap","offset":0,"slot":"14","type":"t_mapping(t_uint256,t_string_storage)"},{"astId":227,"contract":"contracts/WavyStudy.sol:WavyStudy","label":"_surveyMap","offset":0,"slot":"15","type":"t_mapping(t_uint256,t_struct(survey_struct)102_storage)"},{"astId":233,"contract":"contracts/WavyStudy.sol:WavyStudy","label":"_categoryMap","offset":0,"slot":"16","type":"t_mapping(t_uint256,t_struct(survey_category_struct)37_storage)"},{"astId":238,"contract":"contracts/WavyStudy.sol:WavyStudy","label":"_sectionsMap","offset":0,"slot":"17","type":"t_mapping(t_uint256,t_string_storage)"},{"astId":244,"contract":"contracts/WavyStudy.sol:WavyStudy","label":"_fhirMap","offset":0,"slot":"18","type":"t_mapping(t_uint256,t_struct(fhir_struct)130_storage)"},{"astId":250,"contract":"contracts/WavyStudy.sol:WavyStudy","label":"_ongoingMap","offset":0,"slot":"19","type":"t_mapping(t_uint256,t_struct(ongoing_struct)141_storage)"},{"astId":256,"contract":"contracts/WavyStudy.sol:WavyStudy","label":"_questionanswerdMap","offset":0,"slot":"20","type":"t_mapping(t_uint256,t_struct(survey_question_answer_struct)156_storage)"},{"astId":262,"contract":"contracts/WavyStudy.sol:WavyStudy","label":"_completedsurveyMap","offset":0,"slot":"21","type":"t_mapping(t_uint256,t_struct(completed_survey_struct)167_storage)"},{"astId":268,"contract":"contracts/WavyStudy.sol:WavyStudy","label":"_completedinformedMap","offset":0,"slot":"22","type":"t_mapping(t_uint256,t_struct(completed_informed_consent_struct)176_storage)"}],"types":{"t_mapping(t_uint256,t_string_storage)":{"encoding":"mapping","key":"t_uint256","label":"mapping(uint256 => string)","numberOfBytes":"32","value":"t_string_storage"},"t_mapping(t_uint256,t_struct(completed_informed_consent_struct)176_storage)":{"encoding":"mapping","key":"t_uint256","label":"mapping(uint256 => struct WavyStudy.completed_informed_consent_struct)","numberOfBytes":"32","value":"t_struct(completed_informed_consent_struct)176_storage"},"t_mapping(t_uint256,t_struct(completed_survey_struct)167_storage)":{"encoding":"mapping","key":"t_uint256","label":"mapping(uint256 => struct WavyStudy.completed_survey_struct)","numberOfBytes":"32","value":"t_struct(completed_survey_struct)167_storage"},"t_mapping(t_uint256,t_struct(fhir_struct)130_storage)":{"encoding":"mapping","key":"t_uint256","label":"mapping(uint256 => struct WavyStudy.fhir_struct)","numberOfBytes":"32","value":"t_struct(fhir_struct)130_storage"},"t_mapping(t_uint256,t_struct(ongoing_struct)141_storage)":{"encoding":"mapping","key":"t_uint256","label":"mapping(uint256 => struct WavyStudy.ongoing_struct)","numberOfBytes":"32","value":"t_struct(ongoing_struct)141_storage"},"t_mapping(t_uint256,t_struct(study_struct)74_storage)":{"encoding":"mapping","key":"t_uint256","label":"mapping(uint256 => struct WavyStudy.study_struct)","numberOfBytes":"32","value":"t_struct(study_struct)74_storage"},"t_mapping(t_uint256,t_struct(survey_category_struct)37_storage)":{"encoding":"mapping","key":"t_uint256","label":"mapping(uint256 => struct WavyStudy.survey_category_struct)","numberOfBytes":"32","value":"t_struct(survey_category_struct)37_storage"},"t_mapping(t_uint256,t_struct(survey_question_answer_struct)156_storage)":{"encoding":"mapping","key":"t_uint256","label":"mapping(uint256 => struct WavyStudy.survey_question_answer_struct)","numberOfBytes":"32","value":"t_struct(survey_question_answer_struct)156_storage"},"t_mapping(t_uint256,t_struct(survey_struct)102_storage)":{"encoding":"mapping","key":"t_uint256","label":"mapping(uint256 => struct WavyStudy.survey_struct)","numberOfBytes":"32","value":"t_struct(survey_struct)102_storage"},"t_mapping(t_uint256,t_struct(user_struct)30_storage)":{"encoding":"mapping","key":"t_uint256","label":"mapping(uint256 => struct WavyStudy.user_struct)","numberOfBytes":"32","value":"t_struct(user_struct)30_storage"},"t_string_storage":{"encoding":"bytes","label":"string","numberOfBytes":"32"},"t_struct(completed_informed_consent_struct)176_storage":{"encoding":"inplace","label":"struct WavyStudy.completed_informed_consent_struct","members":[{"astId":169,"contract":"contracts/WavyStudy.sol:WavyStudy","label":"completed_informed_consent_id","offset":0,"slot":"0","type":"t_uint256"},{"astId":171,"contract":"contracts/WavyStudy.sol:WavyStudy","label":"study_id","offset":0,"slot":"1","type":"t_uint256"},{"astId":173,"contract":"contracts/WavyStudy.sol:WavyStudy","label":"user_id","offset":0,"slot":"2","type":"t_uint256"},{"astId":175,"contract":"contracts/WavyStudy.sol:WavyStudy","label":"date","offset":0,"slot":"3","type":"t_string_storage"}],"numberOfBytes":"128"},"t_struct(completed_survey_struct)167_storage":{"encoding":"inplace","label":"struct WavyStudy.completed_survey_struct","members":[{"astId":158,"contract":"contracts/WavyStudy.sol:WavyStudy","label":"completed_survey_id","offset":0,"slot":"0","type":"t_uint256"},{"astId":160,"contract":"contracts/WavyStudy.sol:WavyStudy","label":"study_id","offset":0,"slot":"1","type":"t_uint256"},{"astId":162,"contract":"contracts/WavyStudy.sol:WavyStudy","label":"user_id","offset":0,"slot":"2","type":"t_uint256"},{"astId":164,"contract":"contracts/WavyStudy.sol:WavyStudy","label":"survey_id","offset":0,"slot":"3","type":"t_uint256"},{"astId":166,"contract":"contracts/WavyStudy.sol:WavyStudy","label":"date","offset":0,"slot":"4","type":"t_string_storage"}],"numberOfBytes":"160"},"t_struct(fhir_struct)130_storage":{"encoding":"inplace","label":"struct WavyStudy.fhir_struct","members":[{"astId":105,"contract":"contracts/WavyStudy.sol:WavyStudy","label":"user_id","offset":0,"slot":"0","type":"t_uint256"},{"astId":108,"contract":"contracts/WavyStudy.sol:WavyStudy","label":"family_name","offset":0,"slot":"1","type":"t_string_storage"},{"astId":111,"contract":"contracts/WavyStudy.sol:WavyStudy","label":"given_name","offset":0,"slot":"2","type":"t_string_storage"},{"astId":114,"contract":"contracts/WavyStudy.sol:WavyStudy","label":"identifier","offset":0,"slot":"3","type":"t_string_storage"},{"astId":117,"contract":"contracts/WavyStudy.sol:WavyStudy","label":"phone","offset":0,"slot":"4","type":"t_string_storage"},{"astId":120,"contract":"contracts/WavyStudy.sol:WavyStudy","label":"gender","offset":0,"slot":"5","type":"t_string_storage"},{"astId":123,"contract":"contracts/WavyStudy.sol:WavyStudy","label":"birth_date","offset":0,"slot":"6","type":"t_string_storage"},{"astId":126,"contract":"contracts/WavyStudy.sol:WavyStudy","label":"about","offset":0,"slot":"7","type":"t_string_storage"},{"astId":129,"contract":"contracts/WavyStudy.sol:WavyStudy","label":"patient_id","offset":0,"slot":"8","type":"t_string_storage"}],"numberOfBytes":"288"},"t_struct(ongoing_struct)141_storage":{"encoding":"inplace","label":"struct WavyStudy.ongoing_struct","members":[{"astId":132,"contract":"contracts/WavyStudy.sol:WavyStudy","label":"ongoing_id","offset":0,"slot":"0","type":"t_uint256"},{"astId":134,"contract":"contracts/WavyStudy.sol:WavyStudy","label":"study_id","offset":0,"slot":"1","type":"t_uint256"},{"astId":136,"contract":"contracts/WavyStudy.sol:WavyStudy","label":"user_id","offset":0,"slot":"2","type":"t_uint256"},{"astId":138,"contract":"contracts/WavyStudy.sol:WavyStudy","label":"date","offset":0,"slot":"3","type":"t_string_storage"},{"astId":140,"contract":"contracts/WavyStudy.sol:WavyStudy","label":"given_permission","offset":0,"slot":"4","type":"t_string_storage"}],"numberOfBytes":"160"},"t_struct(study_struct)74_storage":{"encoding":"inplace","label":"struct WavyStudy.study_struct","members":[{"astId":40,"contract":"contracts/WavyStudy.sol:WavyStudy","label":"study_id","offset":0,"slot":"0","type":"t_uint256"},{"astId":43,"contract":"contracts/WavyStudy.sol:WavyStudy","label":"user_id","offset":0,"slot":"1","type":"t_uint256"},{"astId":46,"contract":"contracts/WavyStudy.sol:WavyStudy","label":"image","offset":0,"slot":"2","type":"t_string_storage"},{"astId":49,"contract":"contracts/WavyStudy.sol:WavyStudy","label":"title","offset":0,"slot":"3","type":"t_string_storage"},{"astId":52,"contract":"contracts/WavyStudy.sol:WavyStudy","label":"description","offset":0,"slot":"4","type":"t_string_storage"},{"astId":55,"contract":"contracts/WavyStudy.sol:WavyStudy","label":"permission","offset":0,"slot":"5","type":"t_string_storage"},{"astId":58,"contract":"contracts/WavyStudy.sol:WavyStudy","label":"contributors","offset":0,"slot":"6","type":"t_uint256"},{"astId":61,"contract":"contracts/WavyStudy.sol:WavyStudy","label":"audience","offset":0,"slot":"7","type":"t_uint256"},{"astId":64,"contract":"contracts/WavyStudy.sol:WavyStudy","label":"budget","offset":0,"slot":"8","type":"t_uint256"},{"astId":67,"contract":"contracts/WavyStudy.sol:WavyStudy","label":"reward_type","offset":0,"slot":"9","type":"t_string_storage"},{"astId":70,"contract":"contracts/WavyStudy.sol:WavyStudy","label":"reward_price","offset":0,"slot":"10","type":"t_uint256"},{"astId":73,"contract":"contracts/WavyStudy.sol:WavyStudy","label":"total_spending_limit","offset":0,"slot":"11","type":"t_uint256"}],"numberOfBytes":"384"},"t_struct(survey_category_struct)37_storage":{"encoding":"inplace","label":"struct WavyStudy.survey_category_struct","members":[{"astId":33,"contract":"contracts/WavyStudy.sol:WavyStudy","label":"name","offset":0,"slot":"0","type":"t_string_storage"},{"astId":36,"contract":"contracts/WavyStudy.sol:WavyStudy","label":"image","offset":0,"slot":"1","type":"t_string_storage"}],"numberOfBytes":"64"},"t_struct(survey_question_answer_struct)156_storage":{"encoding":"inplace","label":"struct WavyStudy.survey_question_answer_struct","members":[{"astId":143,"contract":"contracts/WavyStudy.sol:WavyStudy","label":"answer_id","offset":0,"slot":"0","type":"t_uint256"},{"astId":145,"contract":"contracts/WavyStudy.sol:WavyStudy","label":"study_id","offset":0,"slot":"1","type":"t_uint256"},{"astId":147,"contract":"contracts/WavyStudy.sol:WavyStudy","label":"user_id","offset":0,"slot":"2","type":"t_uint256"},{"astId":149,"contract":"contracts/WavyStudy.sol:WavyStudy","label":"survey_id","offset":0,"slot":"3","type":"t_uint256"},{"astId":151,"contract":"contracts/WavyStudy.sol:WavyStudy","label":"section_id","offset":0,"slot":"4","type":"t_string_storage"},{"astId":153,"contract":"contracts/WavyStudy.sol:WavyStudy","label":"question_id","offset":0,"slot":"5","type":"t_string_storage"},{"astId":155,"contract":"contracts/WavyStudy.sol:WavyStudy","label":"answer","offset":0,"slot":"6","type":"t_string_storage"}],"numberOfBytes":"224"},"t_struct(survey_struct)102_storage":{"encoding":"inplace","label":"struct WavyStudy.survey_struct","members":[{"astId":77,"contract":"contracts/WavyStudy.sol:WavyStudy","label":"survey_id","offset":0,"slot":"0","type":"t_uint256"},{"astId":80,"contract":"contracts/WavyStudy.sol:WavyStudy","label":"study_id","offset":0,"slot":"1","type":"t_uint256"},{"astId":83,"contract":"contracts/WavyStudy.sol:WavyStudy","label":"user_id","offset":0,"slot":"2","type":"t_uint256"},{"astId":86,"contract":"contracts/WavyStudy.sol:WavyStudy","label":"name","offset":0,"slot":"3","type":"t_string_storage"},{"astId":89,"contract":"contracts/WavyStudy.sol:WavyStudy","label":"description","offset":0,"slot":"4","type":"t_string_storage"},{"astId":92,"contract":"contracts/WavyStudy.sol:WavyStudy","label":"date","offset":0,"slot":"5","type":"t_string_storage"},{"astId":95,"contract":"contracts/WavyStudy.sol:WavyStudy","label":"image","offset":0,"slot":"6","type":"t_string_storage"},{"astId":98,"contract":"contracts/WavyStudy.sol:WavyStudy","label":"reward","offset":0,"slot":"7","type":"t_uint256"},{"astId":101,"contract":"contracts/WavyStudy.sol:WavyStudy","label":"submission","offset":0,"slot":"8","type":"t_uint256"}],"numberOfBytes":"288"},"t_struct(user_struct)30_storage":{"encoding":"inplace","label":"struct WavyStudy.user_struct","members":[{"astId":5,"contract":"contracts/WavyStudy.sol:WavyStudy","label":"user_id","offset":0,"slot":"0","type":"t_uint256"},{"astId":8,"contract":"contracts/WavyStudy.sol:WavyStudy","label":"name","offset":0,"slot":"1","type":"t_string_storage"},{"astId":11,"contract":"contracts/WavyStudy.sol:WavyStudy","label":"email","offset":0,"slot":"2","type":"t_string_storage"},{"astId":14,"contract":"contracts/WavyStudy.sol:WavyStudy","label":"password","offset":0,"slot":"3","type":"t_string_storage"},{"astId":17,"contract":"contracts/WavyStudy.sol:WavyStudy","label":"walletaddress","offset":0,"slot":"4","type":"t_string_storage"},{"astId":20,"contract":"contracts/WavyStudy.sol:WavyStudy","label":"image","offset":0,"slot":"5","type":"t_string_storage"},{"astId":23,"contract":"contracts/WavyStudy.sol:WavyStudy","label":"credits","offset":0,"slot":"6","type":"t_uint256"},{"astId":26,"contract":"contracts/WavyStudy.sol:WavyStudy","label":"accesstoken","offset":0,"slot":"7","type":"t_string_storage"},{"astId":29,"contract":"contracts/WavyStudy.sol:WavyStudy","label":"fhirid","offset":0,"slot":"8","type":"t_uint256"}],"numberOfBytes":"288"},"t_uint256":{"encoding":"inplace","label":"uint256","numberOfBytes":"32"}}},"userdoc":{"kind":"user","methods":{"_categoryMap(uint256)":{"notice":"The map of all the Survey Category ."},"_completedinformedMap(uint256)":{"notice":"The map of all the Completed Informed Consent."},"_completedsurveyMap(uint256)":{"notice":"The map of all the Completed Surveys."},"_fhirMap(uint256)":{"notice":"The map of all the FHIR information."},"_ongoingMap(uint256)":{"notice":"The map of all the OnGoing Studies."},"_questionanswerdMap(uint256)":{"notice":"The map of all the Question Answerd in a Survey."},"_sectionsMap(uint256)":{"notice":"The map of all the Survey Sections  ."},"_studyAudienceMap(uint256)":{"notice":"The map of all the Rewards information."},"_studyMap(uint256)":{"notice":"The map of all the Studies information."},"_surveyMap(uint256)":{"notice":"The map of all the Surveys information."}},"version":1}}}}